{
  "contractName": "EHRmain",
  "abi": [
    {
      "inputs": [],
      "stateMutability": "nonpayable",
      "type": "constructor"
    },
    {
      "anonymous": false,
      "inputs": [
        {
          "indexed": true,
          "internalType": "address",
          "name": "provider",
          "type": "address"
        },
        {
          "indexed": true,
          "internalType": "address",
          "name": "patient",
          "type": "address"
        },
        {
          "indexed": false,
          "internalType": "uint256",
          "name": "timestamp",
          "type": "uint256"
        }
      ],
      "name": "EmergencyAccess",
      "type": "event"
    },
    {
      "anonymous": false,
      "inputs": [
        {
          "indexed": true,
          "internalType": "bytes32",
          "name": "dataHash",
          "type": "bytes32"
        },
        {
          "indexed": true,
          "internalType": "address",
          "name": "owner",
          "type": "address"
        },
        {
          "indexed": false,
          "internalType": "enum EHRmain.DataType",
          "name": "dataType",
          "type": "uint8"
        }
      ],
      "name": "HealthRecordAdded",
      "type": "event"
    },
    {
      "anonymous": false,
      "inputs": [
        {
          "indexed": true,
          "internalType": "bytes32",
          "name": "requestId",
          "type": "bytes32"
        },
        {
          "indexed": true,
          "internalType": "address",
          "name": "requester",
          "type": "address"
        },
        {
          "indexed": true,
          "internalType": "address",
          "name": "owner",
          "type": "address"
        }
      ],
      "name": "PermissionGranted",
      "type": "event"
    },
    {
      "anonymous": false,
      "inputs": [
        {
          "indexed": true,
          "internalType": "bytes32",
          "name": "requestId",
          "type": "bytes32"
        },
        {
          "indexed": true,
          "internalType": "address",
          "name": "requester",
          "type": "address"
        },
        {
          "indexed": true,
          "internalType": "address",
          "name": "owner",
          "type": "address"
        }
      ],
      "name": "PermissionRequested",
      "type": "event"
    },
    {
      "anonymous": false,
      "inputs": [
        {
          "indexed": true,
          "internalType": "bytes32",
          "name": "dataHash",
          "type": "bytes32"
        },
        {
          "indexed": true,
          "internalType": "address",
          "name": "revokedUser",
          "type": "address"
        }
      ],
      "name": "PermissionRevoked",
      "type": "event"
    },
    {
      "anonymous": false,
      "inputs": [
        {
          "indexed": true,
          "internalType": "bytes32",
          "name": "dataHash",
          "type": "bytes32"
        },
        {
          "indexed": true,
          "internalType": "address",
          "name": "updater",
          "type": "address"
        }
      ],
      "name": "RecordUpdated",
      "type": "event"
    },
    {
      "anonymous": false,
      "inputs": [
        {
          "indexed": true,
          "internalType": "address",
          "name": "userAddress",
          "type": "address"
        },
        {
          "indexed": false,
          "internalType": "enum EHRmain.Role",
          "name": "role",
          "type": "uint8"
        }
      ],
      "name": "UserRegistered",
      "type": "event"
    },
    {
      "inputs": [
        {
          "internalType": "bytes32",
          "name": "",
          "type": "bytes32"
        }
      ],
      "name": "healthRecords",
      "outputs": [
        {
          "internalType": "address",
          "name": "owner",
          "type": "address"
        },
        {
          "internalType": "bytes32",
          "name": "dataHash",
          "type": "bytes32"
        },
        {
          "internalType": "enum EHRmain.DataType",
          "name": "dataType",
          "type": "uint8"
        },
        {
          "internalType": "bytes",
          "name": "encryptedSymmetricKey",
          "type": "bytes"
        },
        {
          "internalType": "uint256",
          "name": "timestamp",
          "type": "uint256"
        },
        {
          "internalType": "bool",
          "name": "isValid",
          "type": "bool"
        },
        {
          "internalType": "address",
          "name": "provider",
          "type": "address"
        }
      ],
      "stateMutability": "view",
      "type": "function",
      "constant": true
    },
    {
      "inputs": [
        {
          "internalType": "bytes32",
          "name": "",
          "type": "bytes32"
        }
      ],
      "name": "permissionRequests",
      "outputs": [
        {
          "internalType": "address",
          "name": "requester",
          "type": "address"
        },
        {
          "internalType": "address",
          "name": "owner",
          "type": "address"
        },
        {
          "internalType": "bytes32",
          "name": "dataHash",
          "type": "bytes32"
        },
        {
          "internalType": "enum EHRmain.PermissionType",
          "name": "permissionType",
          "type": "uint8"
        },
        {
          "internalType": "enum EHRmain.RequestStatus",
          "name": "status",
          "type": "uint8"
        },
        {
          "internalType": "uint256",
          "name": "requestDate",
          "type": "uint256"
        },
        {
          "internalType": "uint256",
          "name": "expiryDate",
          "type": "uint256"
        },
        {
          "internalType": "uint256",
          "name": "incentiveAmount",
          "type": "uint256"
        },
        {
          "internalType": "bool",
          "name": "isIncentiveBased",
          "type": "bool"
        }
      ],
      "stateMutability": "view",
      "type": "function",
      "constant": true
    },
    {
      "inputs": [
        {
          "internalType": "address",
          "name": "",
          "type": "address"
        },
        {
          "internalType": "bytes32",
          "name": "",
          "type": "bytes32"
        },
        {
          "internalType": "address",
          "name": "",
          "type": "address"
        }
      ],
      "name": "permissions",
      "outputs": [
        {
          "internalType": "bool",
          "name": "",
          "type": "bool"
        }
      ],
      "stateMutability": "view",
      "type": "function",
      "constant": true
    },
    {
      "inputs": [],
      "name": "systemOwner",
      "outputs": [
        {
          "internalType": "address",
          "name": "",
          "type": "address"
        }
      ],
      "stateMutability": "view",
      "type": "function",
      "constant": true
    },
    {
      "inputs": [],
      "name": "totalRecords",
      "outputs": [
        {
          "internalType": "uint256",
          "name": "",
          "type": "uint256"
        }
      ],
      "stateMutability": "view",
      "type": "function",
      "constant": true
    },
    {
      "inputs": [],
      "name": "totalRequests",
      "outputs": [
        {
          "internalType": "uint256",
          "name": "",
          "type": "uint256"
        }
      ],
      "stateMutability": "view",
      "type": "function",
      "constant": true
    },
    {
      "inputs": [],
      "name": "totalUsers",
      "outputs": [
        {
          "internalType": "uint256",
          "name": "",
          "type": "uint256"
        }
      ],
      "stateMutability": "view",
      "type": "function",
      "constant": true
    },
    {
      "inputs": [
        {
          "internalType": "address",
          "name": "",
          "type": "address"
        }
      ],
      "name": "users",
      "outputs": [
        {
          "internalType": "address",
          "name": "userAddress",
          "type": "address"
        },
        {
          "internalType": "enum EHRmain.Role",
          "name": "role",
          "type": "uint8"
        },
        {
          "internalType": "uint256",
          "name": "registrationDate",
          "type": "uint256"
        },
        {
          "internalType": "bytes32",
          "name": "publicKeyHash",
          "type": "bytes32"
        }
      ],
      "stateMutability": "view",
      "type": "function",
      "constant": true
    },
    {
      "inputs": [
        {
          "internalType": "enum EHRmain.Role",
          "name": "_role",
          "type": "uint8"
        },
        {
          "internalType": "bytes32",
          "name": "_publicKeyHash",
          "type": "bytes32"
        }
      ],
      "name": "registerUser",
      "outputs": [
        {
          "internalType": "bool",
          "name": "",
          "type": "bool"
        }
      ],
      "stateMutability": "nonpayable",
      "type": "function"
    },
    {
      "inputs": [
        {
          "internalType": "address",
          "name": "_userAddress",
          "type": "address"
        }
      ],
      "name": "checkUser",
      "outputs": [
        {
          "internalType": "enum EHRmain.Role",
          "name": "",
          "type": "uint8"
        }
      ],
      "stateMutability": "view",
      "type": "function",
      "constant": true
    },
    {
      "inputs": [
        {
          "internalType": "address",
          "name": "_patientAddress",
          "type": "address"
        },
        {
          "internalType": "bytes32",
          "name": "_dataHash",
          "type": "bytes32"
        },
        {
          "internalType": "enum EHRmain.DataType",
          "name": "_dataType",
          "type": "uint8"
        },
        {
          "internalType": "bytes",
          "name": "_encryptedSymmetricKey",
          "type": "bytes"
        }
      ],
      "name": "addEHRData",
      "outputs": [
        {
          "internalType": "bool",
          "name": "",
          "type": "bool"
        }
      ],
      "stateMutability": "nonpayable",
      "type": "function"
    },
    {
      "inputs": [
        {
          "internalType": "bytes32",
          "name": "_dataHash",
          "type": "bytes32"
        },
        {
          "internalType": "enum EHRmain.DataType",
          "name": "_dataType",
          "type": "uint8"
        }
      ],
      "name": "addPHRData",
      "outputs": [
        {
          "internalType": "bool",
          "name": "",
          "type": "bool"
        }
      ],
      "stateMutability": "nonpayable",
      "type": "function"
    },
    {
      "inputs": [
        {
          "internalType": "bytes32",
          "name": "_dataHash",
          "type": "bytes32"
        },
        {
          "internalType": "bytes",
          "name": "_newEncryptedSymmetricKey",
          "type": "bytes"
        }
      ],
      "name": "updateRecord",
      "outputs": [
        {
          "internalType": "bool",
          "name": "",
          "type": "bool"
        }
      ],
      "stateMutability": "nonpayable",
      "type": "function"
    },
    {
      "inputs": [
        {
          "internalType": "bytes32",
          "name": "_dataHash",
          "type": "bytes32"
        }
      ],
      "name": "invalidateRecord",
      "outputs": [],
      "stateMutability": "nonpayable",
      "type": "function"
    },
    {
      "inputs": [
        {
          "internalType": "address",
          "name": "_owner",
          "type": "address"
        },
        {
          "internalType": "bytes32",
          "name": "_dataHash",
          "type": "bytes32"
        },
        {
          "internalType": "enum EHRmain.PermissionType",
          "name": "_permissionType",
          "type": "uint8"
        }
      ],
      "name": "requestNonIncentiveBasedPermission",
      "outputs": [
        {
          "internalType": "bytes32",
          "name": "",
          "type": "bytes32"
        }
      ],
      "stateMutability": "nonpayable",
      "type": "function"
    },
    {
      "inputs": [
        {
          "internalType": "address",
          "name": "_owner",
          "type": "address"
        },
        {
          "internalType": "bytes32",
          "name": "_dataHash",
          "type": "bytes32"
        },
        {
          "internalType": "enum EHRmain.PermissionType",
          "name": "_permissionType",
          "type": "uint8"
        }
      ],
      "name": "requestIncentiveBasedPermission",
      "outputs": [
        {
          "internalType": "bytes32",
          "name": "",
          "type": "bytes32"
        }
      ],
      "stateMutability": "payable",
      "type": "function",
      "payable": true
    },
    {
      "inputs": [
        {
          "internalType": "bytes32",
          "name": "_requestId",
          "type": "bytes32"
        }
      ],
      "name": "approvePermission",
      "outputs": [
        {
          "internalType": "bool",
          "name": "",
          "type": "bool"
        }
      ],
      "stateMutability": "nonpayable",
      "type": "function"
    },
    {
      "inputs": [
        {
          "internalType": "bytes32",
          "name": "_dataHash",
          "type": "bytes32"
        },
        {
          "internalType": "address",
          "name": "_user",
          "type": "address"
        }
      ],
      "name": "revokePermission",
      "outputs": [
        {
          "internalType": "bool",
          "name": "",
          "type": "bool"
        }
      ],
      "stateMutability": "nonpayable",
      "type": "function"
    },
    {
      "inputs": [
        {
          "internalType": "address",
          "name": "_patientAddress",
          "type": "address"
        }
      ],
      "name": "emergencyAccess",
      "outputs": [],
      "stateMutability": "nonpayable",
      "type": "function"
    }
  ],
  "bytecode": "0x608060405234801561001057600080fd5b5033600460006101000a81548173ffffffffffffffffffffffffffffffffffffffff021916908373ffffffffffffffffffffffffffffffffffffffff160217905550600060058190555060006006819055506000600781905550613b54806100796000396000f3fe6080604052600436106101145760003560e01c80636f01d0ab116100a0578063a87430ba11610064578063a87430ba1461040c578063b21009e11461044c578063bff1f9e114610489578063cbe06477146104b4578063e9021744146104f157610114565b80636f01d0ab146102ed5780638aea61dc1461032a5780639ec5ee7a14610355578063a6a8f17b14610392578063a6fb108f146103cf57610114565b806329bd8001116100e757806329bd8001146101e7578063337792541461022c57806341d724b41461025757806347baacbb146102805780634f846888146102bd57610114565b8063121b422014610119578063125f8974146101565780631e9d48cf1461018157806324dc1cfa146101be575b600080fd5b34801561012557600080fd5b50610140600480360381019061013b91906125ac565b610534565b60405161014d9190612607565b60405180910390f35b34801561016257600080fd5b5061016b6107f1565b604051610178919061263b565b60405180910390f35b34801561018d57600080fd5b506101a860048036038101906101a391906126b4565b6107f7565b6040516101b59190612758565b60405180910390f35b3480156101ca57600080fd5b506101e560048036038101906101e09190612773565b61084f565b005b3480156101f357600080fd5b5061020e60048036038101906102099190612773565b610976565b6040516102239998979695949392919061284e565b60405180910390f35b34801561023857600080fd5b50610241610a2b565b60405161024e91906128db565b60405180910390f35b34801561026357600080fd5b5061027e600480360381019061027991906126b4565b610a51565b005b34801561028c57600080fd5b506102a760048036038101906102a2919061291b565b610b6e565b6040516102b49190612607565b60405180910390f35b6102d760048036038101906102d29190612980565b610ed0565b6040516102e491906129d3565b60405180910390f35b3480156102f957600080fd5b50610314600480360381019061030f9190612b34565b611394565b6040516103219190612607565b60405180910390f35b34801561033657600080fd5b5061033f611568565b60405161034c919061263b565b60405180910390f35b34801561036157600080fd5b5061037c60048036038101906103779190612980565b61156e565b60405161038991906129d3565b60405180910390f35b34801561039e57600080fd5b506103b960048036038101906103b49190612b90565b6119ee565b6040516103c69190612607565b60405180910390f35b3480156103db57600080fd5b506103f660048036038101906103f19190612773565b611c4e565b6040516104039190612607565b60405180910390f35b34801561041857600080fd5b50610433600480360381019061042e91906126b4565b611f7f565b6040516104439493929190612bd0565b60405180910390f35b34801561045857600080fd5b50610473600480360381019061046e9190612c15565b611fdc565b6040516104809190612607565b60405180910390f35b34801561049557600080fd5b5061049e6123d7565b6040516104ab919061263b565b60405180910390f35b3480156104c057600080fd5b506104db60048036038101906104d69190612c98565b6123dd565b6040516104e89190612607565b60405180910390f35b3480156104fd57600080fd5b5061051860048036038101906105139190612773565b612419565b60405161052b9796959493929190612db2565b60405180910390f35b60008073ffffffffffffffffffffffffffffffffffffffff166000803373ffffffffffffffffffffffffffffffffffffffff1673ffffffffffffffffffffffffffffffffffffffff16815260200190815260200160002060000160009054906101000a900473ffffffffffffffffffffffffffffffffffffffff1673ffffffffffffffffffffffffffffffffffffffff1614610605576040517f08c379a00000000000000000000000000000000000000000000000000000000081526004016105fc90612e85565b60405180910390fd5b60006003811115610619576106186126e1565b5b83600381111561062c5761062b6126e1565b5b0361066c576040517f08c379a000000000000000000000000000000000000000000000000000000000815260040161066390612ef1565b60405180910390fd5b60405180608001604052803373ffffffffffffffffffffffffffffffffffffffff1681526020018460038111156106a6576106a56126e1565b5b8152602001428152602001838152506000803373ffffffffffffffffffffffffffffffffffffffff1673ffffffffffffffffffffffffffffffffffffffff16815260200190815260200160002060008201518160000160006101000a81548173ffffffffffffffffffffffffffffffffffffffff021916908373ffffffffffffffffffffffffffffffffffffffff16021790555060208201518160000160146101000a81548160ff02191690836003811115610765576107646126e1565b5b021790555060408201518160010155606082015181600201559050506005600081548092919061079490612f40565b91905055503373ffffffffffffffffffffffffffffffffffffffff167f8e18574f8a7333e6a87112742a55853a643e2f0550f4e1a3a2c3f1bb2994441d846040516107df9190612758565b60405180910390a26001905092915050565b60065481565b60008060008373ffffffffffffffffffffffffffffffffffffffff1673ffffffffffffffffffffffffffffffffffffffff16815260200190815260200160002060000160149054906101000a900460ff169050919050565b806001600082815260200190815260200160002060050160009054906101000a900460ff166108b3576040517f08c379a00000000000000000000000000000000000000000000000000000000081526004016108aa90612fd4565b60405180910390fd5b600460009054906101000a900473ffffffffffffffffffffffffffffffffffffffff1673ffffffffffffffffffffffffffffffffffffffff163373ffffffffffffffffffffffffffffffffffffffff1614610943576040517f08c379a000000000000000000000000000000000000000000000000000000000815260040161093a90613066565b60405180910390fd5b60006001600084815260200190815260200160002060050160006101000a81548160ff0219169083151502179055505050565b60026020528060005260406000206000915090508060000160009054906101000a900473ffffffffffffffffffffffffffffffffffffffff16908060010160009054906101000a900473ffffffffffffffffffffffffffffffffffffffff16908060020154908060030160009054906101000a900460ff16908060030160019054906101000a900460ff16908060040154908060050154908060060154908060070160009054906101000a900460ff16905089565b600460009054906101000a900473ffffffffffffffffffffffffffffffffffffffff1681565b60026003811115610a6557610a646126e1565b5b6000803373ffffffffffffffffffffffffffffffffffffffff1673ffffffffffffffffffffffffffffffffffffffff16815260200190815260200160002060000160149054906101000a900460ff166003811115610ac657610ac56126e1565b5b14610b06576040517f08c379a0000000000000000000000000000000000000000000000000000000008152600401610afd906130f8565b60405180910390fd5b8073ffffffffffffffffffffffffffffffffffffffff163373ffffffffffffffffffffffffffffffffffffffff167f752018cdfd5f924e9f3c3eb502d75284995f06f31fb10db58a6b98c418ee2cbd42604051610b63919061263b565b60405180910390a350565b600060016003811115610b8457610b836126e1565b5b6000803373ffffffffffffffffffffffffffffffffffffffff1673ffffffffffffffffffffffffffffffffffffffff16815260200190815260200160002060000160149054906101000a900460ff166003811115610be557610be46126e1565b5b14610c25576040517f08c379a0000000000000000000000000000000000000000000000000000000008152600401610c1c9061318a565b60405180910390fd5b6000801b600160008581526020019081526020016000206001015414610c80576040517f08c379a0000000000000000000000000000000000000000000000000000000008152600401610c77906131f6565b60405180910390fd5b6040518060e001604052803373ffffffffffffffffffffffffffffffffffffffff168152602001848152602001836004811115610cc057610cbf6126e1565b5b8152602001600067ffffffffffffffff811115610ce057610cdf612a09565b5b6040519080825280601f01601f191660200182016040528015610d125781602001600182028036833780820191505090505b5081526020014281526020016001151581526020013373ffffffffffffffffffffffffffffffffffffffff168152506001600085815260200190815260200160002060008201518160000160006101000a81548173ffffffffffffffffffffffffffffffffffffffff021916908373ffffffffffffffffffffffffffffffffffffffff1602179055506020820151816001015560408201518160020160006101000a81548160ff02191690836004811115610dd057610dcf6126e1565b5b02179055506060820151816003019081610dea9190613422565b506080820151816004015560a08201518160050160006101000a81548160ff02191690831515021790555060c08201518160050160016101000a81548173ffffffffffffffffffffffffffffffffffffffff021916908373ffffffffffffffffffffffffffffffffffffffff16021790555090505060066000815480929190610e7290612f40565b91905055503373ffffffffffffffffffffffffffffffffffffffff16837fef5eabbd7c8f1989b296579684ebfc590aaf5438168fdef06026232b4175b5ed84604051610ebe91906134f4565b60405180910390a36001905092915050565b6000826001600082815260200190815260200160002060050160009054906101000a900460ff16610f36576040517f08c379a0000000000000000000000000000000000000000000000000000000008152600401610f2d90612fd4565b60405180910390fd5b600073ffffffffffffffffffffffffffffffffffffffff168573ffffffffffffffffffffffffffffffffffffffff1603610fa5576040517f08c379a0000000000000000000000000000000000000000000000000000000008152600401610f9c9061355b565b60405180910390fd5b60006003811115610fb957610fb86126e1565b5b836003811115610fcc57610fcb6126e1565b5b0361100c576040517f08c379a0000000000000000000000000000000000000000000000000000000008152600401611003906135c7565b60405180910390fd5b6000341161104f576040517f08c379a000000000000000000000000000000000000000000000000000000000815260040161104690613633565b60405180910390fd5b8473ffffffffffffffffffffffffffffffffffffffff166001600086815260200190815260200160002060000160009054906101000a900473ffffffffffffffffffffffffffffffffffffffff1673ffffffffffffffffffffffffffffffffffffffff16146110f3576040517f08c379a00000000000000000000000000000000000000000000000000000000081526004016110ea9061369f565b60405180910390fd5b6000338686423460405160200161110e959493929190613749565b6040516020818303038152906040528051906020012090506040518061012001604052803373ffffffffffffffffffffffffffffffffffffffff1681526020018773ffffffffffffffffffffffffffffffffffffffff168152602001868152602001856003811115611183576111826126e1565b5b81526020016000600381111561119c5761119b6126e1565b5b815260200142815260200162278d00426111b691906137a8565b8152602001348152602001600115158152506002600083815260200190815260200160002060008201518160000160006101000a81548173ffffffffffffffffffffffffffffffffffffffff021916908373ffffffffffffffffffffffffffffffffffffffff16021790555060208201518160010160006101000a81548173ffffffffffffffffffffffffffffffffffffffff021916908373ffffffffffffffffffffffffffffffffffffffff1602179055506040820151816002015560608201518160030160006101000a81548160ff0219169083600381111561129e5761129d6126e1565b5b021790555060808201518160030160016101000a81548160ff021916908360038111156112ce576112cd6126e1565b5b021790555060a0820151816004015560c0820151816005015560e082015181600601556101008201518160070160006101000a81548160ff0219169083151502179055509050506007600081548092919061132890612f40565b91905055508573ffffffffffffffffffffffffffffffffffffffff163373ffffffffffffffffffffffffffffffffffffffff16827f9a387978508c64b67d0ec39e75dc556f96f10430d94187ba4507c6dcd34cf32960405160405180910390a480925050509392505050565b6000826001600082815260200190815260200160002060050160009054906101000a900460ff166113fa576040517f08c379a00000000000000000000000000000000000000000000000000000000081526004016113f190612fd4565b60405180910390fd5b60006001600086815260200190815260200160002090508060000160009054906101000a900473ffffffffffffffffffffffffffffffffffffffff1673ffffffffffffffffffffffffffffffffffffffff163373ffffffffffffffffffffffffffffffffffffffff1614806114be57508060050160019054906101000a900473ffffffffffffffffffffffffffffffffffffffff1673ffffffffffffffffffffffffffffffffffffffff163373ffffffffffffffffffffffffffffffffffffffff16145b6114fd576040517f08c379a00000000000000000000000000000000000000000000000000000000081526004016114f490613828565b60405180910390fd5b8381600301908161150e9190613422565b504281600401819055503373ffffffffffffffffffffffffffffffffffffffff16857f0596aa396eab4e69aca55f612009f548a14767e50000a5446fbebc9dcc43820c60405160405180910390a360019250505092915050565b60075481565b6000826001600082815260200190815260200160002060050160009054906101000a900460ff166115d4576040517f08c379a00000000000000000000000000000000000000000000000000000000081526004016115cb90612fd4565b60405180910390fd5b600073ffffffffffffffffffffffffffffffffffffffff168573ffffffffffffffffffffffffffffffffffffffff1603611643576040517f08c379a000000000000000000000000000000000000000000000000000000000815260040161163a9061355b565b60405180910390fd5b60006003811115611657576116566126e1565b5b83600381111561166a576116696126e1565b5b036116aa576040517f08c379a00000000000000000000000000000000000000000000000000000000081526004016116a1906135c7565b60405180910390fd5b8473ffffffffffffffffffffffffffffffffffffffff166001600086815260200190815260200160002060000160009054906101000a900473ffffffffffffffffffffffffffffffffffffffff1673ffffffffffffffffffffffffffffffffffffffff161461174e576040517f08c379a00000000000000000000000000000000000000000000000000000000081526004016117459061369f565b60405180910390fd5b6000338686426040516020016117679493929190613848565b6040516020818303038152906040528051906020012090506040518061012001604052803373ffffffffffffffffffffffffffffffffffffffff1681526020018773ffffffffffffffffffffffffffffffffffffffff1681526020018681526020018560038111156117dc576117db6126e1565b5b8152602001600060038111156117f5576117f46126e1565b5b815260200142815260200162278d004261180f91906137a8565b815260200160008152602001600015158152506002600083815260200190815260200160002060008201518160000160006101000a81548173ffffffffffffffffffffffffffffffffffffffff021916908373ffffffffffffffffffffffffffffffffffffffff16021790555060208201518160010160006101000a81548173ffffffffffffffffffffffffffffffffffffffff021916908373ffffffffffffffffffffffffffffffffffffffff1602179055506040820151816002015560608201518160030160006101000a81548160ff021916908360038111156118f8576118f76126e1565b5b021790555060808201518160030160016101000a81548160ff02191690836003811115611928576119276126e1565b5b021790555060a0820151816004015560c0820151816005015560e082015181600601556101008201518160070160006101000a81548160ff0219169083151502179055509050506007600081548092919061198290612f40565b91905055508573ffffffffffffffffffffffffffffffffffffffff163373ffffffffffffffffffffffffffffffffffffffff16827f9a387978508c64b67d0ec39e75dc556f96f10430d94187ba4507c6dcd34cf32960405160405180910390a480925050509392505050565b6000600460009054906101000a900473ffffffffffffffffffffffffffffffffffffffff1673ffffffffffffffffffffffffffffffffffffffff163373ffffffffffffffffffffffffffffffffffffffff1614611a80576040517f08c379a0000000000000000000000000000000000000000000000000000000008152600401611a7790613066565b60405180910390fd5b600360003373ffffffffffffffffffffffffffffffffffffffff1673ffffffffffffffffffffffffffffffffffffffff168152602001908152602001600020600084815260200190815260200160002060008373ffffffffffffffffffffffffffffffffffffffff1673ffffffffffffffffffffffffffffffffffffffff16815260200190815260200160002060009054906101000a900460ff16611b5a576040517f08c379a0000000000000000000000000000000000000000000000000000000008152600401611b51906138e2565b60405180910390fd5b6000600360003373ffffffffffffffffffffffffffffffffffffffff1673ffffffffffffffffffffffffffffffffffffffff168152602001908152602001600020600085815260200190815260200160002060008473ffffffffffffffffffffffffffffffffffffffff1673ffffffffffffffffffffffffffffffffffffffff16815260200190815260200160002060006101000a81548160ff0219169083151502179055508173ffffffffffffffffffffffffffffffffffffffff16837f93f50f299c97f9dbc6c8c8193bc0d1072f9ed27d38a021fc70fb48f6c86dcc6160405160405180910390a36001905092915050565b6000806002600084815260200190815260200160002090503373ffffffffffffffffffffffffffffffffffffffff168160010160009054906101000a900473ffffffffffffffffffffffffffffffffffffffff1673ffffffffffffffffffffffffffffffffffffffff1614611cf8576040517f08c379a0000000000000000000000000000000000000000000000000000000008152600401611cef9061394e565b60405180910390fd5b60006003811115611d0c57611d0b6126e1565b5b8160030160019054906101000a900460ff166003811115611d3057611d2f6126e1565b5b14611d70576040517f08c379a0000000000000000000000000000000000000000000000000000000008152600401611d67906139ba565b60405180910390fd5b8060050154421115611db7576040517f08c379a0000000000000000000000000000000000000000000000000000000008152600401611dae90613a26565b60405180910390fd5b60018160030160016101000a81548160ff02191690836003811115611ddf57611dde6126e1565b5b02179055506001600360008360010160009054906101000a900473ffffffffffffffffffffffffffffffffffffffff1673ffffffffffffffffffffffffffffffffffffffff1673ffffffffffffffffffffffffffffffffffffffff168152602001908152602001600020600085815260200190815260200160002060008360000160009054906101000a900473ffffffffffffffffffffffffffffffffffffffff1673ffffffffffffffffffffffffffffffffffffffff1673ffffffffffffffffffffffffffffffffffffffff16815260200190815260200160002060006101000a81548160ff0219169083151502179055508060010160009054906101000a900473ffffffffffffffffffffffffffffffffffffffff1673ffffffffffffffffffffffffffffffffffffffff168160000160009054906101000a900473ffffffffffffffffffffffffffffffffffffffff1673ffffffffffffffffffffffffffffffffffffffff16847fef6ee312a0062a24a46be2eba5284183a87ff848110e8d4df979bd690d9e9f6860405160405180910390a46001915050919050565b60006020528060005260406000206000915090508060000160009054906101000a900473ffffffffffffffffffffffffffffffffffffffff16908060000160149054906101000a900460ff16908060010154908060020154905084565b600060026003811115611ff257611ff16126e1565b5b6000803373ffffffffffffffffffffffffffffffffffffffff1673ffffffffffffffffffffffffffffffffffffffff16815260200190815260200160002060000160149054906101000a900460ff166003811115612053576120526126e1565b5b14612093576040517f08c379a000000000000000000000000000000000000000000000000000000000815260040161208a906130f8565b60405180910390fd5b600073ffffffffffffffffffffffffffffffffffffffff168573ffffffffffffffffffffffffffffffffffffffff1603612102576040517f08c379a00000000000000000000000000000000000000000000000000000000081526004016120f990613a92565b60405180910390fd5b6000801b60016000868152602001908152602001600020600101541461215d576040517f08c379a0000000000000000000000000000000000000000000000000000000008152600401612154906131f6565b60405180910390fd5b6000612168866107f7565b90506001600381111561217e5761217d6126e1565b5b816003811115612191576121906126e1565b5b146121d1576040517f08c379a00000000000000000000000000000000000000000000000000000000081526004016121c890613afe565b60405180910390fd5b6040518060e001604052808773ffffffffffffffffffffffffffffffffffffffff168152602001868152602001856004811115612211576122106126e1565b5b81526020018481526020014281526020016001151581526020013373ffffffffffffffffffffffffffffffffffffffff168152506001600087815260200190815260200160002060008201518160000160006101000a81548173ffffffffffffffffffffffffffffffffffffffff021916908373ffffffffffffffffffffffffffffffffffffffff1602179055506020820151816001015560408201518160020160006101000a81548160ff021916908360048111156122d4576122d36126e1565b5b021790555060608201518160030190816122ee9190613422565b506080820151816004015560a08201518160050160006101000a81548160ff02191690831515021790555060c08201518160050160016101000a81548173ffffffffffffffffffffffffffffffffffffffff021916908373ffffffffffffffffffffffffffffffffffffffff1602179055509050506006600081548092919061237690612f40565b91905055508573ffffffffffffffffffffffffffffffffffffffff16857fef5eabbd7c8f1989b296579684ebfc590aaf5438168fdef06026232b4175b5ed866040516123c291906134f4565b60405180910390a36001915050949350505050565b60055481565b6003602052826000526040600020602052816000526040600020602052806000526040600020600092509250509054906101000a900460ff1681565b60016020528060005260406000206000915090508060000160009054906101000a900473ffffffffffffffffffffffffffffffffffffffff16908060010154908060020160009054906101000a900460ff169080600301805461247b90613245565b80601f01602080910402602001604051908101604052809291908181526020018280546124a790613245565b80156124f45780601f106124c9576101008083540402835291602001916124f4565b820191906000526020600020905b8154815290600101906020018083116124d757829003601f168201915b5050505050908060040154908060050160009054906101000a900460ff16908060050160019054906101000a900473ffffffffffffffffffffffffffffffffffffffff16905087565b6000604051905090565b600080fd5b600080fd5b6004811061255e57600080fd5b50565b60008135905061257081612551565b92915050565b6000819050919050565b61258981612576565b811461259457600080fd5b50565b6000813590506125a681612580565b92915050565b600080604083850312156125c3576125c2612547565b5b60006125d185828601612561565b92505060206125e285828601612597565b9150509250929050565b60008115159050919050565b612601816125ec565b82525050565b600060208201905061261c60008301846125f8565b92915050565b6000819050919050565b61263581612622565b82525050565b6000602082019050612650600083018461262c565b92915050565b600073ffffffffffffffffffffffffffffffffffffffff82169050919050565b600061268182612656565b9050919050565b61269181612676565b811461269c57600080fd5b50565b6000813590506126ae81612688565b92915050565b6000602082840312156126ca576126c9612547565b5b60006126d88482850161269f565b91505092915050565b7f4e487b7100000000000000000000000000000000000000000000000000000000600052602160045260246000fd5b60048110612721576127206126e1565b5b50565b600081905061273282612710565b919050565b600061274282612724565b9050919050565b61275281612737565b82525050565b600060208201905061276d6000830184612749565b92915050565b60006020828403121561278957612788612547565b5b600061279784828501612597565b91505092915050565b6127a981612676565b82525050565b6127b881612576565b82525050565b600481106127cf576127ce6126e1565b5b50565b60008190506127e0826127be565b919050565b60006127f0826127d2565b9050919050565b612800816127e5565b82525050565b60048110612817576128166126e1565b5b50565b600081905061282882612806565b919050565b60006128388261281a565b9050919050565b6128488161282d565b82525050565b600061012082019050612864600083018c6127a0565b612871602083018b6127a0565b61287e604083018a6127af565b61288b60608301896127f7565b612898608083018861283f565b6128a560a083018761262c565b6128b260c083018661262c565b6128bf60e083018561262c565b6128cd6101008301846125f8565b9a9950505050505050505050565b60006020820190506128f060008301846127a0565b92915050565b6005811061290357600080fd5b50565b600081359050612915816128f6565b92915050565b6000806040838503121561293257612931612547565b5b600061294085828601612597565b925050602061295185828601612906565b9150509250929050565b6004811061296857600080fd5b50565b60008135905061297a8161295b565b92915050565b60008060006060848603121561299957612998612547565b5b60006129a78682870161269f565b93505060206129b886828701612597565b92505060406129c98682870161296b565b9150509250925092565b60006020820190506129e860008301846127af565b92915050565b600080fd5b600080fd5b6000601f19601f8301169050919050565b7f4e487b7100000000000000000000000000000000000000000000000000000000600052604160045260246000fd5b612a41826129f8565b810181811067ffffffffffffffff82111715612a6057612a5f612a09565b5b80604052505050565b6000612a7361253d565b9050612a7f8282612a38565b919050565b600067ffffffffffffffff821115612a9f57612a9e612a09565b5b612aa8826129f8565b9050602081019050919050565b82818337600083830152505050565b6000612ad7612ad284612a84565b612a69565b905082815260208101848484011115612af357612af26129f3565b5b612afe848285612ab5565b509392505050565b600082601f830112612b1b57612b1a6129ee565b5b8135612b2b848260208601612ac4565b91505092915050565b60008060408385031215612b4b57612b4a612547565b5b6000612b5985828601612597565b925050602083013567ffffffffffffffff811115612b7a57612b7961254c565b5b612b8685828601612b06565b9150509250929050565b60008060408385031215612ba757612ba6612547565b5b6000612bb585828601612597565b9250506020612bc68582860161269f565b9150509250929050565b6000608082019050612be560008301876127a0565b612bf26020830186612749565b612bff604083018561262c565b612c0c60608301846127af565b95945050505050565b60008060008060808587031215612c2f57612c2e612547565b5b6000612c3d8782880161269f565b9450506020612c4e87828801612597565b9350506040612c5f87828801612906565b925050606085013567ffffffffffffffff811115612c8057612c7f61254c565b5b612c8c87828801612b06565b91505092959194509250565b600080600060608486031215612cb157612cb0612547565b5b6000612cbf8682870161269f565b9350506020612cd086828701612597565b9250506040612ce18682870161269f565b9150509250925092565b60058110612cfc57612cfb6126e1565b5b50565b6000819050612d0d82612ceb565b919050565b6000612d1d82612cff565b9050919050565b612d2d81612d12565b82525050565b600081519050919050565b600082825260208201905092915050565b60005b83811015612d6d578082015181840152602081019050612d52565b60008484015250505050565b6000612d8482612d33565b612d8e8185612d3e565b9350612d9e818560208601612d4f565b612da7816129f8565b840191505092915050565b600060e082019050612dc7600083018a6127a0565b612dd460208301896127af565b612de16040830188612d24565b8181036060830152612df38187612d79565b9050612e02608083018661262c565b612e0f60a08301856125f8565b612e1c60c08301846127a0565b98975050505050505050565b600082825260208201905092915050565b7f5573657220616c72656164792072656769737465726564000000000000000000600082015250565b6000612e6f601783612e28565b9150612e7a82612e39565b602082019050919050565b60006020820190508181036000830152612e9e81612e62565b9050919050565b7f496e76616c696420726f6c650000000000000000000000000000000000000000600082015250565b6000612edb600c83612e28565b9150612ee682612ea5565b602082019050919050565b60006020820190508181036000830152612f0a81612ece565b9050919050565b7f4e487b7100000000000000000000000000000000000000000000000000000000600052601160045260246000fd5b6000612f4b82612622565b91507fffffffffffffffffffffffffffffffffffffffffffffffffffffffffffffffff8203612f7d57612f7c612f11565b5b600182019050919050565b7f5265636f726420646f6573206e6f742065786973740000000000000000000000600082015250565b6000612fbe601583612e28565b9150612fc982612f88565b602082019050919050565b60006020820190508181036000830152612fed81612fb1565b9050919050565b7f4f6e6c792073797374656d206f776e65722063616e2063616c6c20746869732060008201527f66756e6374696f6e000000000000000000000000000000000000000000000000602082015250565b6000613050602883612e28565b915061305b82612ff4565b604082019050919050565b6000602082019050818103600083015261307f81613043565b9050919050565b7f4f6e6c79206865616c7468636172652070726f7669646572732063616e20636160008201527f6c6c20746869732066756e6374696f6e00000000000000000000000000000000602082015250565b60006130e2603083612e28565b91506130ed82613086565b604082019050919050565b60006020820190508181036000830152613111816130d5565b9050919050565b7f4f6e6c792070617469656e74732063616e2063616c6c20746869732066756e6360008201527f74696f6e00000000000000000000000000000000000000000000000000000000602082015250565b6000613174602483612e28565b915061317f82613118565b604082019050919050565b600060208201905081810360008301526131a381613167565b9050919050565b7f5265636f726420616c7265616479206578697374730000000000000000000000600082015250565b60006131e0601583612e28565b91506131eb826131aa565b602082019050919050565b6000602082019050818103600083015261320f816131d3565b9050919050565b7f4e487b7100000000000000000000000000000000000000000000000000000000600052602260045260246000fd5b6000600282049050600182168061325d57607f821691505b6020821081036132705761326f613216565b5b50919050565b60008190508160005260206000209050919050565b60006020601f8301049050919050565b600082821b905092915050565b6000600883026132d87fffffffffffffffffffffffffffffffffffffffffffffffffffffffffffffffff8261329b565b6132e2868361329b565b95508019841693508086168417925050509392505050565b6000819050919050565b600061331f61331a61331584612622565b6132fa565b612622565b9050919050565b6000819050919050565b61333983613304565b61334d61334582613326565b8484546132a8565b825550505050565b600090565b613362613355565b61336d818484613330565b505050565b5b818110156133915761338660008261335a565b600181019050613373565b5050565b601f8211156133d6576133a781613276565b6133b08461328b565b810160208510156133bf578190505b6133d36133cb8561328b565b830182613372565b50505b505050565b600082821c905092915050565b60006133f9600019846008026133db565b1980831691505092915050565b600061341283836133e8565b9150826002028217905092915050565b61342b82612d33565b67ffffffffffffffff81111561344457613443612a09565b5b61344e8254613245565b613459828285613395565b600060209050601f83116001811461348c576000841561347a578287015190505b6134848582613406565b8655506134ec565b601f19841661349a86613276565b60005b828110156134c25784890151825560018201915060208501945060208101905061349d565b868310156134df57848901516134db601f8916826133e8565b8355505b6001600288020188555050505b505050505050565b60006020820190506135096000830184612d24565b92915050565b7f496e76616c6964206f776e657220616464726573730000000000000000000000600082015250565b6000613545601583612e28565b91506135508261350f565b602082019050919050565b6000602082019050818103600083015261357481613538565b9050919050565b7f496e76616c6964207065726d697373696f6e2074797065000000000000000000600082015250565b60006135b1601783612e28565b91506135bc8261357b565b602082019050919050565b600060208201905081810360008301526135e0816135a4565b9050919050565b7f496e63656e7469766520616d6f756e7420726571756972656400000000000000600082015250565b600061361d601983612e28565b9150613628826135e7565b602082019050919050565b6000602082019050818103600083015261364c81613610565b9050919050565b7f496e76616c6964207265636f7264206f776e6572000000000000000000000000600082015250565b6000613689601483612e28565b915061369482613653565b602082019050919050565b600060208201905081810360008301526136b88161367c565b9050919050565b60008160601b9050919050565b60006136d7826136bf565b9050919050565b60006136e9826136cc565b9050919050565b6137016136fc82612676565b6136de565b82525050565b6000819050919050565b61372261371d82612576565b613707565b82525050565b6000819050919050565b61374361373e82612622565b613728565b82525050565b600061375582886136f0565b60148201915061376582876136f0565b6014820191506137758286613711565b6020820191506137858285613732565b6020820191506137958284613732565b6020820191508190509695505050505050565b60006137b382612622565b91506137be83612622565b92508282019050808211156137d6576137d5612f11565b5b92915050565b7f556e617574686f72697a65640000000000000000000000000000000000000000600082015250565b6000613812600c83612e28565b915061381d826137dc565b602082019050919050565b6000602082019050818103600083015261384181613805565b9050919050565b600061385482876136f0565b60148201915061386482866136f0565b6014820191506138748285613711565b6020820191506138848284613732565b60208201915081905095945050505050565b7f5065726d697373696f6e206e6f74206772616e74656400000000000000000000600082015250565b60006138cc601683612e28565b91506138d782613896565b602082019050919050565b600060208201905081810360008301526138fb816138bf565b9050919050565b7f4f6e6c79206f776e65722063616e20617070726f766500000000000000000000600082015250565b6000613938601683612e28565b915061394382613902565b602082019050919050565b600060208201905081810360008301526139678161392b565b9050919050565b7f496e76616c696420726571756573742073746174757300000000000000000000600082015250565b60006139a4601683612e28565b91506139af8261396e565b602082019050919050565b600060208201905081810360008301526139d381613997565b9050919050565b7f5265717565737420657870697265640000000000000000000000000000000000600082015250565b6000613a10600f83612e28565b9150613a1b826139da565b602082019050919050565b60006020820190508181036000830152613a3f81613a03565b9050919050565b7f496e76616c69642070617469656e742061646472657373000000000000000000600082015250565b6000613a7c601783612e28565b9150613a8782613a46565b602082019050919050565b60006020820190508181036000830152613aab81613a6f565b9050919050565b7f496e76616c69642070617469656e740000000000000000000000000000000000600082015250565b6000613ae8600f83612e28565b9150613af382613ab2565b602082019050919050565b60006020820190508181036000830152613b1781613adb565b905091905056fea264697066735822122079f259c62970f3918742eb5aafa423d6c46fd0b55515a1e1cab2e44622cfda5b64736f6c63430008130033",
  "immutableReferences": {},
  "source": "// SPDX-License-Identifier: MIT\r\npragma solidity ^0.8.0;\r\n\r\ncontract EHRmain {\r\n    // User roles\r\n    enum Role { NONE, PATIENT, PROVIDER, RESEARCHER }\r\n    \r\n    // Data types\r\n    enum DataType { EHR, PHR, LAB_RESULT, PRESCRIPTION, IMAGING }\r\n    \r\n    // Permission types\r\n    enum PermissionType { NONE, READ, WRITE, FULL }\r\n    \r\n    // Status of permission requests\r\n    enum RequestStatus { PENDING, APPROVED, REJECTED, EXPIRED }\r\n    \r\n    // Structs for storing user data\r\n    struct User {\r\n        address userAddress;\r\n        Role role;\r\n        uint256 registrationDate;\r\n        bytes32 publicKeyHash;\r\n    }\r\n\r\n    // Struct for health records metadata\r\n    struct HealthRecord {\r\n        address owner;\r\n        bytes32 dataHash;\r\n        DataType dataType;\r\n        bytes encryptedSymmetricKey;\r\n        uint256 timestamp;\r\n        bool isValid;\r\n        address provider;\r\n    }\r\n\r\n    // Struct for permission requests\r\n    struct PermissionRequest {\r\n        address requester;\r\n        address owner;\r\n        bytes32 dataHash;\r\n        PermissionType permissionType;\r\n        RequestStatus status;\r\n        uint256 requestDate;\r\n        uint256 expiryDate;\r\n        uint256 incentiveAmount;\r\n        bool isIncentiveBased;\r\n    }\r\n\r\n    // State variables\r\n    mapping(address => User) public users;\r\n    mapping(bytes32 => HealthRecord) public healthRecords;\r\n    mapping(bytes32 => PermissionRequest) public permissionRequests;\r\n    mapping(address => mapping(bytes32 => mapping(address => bool))) public permissions;\r\n    \r\n    // System variables\r\n    address public systemOwner;\r\n    uint256 public totalUsers;\r\n    uint256 public totalRecords;\r\n    uint256 public totalRequests;\r\n\r\n    // Events\r\n    event UserRegistered(address indexed userAddress, Role role);\r\n    event HealthRecordAdded(bytes32 indexed dataHash, address indexed owner, DataType dataType);\r\n    event PermissionRequested(bytes32 indexed requestId, address indexed requester, address indexed owner);\r\n    event PermissionGranted(bytes32 indexed requestId, address indexed requester, address indexed owner);\r\n    event PermissionRevoked(bytes32 indexed dataHash, address indexed revokedUser);\r\n    event RecordUpdated(bytes32 indexed dataHash, address indexed updater);\r\n    event EmergencyAccess(address indexed provider, address indexed patient, uint256 timestamp);\r\n\r\n    // Modifiers\r\n    modifier onlySystemOwner() {\r\n        require(msg.sender == systemOwner, \"Only system owner can call this function\");\r\n        _;\r\n    }\r\n\r\n    modifier onlyProvider() {\r\n        require(users[msg.sender].role == Role.PROVIDER, \"Only healthcare providers can call this function\");\r\n        _;\r\n    }\r\n\r\n    modifier onlyPatient() {\r\n        require(users[msg.sender].role == Role.PATIENT, \"Only patients can call this function\");\r\n        _; \r\n    }\r\n\r\n    modifier recordExists(bytes32 _dataHash) {\r\n        require(healthRecords[_dataHash].isValid, \"Record does not exist\");\r\n        _; \r\n    }\r\n\r\n    // Constructor\r\n    constructor() {\r\n        systemOwner = msg.sender;\r\n        totalUsers = 0;\r\n        totalRecords = 0;\r\n        totalRequests = 0;\r\n    }\r\n\r\n    // Registry Contract Functions\r\n    function registerUser(\r\n        Role _role,\r\n        bytes32 _publicKeyHash\r\n    ) external returns (bool) {\r\n        require(users[msg.sender].userAddress == address(0), \"User already registered\");\r\n        require(_role != Role.NONE, \"Invalid role\");\r\n\r\n        users[msg.sender] = User({\r\n            userAddress: msg.sender,\r\n            role: _role,\r\n            registrationDate: block.timestamp,\r\n            publicKeyHash: _publicKeyHash\r\n        });\r\n\r\n        totalUsers++;\r\n        emit UserRegistered(msg.sender, _role);\r\n        return true;\r\n    }\r\n\r\n    function checkUser(address _userAddress) public view returns (Role) {\r\n        return users[_userAddress].role;\r\n    }\r\n\r\n    // Data Contract Functions\r\n    function addEHRData(\r\n        address _patientAddress,\r\n        bytes32 _dataHash,\r\n        DataType _dataType,\r\n        bytes memory _encryptedSymmetricKey\r\n    ) external onlyProvider returns (bool) {\r\n        require(_patientAddress != address(0), \"Invalid patient address\");\r\n        require(healthRecords[_dataHash].dataHash == bytes32(0), \"Record already exists\");\r\n\r\n        Role patientRole = checkUser(_patientAddress);\r\n        require(patientRole == Role.PATIENT, \"Invalid patient\");\r\n\r\n        healthRecords[_dataHash] = HealthRecord({\r\n            owner: _patientAddress,\r\n            dataHash: _dataHash,\r\n            dataType: _dataType,\r\n            encryptedSymmetricKey: _encryptedSymmetricKey,\r\n            timestamp: block.timestamp,\r\n            isValid: true,\r\n            provider: msg.sender\r\n        });\r\n\r\n        totalRecords++;\r\n        emit HealthRecordAdded(_dataHash, _patientAddress, _dataType);\r\n        return true;\r\n    }\r\n\r\n    function addPHRData(\r\n        bytes32 _dataHash,\r\n        DataType _dataType\r\n    ) external onlyPatient returns (bool) {\r\n        require(healthRecords[_dataHash].dataHash == bytes32(0), \"Record already exists\");\r\n\r\n        healthRecords[_dataHash] = HealthRecord({\r\n            owner: msg.sender,\r\n            dataHash: _dataHash,\r\n            dataType: _dataType,\r\n            encryptedSymmetricKey: new bytes(0),\r\n            timestamp: block.timestamp,\r\n            isValid: true,\r\n            provider: msg.sender\r\n        });\r\n\r\n        totalRecords++;\r\n        emit HealthRecordAdded(_dataHash, msg.sender, _dataType);\r\n        return true;\r\n    }\r\n\r\n    function updateRecord(\r\n        bytes32 _dataHash,\r\n        bytes memory _newEncryptedSymmetricKey\r\n    ) external recordExists(_dataHash) returns (bool) {\r\n        HealthRecord storage record = healthRecords[_dataHash];\r\n        require(msg.sender == record.owner || msg.sender == record.provider, \"Unauthorized\");\r\n\r\n        record.encryptedSymmetricKey = _newEncryptedSymmetricKey;\r\n        record.timestamp = block.timestamp;\r\n\r\n        emit RecordUpdated(_dataHash, msg.sender);\r\n        return true;\r\n    }\r\n\r\n    function invalidateRecord(bytes32 _dataHash) \r\n        external \r\n        recordExists(_dataHash) \r\n        onlySystemOwner \r\n    {\r\n        healthRecords[_dataHash].isValid = false;\r\n    }\r\n\r\n    // Permission Contract Functions\r\n    function requestNonIncentiveBasedPermission(\r\n        address _owner,\r\n        bytes32 _dataHash,\r\n        PermissionType _permissionType\r\n    ) external recordExists(_dataHash) returns (bytes32) {\r\n        require(_owner != address(0), \"Invalid owner address\");\r\n        require(_permissionType != PermissionType.NONE, \"Invalid permission type\");\r\n        require(healthRecords[_dataHash].owner == _owner, \"Invalid record owner\");\r\n\r\n        bytes32 requestId = keccak256(\r\n            abi.encodePacked(\r\n                msg.sender,\r\n                _owner,\r\n                _dataHash,\r\n                block.timestamp\r\n            )\r\n        );\r\n\r\n        permissionRequests[requestId] = PermissionRequest({\r\n            requester: msg.sender,\r\n            owner: _owner,\r\n            dataHash: _dataHash,\r\n            permissionType: _permissionType,\r\n            status: RequestStatus.PENDING,\r\n            requestDate: block.timestamp,\r\n            expiryDate: block.timestamp + 30 days,\r\n            incentiveAmount: 0,\r\n            isIncentiveBased: false\r\n        });\r\n\r\n        totalRequests++;\r\n        emit PermissionRequested(requestId, msg.sender, _owner);\r\n        return requestId;\r\n    }\r\n\r\n    function requestIncentiveBasedPermission(\r\n        address _owner,\r\n        bytes32 _dataHash,\r\n        PermissionType _permissionType\r\n    ) external payable recordExists(_dataHash) returns (bytes32) {\r\n        require(_owner != address(0), \"Invalid owner address\");\r\n        require(_permissionType != PermissionType.NONE, \"Invalid permission type\");\r\n        require(msg.value > 0, \"Incentive amount required\");\r\n        require(healthRecords[_dataHash].owner == _owner, \"Invalid record owner\");\r\n\r\n        bytes32 requestId = keccak256(\r\n            abi.encodePacked(\r\n                msg.sender,\r\n                _owner,\r\n                _dataHash,\r\n                block.timestamp,\r\n                msg.value\r\n            )\r\n        );\r\n\r\n        permissionRequests[requestId] = PermissionRequest({\r\n            requester: msg.sender,\r\n            owner: _owner,\r\n            dataHash: _dataHash,\r\n            permissionType: _permissionType,\r\n            status: RequestStatus.PENDING,\r\n            requestDate: block.timestamp,\r\n            expiryDate: block.timestamp + 30 days,\r\n            incentiveAmount: msg.value,\r\n            isIncentiveBased: true\r\n        });\r\n\r\n        totalRequests++;\r\n        emit PermissionRequested(requestId, msg.sender, _owner);\r\n        return requestId;\r\n    }\r\n\r\n    function approvePermission(\r\n        bytes32 _requestId\r\n    ) external returns (bool) {\r\n        PermissionRequest storage request = permissionRequests[_requestId];\r\n        require(request.owner == msg.sender, \"Only owner can approve\");\r\n        require(request.status == RequestStatus.PENDING, \"Invalid request status\");\r\n        require(block.timestamp <= request.expiryDate, \"Request expired\");\r\n\r\n        request.status = RequestStatus.APPROVED;\r\n\r\n        permissions[request.owner][_requestId][request.requester] = true;\r\n\r\n        emit PermissionGranted(_requestId, request.requester, request.owner);\r\n        return true;\r\n    }\r\n\r\n    function revokePermission(\r\n        bytes32 _dataHash,\r\n        address _user\r\n    ) external onlySystemOwner returns (bool) {\r\n        require(permissions[msg.sender][_dataHash][_user], \"Permission not granted\");\r\n\r\n        permissions[msg.sender][_dataHash][_user] = false;\r\n        emit PermissionRevoked(_dataHash, _user);\r\n        return true;\r\n    }\r\n\r\n    // Emergency Access Function\r\n    function emergencyAccess(address _patientAddress) external onlyProvider {\r\n        emit EmergencyAccess(msg.sender, _patientAddress, block.timestamp);\r\n    }\r\n\r\n}\r\n",
  "sourcePath": "C:\\Users\\sajan\\Desktop\\EHR project\\EHR project\\EHR\\EHRProject\\contract\\contracts\\EHRmain.sol",
  "compiler": {
    "name": "solc",
    "version": "0.8.19+commit.7dd6d404.Emscripten.clang"
  },
  "schemaVersion": "3.4.16",
  "updatedAt": "2024-11-18T16:17:37.480Z",
  "networkType": "ethereum",
  "devdoc": {
    "kind": "dev",
    "methods": {},
    "version": 1
  },
  "userdoc": {
    "kind": "user",
    "methods": {},
    "version": 1
  }
}