{
  "contractName": "EHRmain",
  "abi": [
    {
      "inputs": [],
      "stateMutability": "nonpayable",
      "type": "constructor"
    },
    {
      "anonymous": false,
      "inputs": [
        {
          "indexed": true,
          "internalType": "address",
          "name": "provider",
          "type": "address"
        },
        {
          "indexed": true,
          "internalType": "address",
          "name": "patient",
          "type": "address"
        },
        {
          "indexed": false,
          "internalType": "uint256",
          "name": "timestamp",
          "type": "uint256"
        }
      ],
      "name": "EmergencyAccess",
      "type": "event"
    },
    {
      "anonymous": false,
      "inputs": [
        {
          "indexed": true,
          "internalType": "bytes32",
          "name": "dataHash",
          "type": "bytes32"
        },
        {
          "indexed": true,
          "internalType": "address",
          "name": "owner",
          "type": "address"
        },
        {
          "indexed": false,
          "internalType": "enum EHRmain.DataType",
          "name": "dataType",
          "type": "uint8"
        }
      ],
      "name": "HealthRecordAdded",
      "type": "event"
    },
    {
      "anonymous": false,
      "inputs": [
        {
          "indexed": true,
          "internalType": "bytes32",
          "name": "requestId",
          "type": "bytes32"
        },
        {
          "indexed": true,
          "internalType": "address",
          "name": "requester",
          "type": "address"
        },
        {
          "indexed": true,
          "internalType": "address",
          "name": "owner",
          "type": "address"
        }
      ],
      "name": "PermissionGranted",
      "type": "event"
    },
    {
      "anonymous": false,
      "inputs": [
        {
          "indexed": true,
          "internalType": "bytes32",
          "name": "requestId",
          "type": "bytes32"
        },
        {
          "indexed": true,
          "internalType": "address",
          "name": "requester",
          "type": "address"
        },
        {
          "indexed": true,
          "internalType": "address",
          "name": "owner",
          "type": "address"
        }
      ],
      "name": "PermissionRequested",
      "type": "event"
    },
    {
      "anonymous": false,
      "inputs": [
        {
          "indexed": true,
          "internalType": "bytes32",
          "name": "dataHash",
          "type": "bytes32"
        },
        {
          "indexed": true,
          "internalType": "address",
          "name": "revokedUser",
          "type": "address"
        }
      ],
      "name": "PermissionRevoked",
      "type": "event"
    },
    {
      "anonymous": false,
      "inputs": [
        {
          "indexed": true,
          "internalType": "bytes32",
          "name": "dataHash",
          "type": "bytes32"
        },
        {
          "indexed": true,
          "internalType": "address",
          "name": "updater",
          "type": "address"
        }
      ],
      "name": "RecordUpdated",
      "type": "event"
    },
    {
      "anonymous": false,
      "inputs": [
        {
          "indexed": true,
          "internalType": "address",
          "name": "userAddress",
          "type": "address"
        },
        {
          "indexed": false,
          "internalType": "enum EHRmain.Role",
          "name": "role",
          "type": "uint8"
        }
      ],
      "name": "UserRegistered",
      "type": "event"
    },
    {
      "anonymous": false,
      "inputs": [
        {
          "indexed": true,
          "internalType": "address",
          "name": "userAddress",
          "type": "address"
        }
      ],
      "name": "UserVerified",
      "type": "event"
    },
    {
      "inputs": [
        {
          "internalType": "bytes32",
          "name": "",
          "type": "bytes32"
        }
      ],
      "name": "healthRecords",
      "outputs": [
        {
          "internalType": "address",
          "name": "owner",
          "type": "address"
        },
        {
          "internalType": "bytes32",
          "name": "dataHash",
          "type": "bytes32"
        },
        {
          "internalType": "enum EHRmain.DataType",
          "name": "dataType",
          "type": "uint8"
        },
        {
          "internalType": "bytes",
          "name": "encryptedSymmetricKey",
          "type": "bytes"
        },
        {
          "internalType": "uint256",
          "name": "timestamp",
          "type": "uint256"
        },
        {
          "internalType": "bool",
          "name": "isValid",
          "type": "bool"
        },
        {
          "internalType": "address",
          "name": "provider",
          "type": "address"
        }
      ],
      "stateMutability": "view",
      "type": "function",
      "constant": true
    },
    {
      "inputs": [
        {
          "internalType": "bytes32",
          "name": "",
          "type": "bytes32"
        }
      ],
      "name": "permissionRequests",
      "outputs": [
        {
          "internalType": "address",
          "name": "requester",
          "type": "address"
        },
        {
          "internalType": "address",
          "name": "owner",
          "type": "address"
        },
        {
          "internalType": "bytes32",
          "name": "dataHash",
          "type": "bytes32"
        },
        {
          "internalType": "enum EHRmain.PermissionType",
          "name": "permissionType",
          "type": "uint8"
        },
        {
          "internalType": "enum EHRmain.RequestStatus",
          "name": "status",
          "type": "uint8"
        },
        {
          "internalType": "uint256",
          "name": "requestDate",
          "type": "uint256"
        },
        {
          "internalType": "uint256",
          "name": "expiryDate",
          "type": "uint256"
        },
        {
          "internalType": "uint256",
          "name": "incentiveAmount",
          "type": "uint256"
        },
        {
          "internalType": "bool",
          "name": "isIncentiveBased",
          "type": "bool"
        }
      ],
      "stateMutability": "view",
      "type": "function",
      "constant": true
    },
    {
      "inputs": [
        {
          "internalType": "address",
          "name": "",
          "type": "address"
        },
        {
          "internalType": "bytes32",
          "name": "",
          "type": "bytes32"
        },
        {
          "internalType": "address",
          "name": "",
          "type": "address"
        }
      ],
      "name": "permissions",
      "outputs": [
        {
          "internalType": "bool",
          "name": "",
          "type": "bool"
        }
      ],
      "stateMutability": "view",
      "type": "function",
      "constant": true
    },
    {
      "inputs": [],
      "name": "systemOwner",
      "outputs": [
        {
          "internalType": "address",
          "name": "",
          "type": "address"
        }
      ],
      "stateMutability": "view",
      "type": "function",
      "constant": true
    },
    {
      "inputs": [],
      "name": "totalRecords",
      "outputs": [
        {
          "internalType": "uint256",
          "name": "",
          "type": "uint256"
        }
      ],
      "stateMutability": "view",
      "type": "function",
      "constant": true
    },
    {
      "inputs": [],
      "name": "totalRequests",
      "outputs": [
        {
          "internalType": "uint256",
          "name": "",
          "type": "uint256"
        }
      ],
      "stateMutability": "view",
      "type": "function",
      "constant": true
    },
    {
      "inputs": [],
      "name": "totalUsers",
      "outputs": [
        {
          "internalType": "uint256",
          "name": "",
          "type": "uint256"
        }
      ],
      "stateMutability": "view",
      "type": "function",
      "constant": true
    },
    {
      "inputs": [
        {
          "internalType": "address",
          "name": "",
          "type": "address"
        }
      ],
      "name": "users",
      "outputs": [
        {
          "internalType": "address",
          "name": "userAddress",
          "type": "address"
        },
        {
          "internalType": "enum EHRmain.Role",
          "name": "role",
          "type": "uint8"
        },
        {
          "internalType": "bool",
          "name": "isActive",
          "type": "bool"
        },
        {
          "internalType": "uint256",
          "name": "registrationDate",
          "type": "uint256"
        },
        {
          "internalType": "bytes32",
          "name": "publicKeyHash",
          "type": "bytes32"
        },
        {
          "internalType": "bool",
          "name": "isVerified",
          "type": "bool"
        }
      ],
      "stateMutability": "view",
      "type": "function",
      "constant": true
    },
    {
      "inputs": [
        {
          "internalType": "enum EHRmain.Role",
          "name": "_role",
          "type": "uint8"
        },
        {
          "internalType": "bytes32",
          "name": "_publicKeyHash",
          "type": "bytes32"
        }
      ],
      "name": "registerUser",
      "outputs": [
        {
          "internalType": "bool",
          "name": "",
          "type": "bool"
        }
      ],
      "stateMutability": "nonpayable",
      "type": "function"
    },
    {
      "inputs": [
        {
          "internalType": "address",
          "name": "_userAddress",
          "type": "address"
        }
      ],
      "name": "verifyUser",
      "outputs": [],
      "stateMutability": "nonpayable",
      "type": "function"
    },
    {
      "inputs": [
        {
          "internalType": "address",
          "name": "_userAddress",
          "type": "address"
        }
      ],
      "name": "deactivateUser",
      "outputs": [],
      "stateMutability": "nonpayable",
      "type": "function"
    },
    {
      "inputs": [
        {
          "internalType": "address",
          "name": "_userAddress",
          "type": "address"
        }
      ],
      "name": "checkUser",
      "outputs": [
        {
          "internalType": "bool",
          "name": "",
          "type": "bool"
        },
        {
          "internalType": "enum EHRmain.Role",
          "name": "",
          "type": "uint8"
        }
      ],
      "stateMutability": "view",
      "type": "function",
      "constant": true
    },
    {
      "inputs": [
        {
          "internalType": "address",
          "name": "_patientAddress",
          "type": "address"
        },
        {
          "internalType": "bytes32",
          "name": "_dataHash",
          "type": "bytes32"
        },
        {
          "internalType": "enum EHRmain.DataType",
          "name": "_dataType",
          "type": "uint8"
        },
        {
          "internalType": "bytes",
          "name": "_encryptedSymmetricKey",
          "type": "bytes"
        }
      ],
      "name": "addEHRData",
      "outputs": [
        {
          "internalType": "bool",
          "name": "",
          "type": "bool"
        }
      ],
      "stateMutability": "nonpayable",
      "type": "function"
    },
    {
      "inputs": [
        {
          "internalType": "bytes32",
          "name": "_dataHash",
          "type": "bytes32"
        },
        {
          "internalType": "enum EHRmain.DataType",
          "name": "_dataType",
          "type": "uint8"
        }
      ],
      "name": "addPHRData",
      "outputs": [
        {
          "internalType": "bool",
          "name": "",
          "type": "bool"
        }
      ],
      "stateMutability": "nonpayable",
      "type": "function"
    },
    {
      "inputs": [
        {
          "internalType": "bytes32",
          "name": "_dataHash",
          "type": "bytes32"
        },
        {
          "internalType": "bytes",
          "name": "_newEncryptedSymmetricKey",
          "type": "bytes"
        }
      ],
      "name": "updateRecord",
      "outputs": [
        {
          "internalType": "bool",
          "name": "",
          "type": "bool"
        }
      ],
      "stateMutability": "nonpayable",
      "type": "function"
    },
    {
      "inputs": [
        {
          "internalType": "bytes32",
          "name": "_dataHash",
          "type": "bytes32"
        }
      ],
      "name": "invalidateRecord",
      "outputs": [],
      "stateMutability": "nonpayable",
      "type": "function"
    },
    {
      "inputs": [
        {
          "internalType": "address",
          "name": "_owner",
          "type": "address"
        },
        {
          "internalType": "bytes32",
          "name": "_dataHash",
          "type": "bytes32"
        },
        {
          "internalType": "enum EHRmain.PermissionType",
          "name": "_permissionType",
          "type": "uint8"
        }
      ],
      "name": "requestNonIncentiveBasedPermission",
      "outputs": [
        {
          "internalType": "bytes32",
          "name": "",
          "type": "bytes32"
        }
      ],
      "stateMutability": "nonpayable",
      "type": "function"
    },
    {
      "inputs": [
        {
          "internalType": "address",
          "name": "_owner",
          "type": "address"
        },
        {
          "internalType": "bytes32",
          "name": "_dataHash",
          "type": "bytes32"
        },
        {
          "internalType": "enum EHRmain.PermissionType",
          "name": "_permissionType",
          "type": "uint8"
        }
      ],
      "name": "requestIncentiveBasedPermission",
      "outputs": [
        {
          "internalType": "bytes32",
          "name": "",
          "type": "bytes32"
        }
      ],
      "stateMutability": "payable",
      "type": "function",
      "payable": true
    },
    {
      "inputs": [
        {
          "internalType": "bytes32",
          "name": "_requestId",
          "type": "bytes32"
        }
      ],
      "name": "approvePermission",
      "outputs": [
        {
          "internalType": "bool",
          "name": "",
          "type": "bool"
        }
      ],
      "stateMutability": "nonpayable",
      "type": "function"
    },
    {
      "inputs": [
        {
          "internalType": "address",
          "name": "_revokedUser",
          "type": "address"
        },
        {
          "internalType": "bytes32",
          "name": "_dataHash",
          "type": "bytes32"
        }
      ],
      "name": "revokePermission",
      "outputs": [],
      "stateMutability": "nonpayable",
      "type": "function"
    },
    {
      "inputs": [
        {
          "internalType": "address",
          "name": "_user",
          "type": "address"
        },
        {
          "internalType": "bytes32",
          "name": "_dataHash",
          "type": "bytes32"
        }
      ],
      "name": "checkPermission",
      "outputs": [
        {
          "internalType": "bool",
          "name": "",
          "type": "bool"
        }
      ],
      "stateMutability": "view",
      "type": "function",
      "constant": true
    },
    {
      "inputs": [
        {
          "internalType": "address",
          "name": "_provider",
          "type": "address"
        },
        {
          "internalType": "bytes32",
          "name": "_dataHash",
          "type": "bytes32"
        }
      ],
      "name": "grantEmergencyAccess",
      "outputs": [],
      "stateMutability": "nonpayable",
      "type": "function"
    },
    {
      "inputs": [
        {
          "internalType": "bytes32",
          "name": "_dataHash",
          "type": "bytes32"
        }
      ],
      "name": "getRecordDetails",
      "outputs": [
        {
          "internalType": "address",
          "name": "owner",
          "type": "address"
        },
        {
          "internalType": "enum EHRmain.DataType",
          "name": "dataType",
          "type": "uint8"
        },
        {
          "internalType": "uint256",
          "name": "timestamp",
          "type": "uint256"
        },
        {
          "internalType": "address",
          "name": "provider",
          "type": "address"
        },
        {
          "internalType": "bool",
          "name": "isValid",
          "type": "bool"
        }
      ],
      "stateMutability": "view",
      "type": "function",
      "constant": true
    },
    {
      "inputs": [
        {
          "internalType": "bytes32",
          "name": "_dataHash",
          "type": "bytes32"
        }
      ],
      "name": "getEncryptedKey",
      "outputs": [
        {
          "internalType": "bytes",
          "name": "",
          "type": "bytes"
        }
      ],
      "stateMutability": "view",
      "type": "function",
      "constant": true
    }
  ],
  "bytecode": "0x608060405234801561001057600080fd5b5033600460006101000a81548173ffffffffffffffffffffffffffffffffffffffff021916908373ffffffffffffffffffffffffffffffffffffffff1602179055506000600581905550600060068190555060006007819055506151a4806100796000396000f3fe60806040526004361061014b5760003560e01c80635fe07013116100b6578063b21009e11161006f578063b21009e114610519578063bff1f9e114610556578063cbe0647714610581578063d6392057146105be578063e52a2977146105fb578063e9021744146106245761014b565b80635fe07013146103cc5780636f01d0ab146103f55780638aea61dc146104325780639ec5ee7a1461045d578063a6fb108f1461049a578063a87430ba146104d75761014b565b806329bd80011161010857806329bd80011461028957806333779254146102ce57806347baacbb146102f95780634d813120146103365780634f8468881461035f578063533688bb1461038f5761014b565b806310ff362d14610150578063121b422014610191578063125f8974146101ce5780631a47767b146101f95780631e9d48cf1461022257806324dc1cfa14610260575b600080fd5b34801561015c57600080fd5b5061017760048036038101906101729190613829565b610667565b604051610188959493929190613942565b60405180910390f35b34801561019d57600080fd5b506101b860048036038101906101b391906139ba565b6108cb565b6040516101c591906139fa565b60405180910390f35b3480156101da57600080fd5b506101e3610bda565b6040516101f09190613a15565b60405180910390f35b34801561020557600080fd5b50610220600480360381019061021b9190613a5c565b610be0565b005b34801561022e57600080fd5b5061024960048036038101906102449190613a5c565b610e2b565b604051610257929190613ad1565b60405180910390f35b34801561026c57600080fd5b5061028760048036038101906102829190613829565b610f77565b005b34801561029557600080fd5b506102b060048036038101906102ab9190613829565b61109e565b6040516102c599989796959493929190613b99565b60405180910390f35b3480156102da57600080fd5b506102e3611153565b6040516102f09190613c26565b60405180910390f35b34801561030557600080fd5b50610320600480360381019061031b9190613c66565b611179565b60405161032d91906139fa565b60405180910390f35b34801561034257600080fd5b5061035d60048036038101906103589190613a5c565b611569565b005b61037960048036038101906103749190613ccb565b6117f8565b6040516103869190613d1e565b60405180910390f35b34801561039b57600080fd5b506103b660048036038101906103b19190613829565b611d4a565b6040516103c39190613dc9565b60405180910390f35b3480156103d857600080fd5b506103f360048036038101906103ee9190613deb565b611fd3565b005b34801561040157600080fd5b5061041c60048036038101906104179190613f60565b6122a4565b60405161042991906139fa565b60405180910390f35b34801561043e57600080fd5b50610447612478565b6040516104549190613a15565b60405180910390f35b34801561046957600080fd5b50610484600480360381019061047f9190613ccb565b61247e565b6040516104919190613d1e565b60405180910390f35b3480156104a657600080fd5b506104c160048036038101906104bc9190613829565b61298c565b6040516104ce91906139fa565b60405180910390f35b3480156104e357600080fd5b506104fe60048036038101906104f99190613a5c565b612d6b565b60405161051096959493929190613fbc565b60405180910390f35b34801561052557600080fd5b50610540600480360381019061053b919061401d565b612dee565b60405161054d91906139fa565b60405180910390f35b34801561056257600080fd5b5061056b613284565b6040516105789190613a15565b60405180910390f35b34801561058d57600080fd5b506105a860048036038101906105a391906140a0565b61328a565b6040516105b591906139fa565b60405180910390f35b3480156105ca57600080fd5b506105e560048036038101906105e09190613deb565b6132c6565b6040516105f291906139fa565b60405180910390f35b34801561060757600080fd5b50610622600480360381019061061d9190613deb565b6133a1565b005b34801561063057600080fd5b5061064b60048036038101906106469190613829565b6136bb565b60405161065e97969594939291906140f3565b60405180910390f35b6000806000806000856001600082815260200190815260200160002060050160009054906101000a900460ff166106d3576040517f08c379a00000000000000000000000000000000000000000000000000000000081526004016106ca906141c6565b60405180910390fd5b6000600160008981526020019081526020016000206040518060e00160405290816000820160009054906101000a900473ffffffffffffffffffffffffffffffffffffffff1673ffffffffffffffffffffffffffffffffffffffff1673ffffffffffffffffffffffffffffffffffffffff168152602001600182015481526020016002820160009054906101000a900460ff16600481111561077857610777613897565b5b600481111561078a57610789613897565b5b815260200160038201805461079e90614215565b80601f01602080910402602001604051908101604052809291908181526020018280546107ca90614215565b80156108175780601f106107ec57610100808354040283529160200191610817565b820191906000526020600020905b8154815290600101906020018083116107fa57829003601f168201915b50505050508152602001600482015481526020016005820160009054906101000a900460ff161515151581526020016005820160019054906101000a900473ffffffffffffffffffffffffffffffffffffffff1673ffffffffffffffffffffffffffffffffffffffff1673ffffffffffffffffffffffffffffffffffffffff168152505090508060000151816040015182608001518360c001518460a0015196509650965096509650505091939590929450565b60008073ffffffffffffffffffffffffffffffffffffffff166000803373ffffffffffffffffffffffffffffffffffffffff1673ffffffffffffffffffffffffffffffffffffffff16815260200190815260200160002060000160009054906101000a900473ffffffffffffffffffffffffffffffffffffffff1673ffffffffffffffffffffffffffffffffffffffff161461099c576040517f08c379a000000000000000000000000000000000000000000000000000000000815260040161099390614292565b60405180910390fd5b600060038111156109b0576109af613897565b5b8360038111156109c3576109c2613897565b5b03610a03576040517f08c379a00000000000000000000000000000000000000000000000000000000081526004016109fa906142fe565b60405180910390fd5b6040518060c001604052803373ffffffffffffffffffffffffffffffffffffffff168152602001846003811115610a3d57610a3c613897565b5b8152602001600115158152602001428152602001838152602001600015158152506000803373ffffffffffffffffffffffffffffffffffffffff1673ffffffffffffffffffffffffffffffffffffffff16815260200190815260200160002060008201518160000160006101000a81548173ffffffffffffffffffffffffffffffffffffffff021916908373ffffffffffffffffffffffffffffffffffffffff16021790555060208201518160000160146101000a81548160ff02191690836003811115610b0e57610b0d613897565b5b021790555060408201518160000160156101000a81548160ff021916908315150217905550606082015181600101556080820151816002015560a08201518160030160006101000a81548160ff02191690831515021790555090505060056000815480929190610b7d9061434d565b91905055503373ffffffffffffffffffffffffffffffffffffffff167f8e18574f8a7333e6a87112742a55853a643e2f0550f4e1a3a2c3f1bb2994441d84604051610bc89190614395565b60405180910390a26001905092915050565b60065481565b600460009054906101000a900473ffffffffffffffffffffffffffffffffffffffff1673ffffffffffffffffffffffffffffffffffffffff163373ffffffffffffffffffffffffffffffffffffffff1614610c70576040517f08c379a0000000000000000000000000000000000000000000000000000000008152600401610c6790614422565b60405180910390fd5b600073ffffffffffffffffffffffffffffffffffffffff166000808373ffffffffffffffffffffffffffffffffffffffff1673ffffffffffffffffffffffffffffffffffffffff16815260200190815260200160002060000160009054906101000a900473ffffffffffffffffffffffffffffffffffffffff1673ffffffffffffffffffffffffffffffffffffffff1603610d40576040517f08c379a0000000000000000000000000000000000000000000000000000000008152600401610d379061448e565b60405180910390fd5b6000808273ffffffffffffffffffffffffffffffffffffffff1673ffffffffffffffffffffffffffffffffffffffff16815260200190815260200160002060000160159054906101000a900460ff16610dce576040517f08c379a0000000000000000000000000000000000000000000000000000000008152600401610dc5906144fa565b60405180910390fd5b60008060008373ffffffffffffffffffffffffffffffffffffffff1673ffffffffffffffffffffffffffffffffffffffff16815260200190815260200160002060000160156101000a81548160ff02191690831515021790555050565b60008060008060008573ffffffffffffffffffffffffffffffffffffffff1673ffffffffffffffffffffffffffffffffffffffff1681526020019081526020016000206040518060c00160405290816000820160009054906101000a900473ffffffffffffffffffffffffffffffffffffffff1673ffffffffffffffffffffffffffffffffffffffff1673ffffffffffffffffffffffffffffffffffffffff1681526020016000820160149054906101000a900460ff166003811115610ef457610ef3613897565b5b6003811115610f0657610f05613897565b5b81526020016000820160159054906101000a900460ff1615151515815260200160018201548152602001600282015481526020016003820160009054906101000a900460ff161515151581525050905080604001518015610f6857508060a001515b81602001519250925050915091565b806001600082815260200190815260200160002060050160009054906101000a900460ff16610fdb576040517f08c379a0000000000000000000000000000000000000000000000000000000008152600401610fd2906141c6565b60405180910390fd5b600460009054906101000a900473ffffffffffffffffffffffffffffffffffffffff1673ffffffffffffffffffffffffffffffffffffffff163373ffffffffffffffffffffffffffffffffffffffff161461106b576040517f08c379a000000000000000000000000000000000000000000000000000000000815260040161106290614422565b60405180910390fd5b60006001600084815260200190815260200160002060050160006101000a81548160ff0219169083151502179055505050565b60026020528060005260406000206000915090508060000160009054906101000a900473ffffffffffffffffffffffffffffffffffffffff16908060010160009054906101000a900473ffffffffffffffffffffffffffffffffffffffff16908060020154908060030160009054906101000a900460ff16908060030160019054906101000a900460ff16908060040154908060050154908060060154908060070160009054906101000a900460ff16905089565b600460009054906101000a900473ffffffffffffffffffffffffffffffffffffffff1681565b60006001600381111561118f5761118e613897565b5b6000803373ffffffffffffffffffffffffffffffffffffffff1673ffffffffffffffffffffffffffffffffffffffff16815260200190815260200160002060000160149054906101000a900460ff1660038111156111f0576111ef613897565b5b14611230576040517f08c379a00000000000000000000000000000000000000000000000000000000081526004016112279061458c565b60405180910390fd5b6000803373ffffffffffffffffffffffffffffffffffffffff1673ffffffffffffffffffffffffffffffffffffffff16815260200190815260200160002060030160009054906101000a900460ff166112be576040517f08c379a00000000000000000000000000000000000000000000000000000000081526004016112b5906145f8565b60405180910390fd5b6000801b600160008581526020019081526020016000206001015414611319576040517f08c379a000000000000000000000000000000000000000000000000000000000815260040161131090614664565b60405180910390fd5b6040518060e001604052803373ffffffffffffffffffffffffffffffffffffffff16815260200184815260200183600481111561135957611358613897565b5b8152602001600067ffffffffffffffff81111561137957611378613e35565b5b6040519080825280601f01601f1916602001820160405280156113ab5781602001600182028036833780820191505090505b5081526020014281526020016001151581526020013373ffffffffffffffffffffffffffffffffffffffff168152506001600085815260200190815260200160002060008201518160000160006101000a81548173ffffffffffffffffffffffffffffffffffffffff021916908373ffffffffffffffffffffffffffffffffffffffff1602179055506020820151816001015560408201518160020160006101000a81548160ff0219169083600481111561146957611468613897565b5b021790555060608201518160030190816114839190614830565b506080820151816004015560a08201518160050160006101000a81548160ff02191690831515021790555060c08201518160050160016101000a81548173ffffffffffffffffffffffffffffffffffffffff021916908373ffffffffffffffffffffffffffffffffffffffff1602179055509050506006600081548092919061150b9061434d565b91905055503373ffffffffffffffffffffffffffffffffffffffff16837fef5eabbd7c8f1989b296579684ebfc590aaf5438168fdef06026232b4175b5ed846040516115579190614902565b60405180910390a36001905092915050565b600460009054906101000a900473ffffffffffffffffffffffffffffffffffffffff1673ffffffffffffffffffffffffffffffffffffffff163373ffffffffffffffffffffffffffffffffffffffff16146115f9576040517f08c379a00000000000000000000000000000000000000000000000000000000081526004016115f090614422565b60405180910390fd5b600073ffffffffffffffffffffffffffffffffffffffff166000808373ffffffffffffffffffffffffffffffffffffffff1673ffffffffffffffffffffffffffffffffffffffff16815260200190815260200160002060000160009054906101000a900473ffffffffffffffffffffffffffffffffffffffff1673ffffffffffffffffffffffffffffffffffffffff16036116c9576040517f08c379a00000000000000000000000000000000000000000000000000000000081526004016116c09061448e565b60405180910390fd5b6000808273ffffffffffffffffffffffffffffffffffffffff1673ffffffffffffffffffffffffffffffffffffffff16815260200190815260200160002060030160009054906101000a900460ff1615611758576040517f08c379a000000000000000000000000000000000000000000000000000000000815260040161174f90614969565b60405180910390fd5b60016000808373ffffffffffffffffffffffffffffffffffffffff1673ffffffffffffffffffffffffffffffffffffffff16815260200190815260200160002060030160006101000a81548160ff0219169083151502179055508073ffffffffffffffffffffffffffffffffffffffff167fa6625d2d26e786e2f473111bea4b2fcdbbf1863d883a2359989ce3a103d2972a60405160405180910390a250565b60008060003373ffffffffffffffffffffffffffffffffffffffff1673ffffffffffffffffffffffffffffffffffffffff16815260200190815260200160002060030160009054906101000a900460ff16611888576040517f08c379a000000000000000000000000000000000000000000000000000000000815260040161187f906145f8565b60405180910390fd5b826001600082815260200190815260200160002060050160009054906101000a900460ff166118ec576040517f08c379a00000000000000000000000000000000000000000000000000000000081526004016118e3906141c6565b60405180910390fd5b600073ffffffffffffffffffffffffffffffffffffffff168573ffffffffffffffffffffffffffffffffffffffff160361195b576040517f08c379a0000000000000000000000000000000000000000000000000000000008152600401611952906149d5565b60405180910390fd5b6000600381111561196f5761196e613897565b5b83600381111561198257611981613897565b5b036119c2576040517f08c379a00000000000000000000000000000000000000000000000000000000081526004016119b990614a41565b60405180910390fd5b60003411611a05576040517f08c379a00000000000000000000000000000000000000000000000000000000081526004016119fc90614aad565b60405180910390fd5b8473ffffffffffffffffffffffffffffffffffffffff166001600086815260200190815260200160002060000160009054906101000a900473ffffffffffffffffffffffffffffffffffffffff1673ffffffffffffffffffffffffffffffffffffffff1614611aa9576040517f08c379a0000000000000000000000000000000000000000000000000000000008152600401611aa090614b19565b60405180910390fd5b60003386864234604051602001611ac4959493929190614bc3565b6040516020818303038152906040528051906020012090506040518061012001604052803373ffffffffffffffffffffffffffffffffffffffff1681526020018773ffffffffffffffffffffffffffffffffffffffff168152602001868152602001856003811115611b3957611b38613897565b5b815260200160006003811115611b5257611b51613897565b5b815260200142815260200162278d0042611b6c9190614c22565b8152602001348152602001600115158152506002600083815260200190815260200160002060008201518160000160006101000a81548173ffffffffffffffffffffffffffffffffffffffff021916908373ffffffffffffffffffffffffffffffffffffffff16021790555060208201518160010160006101000a81548173ffffffffffffffffffffffffffffffffffffffff021916908373ffffffffffffffffffffffffffffffffffffffff1602179055506040820151816002015560608201518160030160006101000a81548160ff02191690836003811115611c5457611c53613897565b5b021790555060808201518160030160016101000a81548160ff02191690836003811115611c8457611c83613897565b5b021790555060a0820151816004015560c0820151816005015560e082015181600601556101008201518160070160006101000a81548160ff02191690831515021790555090505060076000815480929190611cde9061434d565b91905055508573ffffffffffffffffffffffffffffffffffffffff163373ffffffffffffffffffffffffffffffffffffffff16827f9a387978508c64b67d0ec39e75dc556f96f10430d94187ba4507c6dcd34cf32960405160405180910390a480925050509392505050565b6060816001600082815260200190815260200160002060050160009054906101000a900460ff16611db0576040517f08c379a0000000000000000000000000000000000000000000000000000000008152600401611da7906141c6565b60405180910390fd5b6001600084815260200190815260200160002060000160009054906101000a900473ffffffffffffffffffffffffffffffffffffffff1673ffffffffffffffffffffffffffffffffffffffff163373ffffffffffffffffffffffffffffffffffffffff161480611eed5750600360003373ffffffffffffffffffffffffffffffffffffffff1673ffffffffffffffffffffffffffffffffffffffff168152602001908152602001600020600084815260200190815260200160002060006001600086815260200190815260200160002060000160009054906101000a900473ffffffffffffffffffffffffffffffffffffffff1673ffffffffffffffffffffffffffffffffffffffff1673ffffffffffffffffffffffffffffffffffffffff16815260200190815260200160002060009054906101000a900460ff165b611f2c576040517f08c379a0000000000000000000000000000000000000000000000000000000008152600401611f2390614ca2565b60405180910390fd5b600160008481526020019081526020016000206003018054611f4d90614215565b80601f0160208091040260200160405190810160405280929190818152602001828054611f7990614215565b8015611fc65780601f10611f9b57610100808354040283529160200191611fc6565b820191906000526020600020905b815481529060010190602001808311611fa957829003601f168201915b5050505050915050919050565b806001600082815260200190815260200160002060050160009054906101000a900460ff16612037576040517f08c379a000000000000000000000000000000000000000000000000000000000815260040161202e906141c6565b60405180910390fd5b6001600083815260200190815260200160002060000160009054906101000a900473ffffffffffffffffffffffffffffffffffffffff1673ffffffffffffffffffffffffffffffffffffffff163373ffffffffffffffffffffffffffffffffffffffff16146120db576040517f08c379a00000000000000000000000000000000000000000000000000000000081526004016120d290614d0e565b60405180910390fd5b600360008473ffffffffffffffffffffffffffffffffffffffff1673ffffffffffffffffffffffffffffffffffffffff168152602001908152602001600020600083815260200190815260200160002060003373ffffffffffffffffffffffffffffffffffffffff1673ffffffffffffffffffffffffffffffffffffffff16815260200190815260200160002060009054906101000a900460ff166121b5576040517f08c379a00000000000000000000000000000000000000000000000000000000081526004016121ac90614d7a565b60405180910390fd5b6000600360008573ffffffffffffffffffffffffffffffffffffffff1673ffffffffffffffffffffffffffffffffffffffff168152602001908152602001600020600084815260200190815260200160002060003373ffffffffffffffffffffffffffffffffffffffff1673ffffffffffffffffffffffffffffffffffffffff16815260200190815260200160002060006101000a81548160ff0219169083151502179055508273ffffffffffffffffffffffffffffffffffffffff16827f93f50f299c97f9dbc6c8c8193bc0d1072f9ed27d38a021fc70fb48f6c86dcc6160405160405180910390a3505050565b6000826001600082815260200190815260200160002060050160009054906101000a900460ff1661230a576040517f08c379a0000000000000000000000000000000000000000000000000000000008152600401612301906141c6565b60405180910390fd5b60006001600086815260200190815260200160002090508060000160009054906101000a900473ffffffffffffffffffffffffffffffffffffffff1673ffffffffffffffffffffffffffffffffffffffff163373ffffffffffffffffffffffffffffffffffffffff1614806123ce57508060050160019054906101000a900473ffffffffffffffffffffffffffffffffffffffff1673ffffffffffffffffffffffffffffffffffffffff163373ffffffffffffffffffffffffffffffffffffffff16145b61240d576040517f08c379a000000000000000000000000000000000000000000000000000000000815260040161240490614ca2565b60405180910390fd5b8381600301908161241e9190614830565b504281600401819055503373ffffffffffffffffffffffffffffffffffffffff16857f0596aa396eab4e69aca55f612009f548a14767e50000a5446fbebc9dcc43820c60405160405180910390a360019250505092915050565b60075481565b60008060003373ffffffffffffffffffffffffffffffffffffffff1673ffffffffffffffffffffffffffffffffffffffff16815260200190815260200160002060030160009054906101000a900460ff1661250e576040517f08c379a0000000000000000000000000000000000000000000000000000000008152600401612505906145f8565b60405180910390fd5b826001600082815260200190815260200160002060050160009054906101000a900460ff16612572576040517f08c379a0000000000000000000000000000000000000000000000000000000008152600401612569906141c6565b60405180910390fd5b600073ffffffffffffffffffffffffffffffffffffffff168573ffffffffffffffffffffffffffffffffffffffff16036125e1576040517f08c379a00000000000000000000000000000000000000000000000000000000081526004016125d8906149d5565b60405180910390fd5b600060038111156125f5576125f4613897565b5b83600381111561260857612607613897565b5b03612648576040517f08c379a000000000000000000000000000000000000000000000000000000000815260040161263f90614a41565b60405180910390fd5b8473ffffffffffffffffffffffffffffffffffffffff166001600086815260200190815260200160002060000160009054906101000a900473ffffffffffffffffffffffffffffffffffffffff1673ffffffffffffffffffffffffffffffffffffffff16146126ec576040517f08c379a00000000000000000000000000000000000000000000000000000000081526004016126e390614b19565b60405180910390fd5b6000338686426040516020016127059493929190614d9a565b6040516020818303038152906040528051906020012090506040518061012001604052803373ffffffffffffffffffffffffffffffffffffffff1681526020018773ffffffffffffffffffffffffffffffffffffffff16815260200186815260200185600381111561277a57612779613897565b5b81526020016000600381111561279357612792613897565b5b815260200142815260200162278d00426127ad9190614c22565b815260200160008152602001600015158152506002600083815260200190815260200160002060008201518160000160006101000a81548173ffffffffffffffffffffffffffffffffffffffff021916908373ffffffffffffffffffffffffffffffffffffffff16021790555060208201518160010160006101000a81548173ffffffffffffffffffffffffffffffffffffffff021916908373ffffffffffffffffffffffffffffffffffffffff1602179055506040820151816002015560608201518160030160006101000a81548160ff0219169083600381111561289657612895613897565b5b021790555060808201518160030160016101000a81548160ff021916908360038111156128c6576128c5613897565b5b021790555060a0820151816004015560c0820151816005015560e082015181600601556101008201518160070160006101000a81548160ff021916908315150217905550905050600760008154809291906129209061434d565b91905055508573ffffffffffffffffffffffffffffffffffffffff163373ffffffffffffffffffffffffffffffffffffffff16827f9a387978508c64b67d0ec39e75dc556f96f10430d94187ba4507c6dcd34cf32960405160405180910390a480925050509392505050565b60008060003373ffffffffffffffffffffffffffffffffffffffff1673ffffffffffffffffffffffffffffffffffffffff16815260200190815260200160002060030160009054906101000a900460ff16612a1c576040517f08c379a0000000000000000000000000000000000000000000000000000000008152600401612a13906145f8565b60405180910390fd5b60006002600084815260200190815260200160002090503373ffffffffffffffffffffffffffffffffffffffff168160010160009054906101000a900473ffffffffffffffffffffffffffffffffffffffff1673ffffffffffffffffffffffffffffffffffffffff1614612ac5576040517f08c379a0000000000000000000000000000000000000000000000000000000008152600401612abc90614e34565b60405180910390fd5b60006003811115612ad957612ad8613897565b5b8160030160019054906101000a900460ff166003811115612afd57612afc613897565b5b14612b3d576040517f08c379a0000000000000000000000000000000000000000000000000000000008152600401612b3490614ea0565b60405180910390fd5b8060050154421115612b84576040517f08c379a0000000000000000000000000000000000000000000000000000000008152600401612b7b90614f0c565b60405180910390fd5b60018160030160016101000a81548160ff02191690836003811115612bac57612bab613897565b5b02179055506001600360008360000160009054906101000a900473ffffffffffffffffffffffffffffffffffffffff1673ffffffffffffffffffffffffffffffffffffffff1673ffffffffffffffffffffffffffffffffffffffff16815260200190815260200160002060008360020154815260200190815260200160002060003373ffffffffffffffffffffffffffffffffffffffff1673ffffffffffffffffffffffffffffffffffffffff16815260200190815260200160002060006101000a81548160ff0219169083151502179055508060070160009054906101000a900460ff1615612ce2573373ffffffffffffffffffffffffffffffffffffffff166108fc82600601549081150290604051600060405180830381858888f19350505050158015612ce0573d6000803e3d6000fd5b505b3373ffffffffffffffffffffffffffffffffffffffff168160000160009054906101000a900473ffffffffffffffffffffffffffffffffffffffff1673ffffffffffffffffffffffffffffffffffffffff16847fef6ee312a0062a24a46be2eba5284183a87ff848110e8d4df979bd690d9e9f6860405160405180910390a46001915050919050565b60006020528060005260406000206000915090508060000160009054906101000a900473ffffffffffffffffffffffffffffffffffffffff16908060000160149054906101000a900460ff16908060000160159054906101000a900460ff16908060010154908060020154908060030160009054906101000a900460ff16905086565b600060026003811115612e0457612e03613897565b5b6000803373ffffffffffffffffffffffffffffffffffffffff1673ffffffffffffffffffffffffffffffffffffffff16815260200190815260200160002060000160149054906101000a900460ff166003811115612e6557612e64613897565b5b14612ea5576040517f08c379a0000000000000000000000000000000000000000000000000000000008152600401612e9c90614f9e565b60405180910390fd5b6000803373ffffffffffffffffffffffffffffffffffffffff1673ffffffffffffffffffffffffffffffffffffffff16815260200190815260200160002060030160009054906101000a900460ff16612f33576040517f08c379a0000000000000000000000000000000000000000000000000000000008152600401612f2a906145f8565b60405180910390fd5b600073ffffffffffffffffffffffffffffffffffffffff168573ffffffffffffffffffffffffffffffffffffffff1603612fa2576040517f08c379a0000000000000000000000000000000000000000000000000000000008152600401612f999061500a565b60405180910390fd5b6000801b600160008681526020019081526020016000206001015414612ffd576040517f08c379a0000000000000000000000000000000000000000000000000000000008152600401612ff490614664565b60405180910390fd5b60008061300987610e2b565b9150915081801561303e57506001600381111561302957613028613897565b5b81600381111561303c5761303b613897565b5b145b61307d576040517f08c379a000000000000000000000000000000000000000000000000000000000815260040161307490615076565b60405180910390fd5b6040518060e001604052808873ffffffffffffffffffffffffffffffffffffffff1681526020018781526020018660048111156130bd576130bc613897565b5b81526020018581526020014281526020016001151581526020013373ffffffffffffffffffffffffffffffffffffffff168152506001600088815260200190815260200160002060008201518160000160006101000a81548173ffffffffffffffffffffffffffffffffffffffff021916908373ffffffffffffffffffffffffffffffffffffffff1602179055506020820151816001015560408201518160020160006101000a81548160ff021916908360048111156131805761317f613897565b5b0217905550606082015181600301908161319a9190614830565b506080820151816004015560a08201518160050160006101000a81548160ff02191690831515021790555060c08201518160050160016101000a81548173ffffffffffffffffffffffffffffffffffffffff021916908373ffffffffffffffffffffffffffffffffffffffff160217905550905050600660008154809291906132229061434d565b91905055508673ffffffffffffffffffffffffffffffffffffffff16867fef5eabbd7c8f1989b296579684ebfc590aaf5438168fdef06026232b4175b5ed8760405161326e9190614902565b60405180910390a3600192505050949350505050565b60055481565b6003602052826000526040600020602052816000526040600020602052806000526040600020600092509250509054906101000a900460ff1681565b6000600360008473ffffffffffffffffffffffffffffffffffffffff1673ffffffffffffffffffffffffffffffffffffffff168152602001908152602001600020600083815260200190815260200160002060006001600085815260200190815260200160002060000160009054906101000a900473ffffffffffffffffffffffffffffffffffffffff1673ffffffffffffffffffffffffffffffffffffffff1673ffffffffffffffffffffffffffffffffffffffff16815260200190815260200160002060009054906101000a900460ff16905092915050565b600160038111156133b5576133b4613897565b5b6000803373ffffffffffffffffffffffffffffffffffffffff1673ffffffffffffffffffffffffffffffffffffffff16815260200190815260200160002060000160149054906101000a900460ff16600381111561341657613415613897565b5b14613456576040517f08c379a000000000000000000000000000000000000000000000000000000000815260040161344d9061458c565b60405180910390fd5b806001600082815260200190815260200160002060050160009054906101000a900460ff166134ba576040517f08c379a00000000000000000000000000000000000000000000000000000000081526004016134b1906141c6565b60405180910390fd5b600073ffffffffffffffffffffffffffffffffffffffff168373ffffffffffffffffffffffffffffffffffffffff1603613529576040517f08c379a0000000000000000000000000000000000000000000000000000000008152600401613520906150e2565b60405180910390fd5b60008061353585610e2b565b9150915081801561356a57506002600381111561355557613554613897565b5b81600381111561356857613567613897565b5b145b6135a9576040517f08c379a00000000000000000000000000000000000000000000000000000000081526004016135a09061514e565b60405180910390fd5b6001600360008773ffffffffffffffffffffffffffffffffffffffff1673ffffffffffffffffffffffffffffffffffffffff168152602001908152602001600020600086815260200190815260200160002060003373ffffffffffffffffffffffffffffffffffffffff1673ffffffffffffffffffffffffffffffffffffffff16815260200190815260200160002060006101000a81548160ff0219169083151502179055503373ffffffffffffffffffffffffffffffffffffffff168573ffffffffffffffffffffffffffffffffffffffff167f752018cdfd5f924e9f3c3eb502d75284995f06f31fb10db58a6b98c418ee2cbd426040516136ac9190613a15565b60405180910390a35050505050565b60016020528060005260406000206000915090508060000160009054906101000a900473ffffffffffffffffffffffffffffffffffffffff16908060010154908060020160009054906101000a900460ff169080600301805461371d90614215565b80601f016020809104026020016040519081016040528092919081815260200182805461374990614215565b80156137965780601f1061376b57610100808354040283529160200191613796565b820191906000526020600020905b81548152906001019060200180831161377957829003601f168201915b5050505050908060040154908060050160009054906101000a900460ff16908060050160019054906101000a900473ffffffffffffffffffffffffffffffffffffffff16905087565b6000604051905090565b600080fd5b600080fd5b6000819050919050565b613806816137f3565b811461381157600080fd5b50565b600081359050613823816137fd565b92915050565b60006020828403121561383f5761383e6137e9565b5b600061384d84828501613814565b91505092915050565b600073ffffffffffffffffffffffffffffffffffffffff82169050919050565b600061388182613856565b9050919050565b61389181613876565b82525050565b7f4e487b7100000000000000000000000000000000000000000000000000000000600052602160045260246000fd5b600581106138d7576138d6613897565b5b50565b60008190506138e8826138c6565b919050565b60006138f8826138da565b9050919050565b613908816138ed565b82525050565b6000819050919050565b6139218161390e565b82525050565b60008115159050919050565b61393c81613927565b82525050565b600060a0820190506139576000830188613888565b61396460208301876138ff565b6139716040830186613918565b61397e6060830185613888565b61398b6080830184613933565b9695505050505050565b600481106139a257600080fd5b50565b6000813590506139b481613995565b92915050565b600080604083850312156139d1576139d06137e9565b5b60006139df858286016139a5565b92505060206139f085828601613814565b9150509250929050565b6000602082019050613a0f6000830184613933565b92915050565b6000602082019050613a2a6000830184613918565b92915050565b613a3981613876565b8114613a4457600080fd5b50565b600081359050613a5681613a30565b92915050565b600060208284031215613a7257613a716137e9565b5b6000613a8084828501613a47565b91505092915050565b60048110613a9a57613a99613897565b5b50565b6000819050613aab82613a89565b919050565b6000613abb82613a9d565b9050919050565b613acb81613ab0565b82525050565b6000604082019050613ae66000830185613933565b613af36020830184613ac2565b9392505050565b613b03816137f3565b82525050565b60048110613b1a57613b19613897565b5b50565b6000819050613b2b82613b09565b919050565b6000613b3b82613b1d565b9050919050565b613b4b81613b30565b82525050565b60048110613b6257613b61613897565b5b50565b6000819050613b7382613b51565b919050565b6000613b8382613b65565b9050919050565b613b9381613b78565b82525050565b600061012082019050613baf600083018c613888565b613bbc602083018b613888565b613bc9604083018a613afa565b613bd66060830189613b42565b613be36080830188613b8a565b613bf060a0830187613918565b613bfd60c0830186613918565b613c0a60e0830185613918565b613c18610100830184613933565b9a9950505050505050505050565b6000602082019050613c3b6000830184613888565b92915050565b60058110613c4e57600080fd5b50565b600081359050613c6081613c41565b92915050565b60008060408385031215613c7d57613c7c6137e9565b5b6000613c8b85828601613814565b9250506020613c9c85828601613c51565b9150509250929050565b60048110613cb357600080fd5b50565b600081359050613cc581613ca6565b92915050565b600080600060608486031215613ce457613ce36137e9565b5b6000613cf286828701613a47565b9350506020613d0386828701613814565b9250506040613d1486828701613cb6565b9150509250925092565b6000602082019050613d336000830184613afa565b92915050565b600081519050919050565b600082825260208201905092915050565b60005b83811015613d73578082015181840152602081019050613d58565b60008484015250505050565b6000601f19601f8301169050919050565b6000613d9b82613d39565b613da58185613d44565b9350613db5818560208601613d55565b613dbe81613d7f565b840191505092915050565b60006020820190508181036000830152613de38184613d90565b905092915050565b60008060408385031215613e0257613e016137e9565b5b6000613e1085828601613a47565b9250506020613e2185828601613814565b9150509250929050565b600080fd5b600080fd5b7f4e487b7100000000000000000000000000000000000000000000000000000000600052604160045260246000fd5b613e6d82613d7f565b810181811067ffffffffffffffff82111715613e8c57613e8b613e35565b5b80604052505050565b6000613e9f6137df565b9050613eab8282613e64565b919050565b600067ffffffffffffffff821115613ecb57613eca613e35565b5b613ed482613d7f565b9050602081019050919050565b82818337600083830152505050565b6000613f03613efe84613eb0565b613e95565b905082815260208101848484011115613f1f57613f1e613e30565b5b613f2a848285613ee1565b509392505050565b600082601f830112613f4757613f46613e2b565b5b8135613f57848260208601613ef0565b91505092915050565b60008060408385031215613f7757613f766137e9565b5b6000613f8585828601613814565b925050602083013567ffffffffffffffff811115613fa657613fa56137ee565b5b613fb285828601613f32565b9150509250929050565b600060c082019050613fd16000830189613888565b613fde6020830188613ac2565b613feb6040830187613933565b613ff86060830186613918565b6140056080830185613afa565b61401260a0830184613933565b979650505050505050565b60008060008060808587031215614037576140366137e9565b5b600061404587828801613a47565b945050602061405687828801613814565b935050604061406787828801613c51565b925050606085013567ffffffffffffffff811115614088576140876137ee565b5b61409487828801613f32565b91505092959194509250565b6000806000606084860312156140b9576140b86137e9565b5b60006140c786828701613a47565b93505060206140d886828701613814565b92505060406140e986828701613a47565b9150509250925092565b600060e082019050614108600083018a613888565b6141156020830189613afa565b61412260408301886138ff565b81810360608301526141348187613d90565b90506141436080830186613918565b61415060a0830185613933565b61415d60c0830184613888565b98975050505050505050565b600082825260208201905092915050565b7f5265636f726420646f6573206e6f742065786973740000000000000000000000600082015250565b60006141b0601583614169565b91506141bb8261417a565b602082019050919050565b600060208201905081810360008301526141df816141a3565b9050919050565b7f4e487b7100000000000000000000000000000000000000000000000000000000600052602260045260246000fd5b6000600282049050600182168061422d57607f821691505b6020821081036142405761423f6141e6565b5b50919050565b7f5573657220616c72656164792072656769737465726564000000000000000000600082015250565b600061427c601783614169565b915061428782614246565b602082019050919050565b600060208201905081810360008301526142ab8161426f565b9050919050565b7f496e76616c696420726f6c650000000000000000000000000000000000000000600082015250565b60006142e8600c83614169565b91506142f3826142b2565b602082019050919050565b60006020820190508181036000830152614317816142db565b9050919050565b7f4e487b7100000000000000000000000000000000000000000000000000000000600052601160045260246000fd5b60006143588261390e565b91507fffffffffffffffffffffffffffffffffffffffffffffffffffffffffffffffff820361438a5761438961431e565b5b600182019050919050565b60006020820190506143aa6000830184613ac2565b92915050565b7f4f6e6c792073797374656d206f776e65722063616e2063616c6c20746869732060008201527f66756e6374696f6e000000000000000000000000000000000000000000000000602082015250565b600061440c602883614169565b9150614417826143b0565b604082019050919050565b6000602082019050818103600083015261443b816143ff565b9050919050565b7f5573657220646f6573206e6f7420657869737400000000000000000000000000600082015250565b6000614478601383614169565b915061448382614442565b602082019050919050565b600060208201905081810360008301526144a78161446b565b9050919050565b7f5573657220616c72656164792064656163746976617465640000000000000000600082015250565b60006144e4601883614169565b91506144ef826144ae565b602082019050919050565b60006020820190508181036000830152614513816144d7565b9050919050565b7f4f6e6c792070617469656e74732063616e2063616c6c20746869732066756e6360008201527f74696f6e00000000000000000000000000000000000000000000000000000000602082015250565b6000614576602483614169565b91506145818261451a565b604082019050919050565b600060208201905081810360008301526145a581614569565b9050919050565b7f55736572206973206e6f74207665726966696564000000000000000000000000600082015250565b60006145e2601483614169565b91506145ed826145ac565b602082019050919050565b60006020820190508181036000830152614611816145d5565b9050919050565b7f5265636f726420616c7265616479206578697374730000000000000000000000600082015250565b600061464e601583614169565b915061465982614618565b602082019050919050565b6000602082019050818103600083015261467d81614641565b9050919050565b60008190508160005260206000209050919050565b60006020601f8301049050919050565b600082821b905092915050565b6000600883026146e67fffffffffffffffffffffffffffffffffffffffffffffffffffffffffffffffff826146a9565b6146f086836146a9565b95508019841693508086168417925050509392505050565b6000819050919050565b600061472d6147286147238461390e565b614708565b61390e565b9050919050565b6000819050919050565b61474783614712565b61475b61475382614734565b8484546146b6565b825550505050565b600090565b614770614763565b61477b81848461473e565b505050565b5b8181101561479f57614794600082614768565b600181019050614781565b5050565b601f8211156147e4576147b581614684565b6147be84614699565b810160208510156147cd578190505b6147e16147d985614699565b830182614780565b50505b505050565b600082821c905092915050565b6000614807600019846008026147e9565b1980831691505092915050565b600061482083836147f6565b9150826002028217905092915050565b61483982613d39565b67ffffffffffffffff81111561485257614851613e35565b5b61485c8254614215565b6148678282856147a3565b600060209050601f83116001811461489a5760008415614888578287015190505b6148928582614814565b8655506148fa565b601f1984166148a886614684565b60005b828110156148d0578489015182556001820191506020850194506020810190506148ab565b868310156148ed57848901516148e9601f8916826147f6565b8355505b6001600288020188555050505b505050505050565b600060208201905061491760008301846138ff565b92915050565b7f5573657220616c72656164792076657269666965640000000000000000000000600082015250565b6000614953601583614169565b915061495e8261491d565b602082019050919050565b6000602082019050818103600083015261498281614946565b9050919050565b7f496e76616c6964206f776e657220616464726573730000000000000000000000600082015250565b60006149bf601583614169565b91506149ca82614989565b602082019050919050565b600060208201905081810360008301526149ee816149b2565b9050919050565b7f496e76616c6964207065726d697373696f6e2074797065000000000000000000600082015250565b6000614a2b601783614169565b9150614a36826149f5565b602082019050919050565b60006020820190508181036000830152614a5a81614a1e565b9050919050565b7f496e63656e7469766520616d6f756e7420726571756972656400000000000000600082015250565b6000614a97601983614169565b9150614aa282614a61565b602082019050919050565b60006020820190508181036000830152614ac681614a8a565b9050919050565b7f496e76616c6964207265636f7264206f776e6572000000000000000000000000600082015250565b6000614b03601483614169565b9150614b0e82614acd565b602082019050919050565b60006020820190508181036000830152614b3281614af6565b9050919050565b60008160601b9050919050565b6000614b5182614b39565b9050919050565b6000614b6382614b46565b9050919050565b614b7b614b7682613876565b614b58565b82525050565b6000819050919050565b614b9c614b97826137f3565b614b81565b82525050565b6000819050919050565b614bbd614bb88261390e565b614ba2565b82525050565b6000614bcf8288614b6a565b601482019150614bdf8287614b6a565b601482019150614bef8286614b8b565b602082019150614bff8285614bac565b602082019150614c0f8284614bac565b6020820191508190509695505050505050565b6000614c2d8261390e565b9150614c388361390e565b9250828201905080821115614c5057614c4f61431e565b5b92915050565b7f556e617574686f72697a65640000000000000000000000000000000000000000600082015250565b6000614c8c600c83614169565b9150614c9782614c56565b602082019050919050565b60006020820190508181036000830152614cbb81614c7f565b9050919050565b7f4f6e6c79206f776e65722063616e207265766f6b650000000000000000000000600082015250565b6000614cf8601583614169565b9150614d0382614cc2565b602082019050919050565b60006020820190508181036000830152614d2781614ceb565b9050919050565b7f5065726d697373696f6e20646f6573206e6f7420657869737400000000000000600082015250565b6000614d64601983614169565b9150614d6f82614d2e565b602082019050919050565b60006020820190508181036000830152614d9381614d57565b9050919050565b6000614da68287614b6a565b601482019150614db68286614b6a565b601482019150614dc68285614b8b565b602082019150614dd68284614bac565b60208201915081905095945050505050565b7f4f6e6c79206f776e65722063616e20617070726f766500000000000000000000600082015250565b6000614e1e601683614169565b9150614e2982614de8565b602082019050919050565b60006020820190508181036000830152614e4d81614e11565b9050919050565b7f496e76616c696420726571756573742073746174757300000000000000000000600082015250565b6000614e8a601683614169565b9150614e9582614e54565b602082019050919050565b60006020820190508181036000830152614eb981614e7d565b9050919050565b7f5265717565737420657870697265640000000000000000000000000000000000600082015250565b6000614ef6600f83614169565b9150614f0182614ec0565b602082019050919050565b60006020820190508181036000830152614f2581614ee9565b9050919050565b7f4f6e6c79206865616c7468636172652070726f7669646572732063616e20636160008201527f6c6c20746869732066756e6374696f6e00000000000000000000000000000000602082015250565b6000614f88603083614169565b9150614f9382614f2c565b604082019050919050565b60006020820190508181036000830152614fb781614f7b565b9050919050565b7f496e76616c69642070617469656e742061646472657373000000000000000000600082015250565b6000614ff4601783614169565b9150614fff82614fbe565b602082019050919050565b6000602082019050818103600083015261502381614fe7565b9050919050565b7f496e76616c69642070617469656e740000000000000000000000000000000000600082015250565b6000615060600f83614169565b915061506b8261502a565b602082019050919050565b6000602082019050818103600083015261508f81615053565b9050919050565b7f496e76616c69642070726f766964657220616464726573730000000000000000600082015250565b60006150cc601883614169565b91506150d782615096565b602082019050919050565b600060208201905081810360008301526150fb816150bf565b9050919050565b7f496e76616c69642070726f766964657200000000000000000000000000000000600082015250565b6000615138601083614169565b915061514382615102565b602082019050919050565b600060208201905081810360008301526151678161512b565b905091905056fea26469706673582212203564443e244238597f0d37d81e14ad40e27f173ed02fee9ecf35111b0fcdae8d64736f6c63430008130033",
  "immutableReferences": {},
  "source": "// SPDX-License-Identifier: MIT\r\npragma solidity ^0.8.19;\r\n\r\ncontract EHRmain {\r\n    // User roles\r\n    enum Role { NONE, PATIENT, PROVIDER, RESEARCHER}\r\n    \r\n    // Data types\r\n    enum DataType { EHR, PHR, LAB_RESULT, PRESCRIPTION, IMAGING }\r\n    \r\n    // Permission types\r\n    enum PermissionType { NONE, READ, WRITE, FULL }\r\n    \r\n    // Status of permission requests\r\n    enum RequestStatus { PENDING, APPROVED, REJECTED, EXPIRED }\r\n    \r\n    // Structs for storing user data\r\n    struct User {\r\n        address userAddress;\r\n        Role role;\r\n        bool isActive;\r\n        uint256 registrationDate;\r\n        bytes32 publicKeyHash;\r\n        bool isVerified;\r\n    }\r\n\r\n    // Struct for health records metadata\r\n    struct HealthRecord {\r\n        address owner;\r\n        bytes32 dataHash;\r\n        DataType dataType;\r\n        bytes encryptedSymmetricKey;\r\n        uint256 timestamp;\r\n        bool isValid;\r\n        address provider;\r\n    }\r\n\r\n    // Struct for permission requests\r\n    struct PermissionRequest {\r\n        address requester;\r\n        address owner;\r\n        bytes32 dataHash;\r\n        PermissionType permissionType;\r\n        RequestStatus status;\r\n        uint256 requestDate;\r\n        uint256 expiryDate;\r\n        uint256 incentiveAmount;\r\n        bool isIncentiveBased;\r\n    }\r\n\r\n    // State variables\r\n    mapping(address => User) public users;\r\n    mapping(bytes32 => HealthRecord) public healthRecords;\r\n    mapping(bytes32 => PermissionRequest) public permissionRequests;\r\n    mapping(address => mapping(bytes32 => mapping(address => bool))) public permissions;\r\n    \r\n    // System variables\r\n    address public systemOwner;\r\n    uint256 public totalUsers;\r\n    uint256 public totalRecords;\r\n    uint256 public totalRequests;\r\n\r\n    // Events\r\n    event UserRegistered(address indexed userAddress, Role role);\r\n    event HealthRecordAdded(bytes32 indexed dataHash, address indexed owner, DataType dataType);\r\n    event PermissionRequested(bytes32 indexed requestId, address indexed requester, address indexed owner);\r\n    event PermissionGranted(bytes32 indexed requestId, address indexed requester, address indexed owner);\r\n    event PermissionRevoked(bytes32 indexed dataHash, address indexed revokedUser);\r\n    event RecordUpdated(bytes32 indexed dataHash, address indexed updater);\r\n    event UserVerified(address indexed userAddress);\r\n    event EmergencyAccess(address indexed provider, address indexed patient, uint256 timestamp);\r\n\r\n    // Modifiers\r\n    modifier onlySystemOwner() {\r\n        require(msg.sender == systemOwner, \"Only system owner can call this function\");\r\n        _;\r\n    }\r\n\r\n    modifier onlyVerifiedUser() {\r\n        require(users[msg.sender].isVerified, \"User is not verified\");\r\n        _;\r\n    }\r\n\r\n    modifier onlyProvider() {\r\n        require(users[msg.sender].role == Role.PROVIDER, \"Only healthcare providers can call this function\");\r\n        _;\r\n    }\r\n\r\n    modifier onlyPatient() {\r\n        require(users[msg.sender].role == Role.PATIENT, \"Only patients can call this function\");\r\n        _;\r\n    }\r\n\r\n    modifier recordExists(bytes32 _dataHash) {\r\n        require(healthRecords[_dataHash].isValid, \"Record does not exist\");\r\n        _;\r\n    }\r\n\r\n    // Constructor\r\n    constructor() {\r\n        systemOwner = msg.sender;\r\n        totalUsers = 0;\r\n        totalRecords = 0;\r\n        totalRequests = 0;\r\n    }\r\n\r\n    // Registry Contract Functions\r\n    function registerUser(\r\n        Role _role,\r\n        bytes32 _publicKeyHash\r\n    ) external returns (bool) {\r\n        require(users[msg.sender].userAddress == address(0), \"User already registered\");\r\n        require(_role != Role.NONE, \"Invalid role\");\r\n\r\n        users[msg.sender] = User({\r\n            userAddress: msg.sender,\r\n            role: _role,\r\n            isActive: true,\r\n            registrationDate: block.timestamp,\r\n            publicKeyHash: _publicKeyHash,\r\n            isVerified: false\r\n        });\r\n\r\n        totalUsers++;\r\n        emit UserRegistered(msg.sender, _role);\r\n        return true;\r\n    }\r\n\r\n    function verifyUser(address _userAddress) external onlySystemOwner {\r\n        require(users[_userAddress].userAddress != address(0), \"User does not exist\");\r\n        require(!users[_userAddress].isVerified, \"User already verified\");\r\n\r\n        users[_userAddress].isVerified = true;\r\n        emit UserVerified(_userAddress);\r\n    }\r\n\r\n    function deactivateUser(address _userAddress) external onlySystemOwner {\r\n        require(users[_userAddress].userAddress != address(0), \"User does not exist\");\r\n        require(users[_userAddress].isActive, \"User already deactivated\");\r\n\r\n        users[_userAddress].isActive = false;\r\n    }\r\n\r\n    function checkUser(address _userAddress) public view returns (bool, Role) {\r\n        User memory user = users[_userAddress];\r\n        return (user.isActive && user.isVerified, user.role);\r\n    }\r\n\r\n    // Data Contract Functions\r\n    function addEHRData(\r\n        address _patientAddress,\r\n        bytes32 _dataHash,\r\n        DataType _dataType,\r\n        bytes memory _encryptedSymmetricKey\r\n    ) external onlyProvider onlyVerifiedUser returns (bool) {\r\n        require(_patientAddress != address(0), \"Invalid patient address\");\r\n        require(healthRecords[_dataHash].dataHash == bytes32(0), \"Record already exists\");\r\n        \r\n        (bool isValid, Role role) = checkUser(_patientAddress);\r\n        require(isValid && role == Role.PATIENT, \"Invalid patient\");\r\n\r\n        healthRecords[_dataHash] = HealthRecord({\r\n            owner: _patientAddress,\r\n            dataHash: _dataHash,\r\n            dataType: _dataType,\r\n            encryptedSymmetricKey: _encryptedSymmetricKey,\r\n            timestamp: block.timestamp,\r\n            isValid: true,\r\n            provider: msg.sender\r\n\r\n        });\r\n\r\n        totalRecords++;\r\n        emit HealthRecordAdded(_dataHash, _patientAddress, _dataType);\r\n        return true;\r\n    }\r\n\r\n    function addPHRData(\r\n        bytes32 _dataHash,\r\n        DataType _dataType\r\n    ) external onlyPatient onlyVerifiedUser returns (bool) {\r\n        require(healthRecords[_dataHash].dataHash == bytes32(0), \"Record already exists\");\r\n\r\n        healthRecords[_dataHash] = HealthRecord({\r\n            owner: msg.sender,\r\n            dataHash: _dataHash,\r\n            dataType: _dataType,\r\n            encryptedSymmetricKey: new bytes(0),\r\n            timestamp: block.timestamp,\r\n            isValid: true,\r\n            provider: msg.sender\r\n        });\r\n\r\n        totalRecords++;\r\n        emit HealthRecordAdded(_dataHash, msg.sender, _dataType);\r\n        return true;\r\n    }\r\n\r\n    function updateRecord(\r\n        bytes32 _dataHash,\r\n        bytes memory _newEncryptedSymmetricKey\r\n    ) external recordExists(_dataHash) returns (bool) {\r\n        HealthRecord storage record = healthRecords[_dataHash];\r\n        require(msg.sender == record.owner || msg.sender == record.provider, \"Unauthorized\");\r\n\r\n        record.encryptedSymmetricKey = _newEncryptedSymmetricKey;\r\n        record.timestamp = block.timestamp;\r\n\r\n        emit RecordUpdated(_dataHash, msg.sender);\r\n        return true;\r\n    }\r\n\r\n    function invalidateRecord(bytes32 _dataHash) \r\n        external \r\n        recordExists(_dataHash) \r\n        onlySystemOwner \r\n    {\r\n        healthRecords[_dataHash].isValid = false;\r\n    }\r\n\r\n    // Permission Contract Functions\r\n    function requestNonIncentiveBasedPermission(\r\n        address _owner,\r\n        bytes32 _dataHash,\r\n        PermissionType _permissionType\r\n    ) external onlyVerifiedUser recordExists(_dataHash) returns (bytes32) {\r\n        require(_owner != address(0), \"Invalid owner address\");\r\n        require(_permissionType != PermissionType.NONE, \"Invalid permission type\");\r\n        require(healthRecords[_dataHash].owner == _owner, \"Invalid record owner\");\r\n\r\n        bytes32 requestId = keccak256(\r\n            abi.encodePacked(\r\n                msg.sender,\r\n                _owner,\r\n                _dataHash,\r\n                block.timestamp\r\n            )\r\n        );\r\n\r\n        permissionRequests[requestId] = PermissionRequest({\r\n            requester: msg.sender,\r\n            owner: _owner,\r\n            dataHash: _dataHash,\r\n            permissionType: _permissionType,\r\n            status: RequestStatus.PENDING,\r\n            requestDate: block.timestamp,\r\n            expiryDate: block.timestamp + 30 days,\r\n            incentiveAmount: 0,\r\n            isIncentiveBased: false\r\n        });\r\n\r\n        totalRequests++;\r\n        emit PermissionRequested(requestId, msg.sender, _owner);\r\n        return requestId;\r\n    }\r\n\r\n    function requestIncentiveBasedPermission(\r\n        address _owner,\r\n        bytes32 _dataHash,\r\n        PermissionType _permissionType\r\n    ) external payable onlyVerifiedUser recordExists(_dataHash) returns (bytes32) {\r\n        require(_owner != address(0), \"Invalid owner address\");\r\n        require(_permissionType != PermissionType.NONE, \"Invalid permission type\");\r\n        require(msg.value > 0, \"Incentive amount required\");\r\n        require(healthRecords[_dataHash].owner == _owner, \"Invalid record owner\");\r\n\r\n        bytes32 requestId = keccak256(\r\n            abi.encodePacked(\r\n                msg.sender,\r\n                _owner,\r\n                _dataHash,\r\n                block.timestamp,\r\n                msg.value\r\n            )\r\n        );\r\n\r\n        permissionRequests[requestId] = PermissionRequest({\r\n            requester: msg.sender,\r\n            owner: _owner,\r\n            dataHash: _dataHash,\r\n            permissionType: _permissionType,\r\n            status: RequestStatus.PENDING,\r\n            requestDate: block.timestamp,\r\n            expiryDate: block.timestamp + 30 days,\r\n            incentiveAmount: msg.value,\r\n            isIncentiveBased: true\r\n        });\r\n\r\n        totalRequests++;\r\n        emit PermissionRequested(requestId, msg.sender, _owner);\r\n        return requestId;\r\n    }\r\n\r\n    function approvePermission(\r\n        bytes32 _requestId\r\n        // bytes memory _encryptedKeyForRequester\r\n    ) external onlyVerifiedUser returns (bool) {\r\n        PermissionRequest storage request = permissionRequests[_requestId];\r\n        require(request.owner == msg.sender, \"Only owner can approve\");\r\n        require(request.status == RequestStatus.PENDING, \"Invalid request status\");\r\n        require(block.timestamp <= request.expiryDate, \"Request expired\");\r\n\r\n        request.status = RequestStatus.APPROVED;\r\n        permissions[request.requester][request.dataHash][msg.sender] = true;\r\n\r\n        if (request.isIncentiveBased) {\r\n            payable(msg.sender).transfer(request.incentiveAmount);\r\n        }\r\n\r\n        emit PermissionGranted(_requestId, request.requester, msg.sender);\r\n        return true;\r\n    }\r\n\r\n    function revokePermission(\r\n        address _revokedUser,\r\n        bytes32 _dataHash\r\n    ) external recordExists(_dataHash) {\r\n        require(msg.sender == healthRecords[_dataHash].owner, \"Only owner can revoke\");\r\n        require(permissions[_revokedUser][_dataHash][msg.sender], \"Permission does not exist\");\r\n\r\n        permissions[_revokedUser][_dataHash][msg.sender] = false;\r\n        emit PermissionRevoked(_dataHash, _revokedUser);\r\n    }\r\n\r\n    function checkPermission(\r\n        address _user,\r\n        bytes32 _dataHash\r\n    ) external view returns (bool) {\r\n        return permissions[_user][_dataHash][healthRecords[_dataHash].owner];\r\n    }\r\n\r\n    // Emergency Access Functions\r\n    function grantEmergencyAccess(\r\n        address _provider,\r\n        bytes32 _dataHash\r\n    ) external onlyPatient recordExists(_dataHash) {\r\n        require(_provider != address(0), \"Invalid provider address\");\r\n        (bool isValid, Role role) = checkUser(_provider);\r\n        require(isValid && role == Role.PROVIDER, \"Invalid provider\");\r\n\r\n        permissions[_provider][_dataHash][msg.sender] = true;\r\n        emit EmergencyAccess(_provider, msg.sender, block.timestamp);\r\n    }\r\n\r\n    // Utility Functions\r\n    function getRecordDetails(bytes32 _dataHash) \r\n        external \r\n        view \r\n        recordExists(_dataHash) \r\n        returns (\r\n            address owner,\r\n            DataType dataType,\r\n            uint256 timestamp,\r\n            address provider,\r\n            bool isValid\r\n        ) \r\n    {\r\n        HealthRecord memory record = healthRecords[_dataHash];\r\n        return (\r\n            record.owner,\r\n            record.dataType,\r\n            record.timestamp,\r\n            record.provider,\r\n            record.isValid\r\n        );\r\n    }\r\n\r\n    function getEncryptedKey(bytes32 _dataHash) \r\n        external \r\n        view \r\n        recordExists(_dataHash) \r\n        returns (bytes memory) \r\n    {\r\n        require(\r\n            msg.sender == healthRecords[_dataHash].owner || \r\n            permissions[msg.sender][_dataHash][healthRecords[_dataHash].owner],\r\n            \"Unauthorized\"\r\n        );\r\n        return healthRecords[_dataHash].encryptedSymmetricKey;\r\n    }\r\n}",
  "sourcePath": "C:\\Users\\sajan\\Desktop\\EHR project\\EHR project\\EHR\\EHRProject\\contract\\contracts\\EHRmain.sol",
  "compiler": {
    "name": "solc",
    "version": "0.8.19+commit.7dd6d404.Emscripten.clang"
  },
  "schemaVersion": "3.4.16",
  "updatedAt": "2024-11-17T16:14:47.260Z",
  "networkType": "ethereum",
  "devdoc": {
    "kind": "dev",
    "methods": {},
    "version": 1
  },
  "userdoc": {
    "kind": "user",
    "methods": {},
    "version": 1
  }
}