{
  "contractName": "EHRmain",
  "abi": [
    {
      "inputs": [],
      "stateMutability": "nonpayable",
      "type": "constructor"
    },
    {
      "anonymous": false,
      "inputs": [
        {
          "indexed": true,
          "internalType": "address",
          "name": "patientAddress",
          "type": "address"
        },
        {
          "indexed": true,
          "internalType": "address",
          "name": "hospitalAddress",
          "type": "address"
        },
        {
          "indexed": false,
          "internalType": "string",
          "name": "hospitalName",
          "type": "string"
        },
        {
          "indexed": false,
          "internalType": "string",
          "name": "roomType",
          "type": "string"
        },
        {
          "indexed": false,
          "internalType": "uint256",
          "name": "bookingDate",
          "type": "uint256"
        }
      ],
      "name": "AppointmentBooked",
      "type": "event"
    },
    {
      "anonymous": false,
      "inputs": [
        {
          "indexed": true,
          "internalType": "address",
          "name": "owner",
          "type": "address"
        },
        {
          "indexed": true,
          "internalType": "address",
          "name": "careProvider",
          "type": "address"
        },
        {
          "indexed": false,
          "internalType": "string",
          "name": "ipfsCid",
          "type": "string"
        },
        {
          "indexed": false,
          "internalType": "enum EHRStorage.DataType",
          "name": "dataType",
          "type": "uint8"
        },
        {
          "indexed": false,
          "internalType": "string",
          "name": "encryptedSymmetricKey",
          "type": "string"
        },
        {
          "indexed": false,
          "internalType": "uint256",
          "name": "approvedDate",
          "type": "uint256"
        },
        {
          "indexed": false,
          "internalType": "uint256",
          "name": "expiryDate",
          "type": "uint256"
        },
        {
          "indexed": false,
          "internalType": "bool",
          "name": "status",
          "type": "bool"
        }
      ],
      "name": "ApprovedRecordAdded",
      "type": "event"
    },
    {
      "anonymous": false,
      "inputs": [
        {
          "indexed": true,
          "internalType": "address",
          "name": "provider",
          "type": "address"
        },
        {
          "indexed": true,
          "internalType": "address",
          "name": "patient",
          "type": "address"
        },
        {
          "indexed": false,
          "internalType": "uint256",
          "name": "timestamp",
          "type": "uint256"
        }
      ],
      "name": "EmergencyAccess",
      "type": "event"
    },
    {
      "anonymous": false,
      "inputs": [
        {
          "indexed": true,
          "internalType": "string",
          "name": "ipfsCid",
          "type": "string"
        },
        {
          "indexed": true,
          "internalType": "address",
          "name": "owner",
          "type": "address"
        },
        {
          "indexed": false,
          "internalType": "enum EHRStorage.DataType",
          "name": "dataType",
          "type": "uint8"
        }
      ],
      "name": "HealthRecordAdded",
      "type": "event"
    },
    {
      "anonymous": false,
      "inputs": [
        {
          "indexed": false,
          "internalType": "bytes32",
          "name": "requestId",
          "type": "bytes32"
        },
        {
          "indexed": true,
          "internalType": "address",
          "name": "requester",
          "type": "address"
        },
        {
          "indexed": true,
          "internalType": "address",
          "name": "owner",
          "type": "address"
        }
      ],
      "name": "PermissionGranted",
      "type": "event"
    },
    {
      "anonymous": false,
      "inputs": [
        {
          "indexed": false,
          "internalType": "bytes32",
          "name": "requestId",
          "type": "bytes32"
        },
        {
          "indexed": true,
          "internalType": "address",
          "name": "requester",
          "type": "address"
        },
        {
          "indexed": true,
          "internalType": "address",
          "name": "owner",
          "type": "address"
        }
      ],
      "name": "PermissionRequested",
      "type": "event"
    },
    {
      "anonymous": false,
      "inputs": [
        {
          "indexed": true,
          "internalType": "string",
          "name": "ipfsCid",
          "type": "string"
        },
        {
          "indexed": true,
          "internalType": "address",
          "name": "revokedUser",
          "type": "address"
        }
      ],
      "name": "PermissionRevoked",
      "type": "event"
    },
    {
      "anonymous": false,
      "inputs": [
        {
          "indexed": true,
          "internalType": "string",
          "name": "ipfsCid",
          "type": "string"
        },
        {
          "indexed": false,
          "internalType": "enum EHRStorage.RecordStatus",
          "name": "newStatus",
          "type": "uint8"
        }
      ],
      "name": "RecordStatusUpdated",
      "type": "event"
    },
    {
      "anonymous": false,
      "inputs": [
        {
          "indexed": true,
          "internalType": "address",
          "name": "userAddress",
          "type": "address"
        },
        {
          "indexed": false,
          "internalType": "enum EHRStorage.Role",
          "name": "role",
          "type": "uint8"
        }
      ],
      "name": "UserRegistered",
      "type": "event"
    },
    {
      "inputs": [
        {
          "internalType": "uint256",
          "name": "",
          "type": "uint256"
        }
      ],
      "name": "allInsuranceClaims",
      "outputs": [
        {
          "internalType": "uint256",
          "name": "claimId",
          "type": "uint256"
        },
        {
          "internalType": "address",
          "name": "patient",
          "type": "address"
        },
        {
          "internalType": "string",
          "name": "plan",
          "type": "string"
        },
        {
          "internalType": "uint256",
          "name": "amount",
          "type": "uint256"
        },
        {
          "internalType": "string",
          "name": "description",
          "type": "string"
        },
        {
          "internalType": "string",
          "name": "status",
          "type": "string"
        },
        {
          "internalType": "uint256",
          "name": "timestamp",
          "type": "uint256"
        },
        {
          "internalType": "string",
          "name": "ipfsHash",
          "type": "string"
        }
      ],
      "stateMutability": "view",
      "type": "function"
    },
    {
      "inputs": [
        {
          "internalType": "address",
          "name": "",
          "type": "address"
        },
        {
          "internalType": "uint256",
          "name": "",
          "type": "uint256"
        }
      ],
      "name": "approvedRecords",
      "outputs": [
        {
          "internalType": "address",
          "name": "owner",
          "type": "address"
        },
        {
          "internalType": "address",
          "name": "careProvider",
          "type": "address"
        },
        {
          "internalType": "string",
          "name": "ipfsCid",
          "type": "string"
        },
        {
          "internalType": "enum EHRStorage.DataType",
          "name": "dataType",
          "type": "uint8"
        },
        {
          "internalType": "string",
          "name": "encryptedSymmetricKey",
          "type": "string"
        },
        {
          "internalType": "uint256",
          "name": "approvedDate",
          "type": "uint256"
        },
        {
          "internalType": "uint256",
          "name": "expiryDate",
          "type": "uint256"
        },
        {
          "internalType": "bool",
          "name": "status",
          "type": "bool"
        }
      ],
      "stateMutability": "view",
      "type": "function"
    },
    {
      "inputs": [
        {
          "internalType": "string",
          "name": "",
          "type": "string"
        }
      ],
      "name": "approvedRecordsByID",
      "outputs": [
        {
          "internalType": "address",
          "name": "owner",
          "type": "address"
        },
        {
          "internalType": "address",
          "name": "careProvider",
          "type": "address"
        },
        {
          "internalType": "string",
          "name": "ipfsCid",
          "type": "string"
        },
        {
          "internalType": "enum EHRStorage.DataType",
          "name": "dataType",
          "type": "uint8"
        },
        {
          "internalType": "string",
          "name": "encryptedSymmetricKey",
          "type": "string"
        },
        {
          "internalType": "uint256",
          "name": "approvedDate",
          "type": "uint256"
        },
        {
          "internalType": "uint256",
          "name": "expiryDate",
          "type": "uint256"
        },
        {
          "internalType": "bool",
          "name": "status",
          "type": "bool"
        }
      ],
      "stateMutability": "view",
      "type": "function"
    },
    {
      "inputs": [
        {
          "internalType": "address",
          "name": "",
          "type": "address"
        },
        {
          "internalType": "address",
          "name": "",
          "type": "address"
        }
      ],
      "name": "emergencyAccesses",
      "outputs": [
        {
          "internalType": "bool",
          "name": "",
          "type": "bool"
        }
      ],
      "stateMutability": "view",
      "type": "function"
    },
    {
      "inputs": [
        {
          "internalType": "string",
          "name": "",
          "type": "string"
        }
      ],
      "name": "healthRecords",
      "outputs": [
        {
          "internalType": "address",
          "name": "owner",
          "type": "address"
        },
        {
          "internalType": "string",
          "name": "ipfsCid",
          "type": "string"
        },
        {
          "internalType": "enum EHRStorage.DataType",
          "name": "dataType",
          "type": "uint8"
        },
        {
          "internalType": "string",
          "name": "encryptedSymmetricKey",
          "type": "string"
        },
        {
          "internalType": "uint256",
          "name": "timestamp",
          "type": "uint256"
        },
        {
          "internalType": "enum EHRStorage.RecordStatus",
          "name": "status",
          "type": "uint8"
        },
        {
          "internalType": "address",
          "name": "provider",
          "type": "address"
        }
      ],
      "stateMutability": "view",
      "type": "function"
    },
    {
      "inputs": [
        {
          "internalType": "address",
          "name": "",
          "type": "address"
        },
        {
          "internalType": "uint256",
          "name": "",
          "type": "uint256"
        }
      ],
      "name": "insuranceClaims",
      "outputs": [
        {
          "internalType": "uint256",
          "name": "claimId",
          "type": "uint256"
        },
        {
          "internalType": "address",
          "name": "patient",
          "type": "address"
        },
        {
          "internalType": "string",
          "name": "plan",
          "type": "string"
        },
        {
          "internalType": "uint256",
          "name": "amount",
          "type": "uint256"
        },
        {
          "internalType": "string",
          "name": "description",
          "type": "string"
        },
        {
          "internalType": "string",
          "name": "status",
          "type": "string"
        },
        {
          "internalType": "uint256",
          "name": "timestamp",
          "type": "uint256"
        },
        {
          "internalType": "string",
          "name": "ipfsHash",
          "type": "string"
        }
      ],
      "stateMutability": "view",
      "type": "function"
    },
    {
      "inputs": [],
      "name": "nextClaimId",
      "outputs": [
        {
          "internalType": "uint256",
          "name": "",
          "type": "uint256"
        }
      ],
      "stateMutability": "view",
      "type": "function"
    },
    {
      "inputs": [
        {
          "internalType": "address",
          "name": "",
          "type": "address"
        },
        {
          "internalType": "uint256",
          "name": "",
          "type": "uint256"
        }
      ],
      "name": "ownerToHealthRecords",
      "outputs": [
        {
          "internalType": "string",
          "name": "",
          "type": "string"
        }
      ],
      "stateMutability": "view",
      "type": "function"
    },
    {
      "inputs": [
        {
          "internalType": "address",
          "name": "",
          "type": "address"
        },
        {
          "internalType": "uint256",
          "name": "",
          "type": "uint256"
        }
      ],
      "name": "patientAppointments",
      "outputs": [
        {
          "internalType": "address",
          "name": "patientAddress",
          "type": "address"
        },
        {
          "internalType": "address",
          "name": "hospitalAddress",
          "type": "address"
        },
        {
          "internalType": "string",
          "name": "hospitalName",
          "type": "string"
        },
        {
          "internalType": "string",
          "name": "roomType",
          "type": "string"
        },
        {
          "internalType": "uint256",
          "name": "bookingDate",
          "type": "uint256"
        }
      ],
      "stateMutability": "view",
      "type": "function"
    },
    {
      "inputs": [
        {
          "internalType": "uint256",
          "name": "",
          "type": "uint256"
        }
      ],
      "name": "permissionRequestIds",
      "outputs": [
        {
          "internalType": "bytes32",
          "name": "",
          "type": "bytes32"
        }
      ],
      "stateMutability": "view",
      "type": "function"
    },
    {
      "inputs": [
        {
          "internalType": "bytes32",
          "name": "",
          "type": "bytes32"
        }
      ],
      "name": "permissionRequests",
      "outputs": [
        {
          "internalType": "address",
          "name": "requester",
          "type": "address"
        },
        {
          "internalType": "address",
          "name": "owner",
          "type": "address"
        },
        {
          "internalType": "bytes32",
          "name": "requestId",
          "type": "bytes32"
        },
        {
          "internalType": "string",
          "name": "ipfsCid",
          "type": "string"
        },
        {
          "internalType": "enum EHRStorage.PermissionType",
          "name": "permissionType",
          "type": "uint8"
        },
        {
          "internalType": "enum EHRStorage.RequestStatus",
          "name": "status",
          "type": "uint8"
        },
        {
          "internalType": "uint256",
          "name": "requestDate",
          "type": "uint256"
        },
        {
          "internalType": "uint256",
          "name": "expiryDate",
          "type": "uint256"
        },
        {
          "internalType": "uint256",
          "name": "incentiveAmount",
          "type": "uint256"
        },
        {
          "internalType": "bool",
          "name": "isIncentiveBased",
          "type": "bool"
        }
      ],
      "stateMutability": "view",
      "type": "function"
    },
    {
      "inputs": [
        {
          "internalType": "address",
          "name": "",
          "type": "address"
        },
        {
          "internalType": "string",
          "name": "",
          "type": "string"
        },
        {
          "internalType": "address",
          "name": "",
          "type": "address"
        }
      ],
      "name": "permissions",
      "outputs": [
        {
          "internalType": "bool",
          "name": "",
          "type": "bool"
        }
      ],
      "stateMutability": "view",
      "type": "function"
    },
    {
      "inputs": [],
      "name": "systemOwner",
      "outputs": [
        {
          "internalType": "address",
          "name": "",
          "type": "address"
        }
      ],
      "stateMutability": "view",
      "type": "function"
    },
    {
      "inputs": [],
      "name": "totalRecords",
      "outputs": [
        {
          "internalType": "uint256",
          "name": "",
          "type": "uint256"
        }
      ],
      "stateMutability": "view",
      "type": "function"
    },
    {
      "inputs": [],
      "name": "totalRequests",
      "outputs": [
        {
          "internalType": "uint256",
          "name": "",
          "type": "uint256"
        }
      ],
      "stateMutability": "view",
      "type": "function"
    },
    {
      "inputs": [],
      "name": "totalUsers",
      "outputs": [
        {
          "internalType": "uint256",
          "name": "",
          "type": "uint256"
        }
      ],
      "stateMutability": "view",
      "type": "function"
    },
    {
      "inputs": [
        {
          "internalType": "address",
          "name": "",
          "type": "address"
        }
      ],
      "name": "userKeys",
      "outputs": [
        {
          "internalType": "string",
          "name": "publicKeyForEncryption",
          "type": "string"
        }
      ],
      "stateMutability": "view",
      "type": "function"
    },
    {
      "inputs": [
        {
          "internalType": "address",
          "name": "",
          "type": "address"
        }
      ],
      "name": "users",
      "outputs": [
        {
          "internalType": "address",
          "name": "userAddress",
          "type": "address"
        },
        {
          "internalType": "enum EHRStorage.Role",
          "name": "role",
          "type": "uint8"
        },
        {
          "internalType": "uint256",
          "name": "registrationDate",
          "type": "uint256"
        },
        {
          "internalType": "bytes32",
          "name": "publicKeyHash",
          "type": "bytes32"
        }
      ],
      "stateMutability": "view",
      "type": "function"
    },
    {
      "inputs": [
        {
          "internalType": "enum EHRStorage.Role",
          "name": "_role",
          "type": "uint8"
        },
        {
          "internalType": "bytes32",
          "name": "_publicKeyHash",
          "type": "bytes32"
        },
        {
          "internalType": "string",
          "name": "_publicKeyForEncryption",
          "type": "string"
        }
      ],
      "name": "registerUser",
      "outputs": [
        {
          "internalType": "bool",
          "name": "",
          "type": "bool"
        }
      ],
      "stateMutability": "nonpayable",
      "type": "function"
    },
    {
      "inputs": [
        {
          "internalType": "address",
          "name": "userAddress",
          "type": "address"
        }
      ],
      "name": "getKeyPair",
      "outputs": [
        {
          "internalType": "string",
          "name": "",
          "type": "string"
        }
      ],
      "stateMutability": "view",
      "type": "function"
    },
    {
      "inputs": [
        {
          "internalType": "address",
          "name": "_userAddress",
          "type": "address"
        }
      ],
      "name": "checkUser",
      "outputs": [
        {
          "internalType": "enum EHRStorage.Role",
          "name": "",
          "type": "uint8"
        }
      ],
      "stateMutability": "view",
      "type": "function"
    },
    {
      "inputs": [
        {
          "internalType": "address",
          "name": "_patientAddress",
          "type": "address"
        },
        {
          "internalType": "string",
          "name": "_ipfsCid",
          "type": "string"
        },
        {
          "internalType": "enum EHRStorage.DataType",
          "name": "_dataType",
          "type": "uint8"
        },
        {
          "internalType": "string",
          "name": "_encryptedSymmetricKey",
          "type": "string"
        }
      ],
      "name": "addEHRData",
      "outputs": [
        {
          "internalType": "bool",
          "name": "",
          "type": "bool"
        }
      ],
      "stateMutability": "nonpayable",
      "type": "function"
    },
    {
      "inputs": [
        {
          "internalType": "string",
          "name": "_ipfsCid",
          "type": "string"
        },
        {
          "internalType": "enum EHRStorage.DataType",
          "name": "_dataType",
          "type": "uint8"
        },
        {
          "internalType": "string",
          "name": "_encryptedSymmetricKey",
          "type": "string"
        }
      ],
      "name": "addPHRData",
      "outputs": [
        {
          "internalType": "bool",
          "name": "",
          "type": "bool"
        }
      ],
      "stateMutability": "nonpayable",
      "type": "function"
    },
    {
      "inputs": [
        {
          "internalType": "address",
          "name": "_owner",
          "type": "address"
        },
        {
          "internalType": "address",
          "name": "_careProvider",
          "type": "address"
        },
        {
          "internalType": "string",
          "name": "_ipfsCid",
          "type": "string"
        },
        {
          "internalType": "enum EHRStorage.DataType",
          "name": "_dataType",
          "type": "uint8"
        },
        {
          "internalType": "string",
          "name": "_encryptedSymmetricKey",
          "type": "string"
        },
        {
          "internalType": "uint256",
          "name": "_approvedDate",
          "type": "uint256"
        },
        {
          "internalType": "uint256",
          "name": "_expiryDate",
          "type": "uint256"
        }
      ],
      "name": "addApprovedRecord",
      "outputs": [],
      "stateMutability": "nonpayable",
      "type": "function"
    },
    {
      "inputs": [
        {
          "internalType": "address",
          "name": "_owner",
          "type": "address"
        },
        {
          "internalType": "string",
          "name": "_ipfsCid",
          "type": "string"
        },
        {
          "internalType": "enum EHRStorage.PermissionType",
          "name": "_permissionType",
          "type": "uint8"
        }
      ],
      "name": "requestNonIncentiveBasedPermission",
      "outputs": [
        {
          "internalType": "bytes32",
          "name": "",
          "type": "bytes32"
        }
      ],
      "stateMutability": "nonpayable",
      "type": "function"
    },
    {
      "inputs": [
        {
          "internalType": "address",
          "name": "_owner",
          "type": "address"
        },
        {
          "internalType": "string",
          "name": "_ipfsCid",
          "type": "string"
        },
        {
          "internalType": "enum EHRStorage.PermissionType",
          "name": "_permissionType",
          "type": "uint8"
        }
      ],
      "name": "requestIncentiveBasedPermission",
      "outputs": [
        {
          "internalType": "bytes32",
          "name": "",
          "type": "bytes32"
        }
      ],
      "stateMutability": "payable",
      "type": "function"
    },
    {
      "inputs": [
        {
          "internalType": "address",
          "name": "patient",
          "type": "address"
        }
      ],
      "name": "getPendingRequestsForPatient",
      "outputs": [
        {
          "components": [
            {
              "internalType": "address",
              "name": "requester",
              "type": "address"
            },
            {
              "internalType": "address",
              "name": "owner",
              "type": "address"
            },
            {
              "internalType": "bytes32",
              "name": "requestId",
              "type": "bytes32"
            },
            {
              "internalType": "string",
              "name": "ipfsCid",
              "type": "string"
            },
            {
              "internalType": "enum EHRStorage.PermissionType",
              "name": "permissionType",
              "type": "uint8"
            },
            {
              "internalType": "enum EHRStorage.RequestStatus",
              "name": "status",
              "type": "uint8"
            },
            {
              "internalType": "uint256",
              "name": "requestDate",
              "type": "uint256"
            },
            {
              "internalType": "uint256",
              "name": "expiryDate",
              "type": "uint256"
            },
            {
              "internalType": "uint256",
              "name": "incentiveAmount",
              "type": "uint256"
            },
            {
              "internalType": "bool",
              "name": "isIncentiveBased",
              "type": "bool"
            }
          ],
          "internalType": "struct EHRStorage.PermissionRequest[]",
          "name": "",
          "type": "tuple[]"
        }
      ],
      "stateMutability": "view",
      "type": "function"
    },
    {
      "inputs": [
        {
          "internalType": "bytes32",
          "name": "_requestId",
          "type": "bytes32"
        }
      ],
      "name": "approvePermission",
      "outputs": [
        {
          "internalType": "bool",
          "name": "",
          "type": "bool"
        }
      ],
      "stateMutability": "nonpayable",
      "type": "function"
    },
    {
      "inputs": [
        {
          "internalType": "string",
          "name": "_ipfsCid",
          "type": "string"
        },
        {
          "internalType": "address",
          "name": "_user",
          "type": "address"
        }
      ],
      "name": "revokePermission",
      "outputs": [
        {
          "internalType": "bool",
          "name": "",
          "type": "bool"
        }
      ],
      "stateMutability": "nonpayable",
      "type": "function"
    },
    {
      "inputs": [
        {
          "internalType": "address",
          "name": "userAddress",
          "type": "address"
        }
      ],
      "name": "getHealthRecordsByOwner",
      "outputs": [
        {
          "components": [
            {
              "internalType": "address",
              "name": "owner",
              "type": "address"
            },
            {
              "internalType": "string",
              "name": "ipfsCid",
              "type": "string"
            },
            {
              "internalType": "enum EHRStorage.DataType",
              "name": "dataType",
              "type": "uint8"
            },
            {
              "internalType": "string",
              "name": "encryptedSymmetricKey",
              "type": "string"
            },
            {
              "internalType": "uint256",
              "name": "timestamp",
              "type": "uint256"
            },
            {
              "internalType": "enum EHRStorage.RecordStatus",
              "name": "status",
              "type": "uint8"
            },
            {
              "internalType": "address",
              "name": "provider",
              "type": "address"
            }
          ],
          "internalType": "struct EHRStorage.HealthRecord[]",
          "name": "",
          "type": "tuple[]"
        }
      ],
      "stateMutability": "view",
      "type": "function"
    },
    {
      "inputs": [
        {
          "internalType": "string",
          "name": "recordId",
          "type": "string"
        }
      ],
      "name": "getHealthRecordByIpfs",
      "outputs": [
        {
          "internalType": "address",
          "name": "owner",
          "type": "address"
        },
        {
          "internalType": "string",
          "name": "ipfsCid",
          "type": "string"
        },
        {
          "internalType": "enum EHRStorage.DataType",
          "name": "dataType",
          "type": "uint8"
        },
        {
          "internalType": "string",
          "name": "encryptedSymmetricKey",
          "type": "string"
        },
        {
          "internalType": "uint256",
          "name": "timestamp",
          "type": "uint256"
        },
        {
          "internalType": "enum EHRStorage.RecordStatus",
          "name": "status",
          "type": "uint8"
        },
        {
          "internalType": "address",
          "name": "provider",
          "type": "address"
        }
      ],
      "stateMutability": "view",
      "type": "function"
    },
    {
      "inputs": [
        {
          "internalType": "address",
          "name": "_careProvider",
          "type": "address"
        }
      ],
      "name": "getRecordsByCareProvider",
      "outputs": [
        {
          "components": [
            {
              "internalType": "address",
              "name": "owner",
              "type": "address"
            },
            {
              "internalType": "address",
              "name": "careProvider",
              "type": "address"
            },
            {
              "internalType": "string",
              "name": "ipfsCid",
              "type": "string"
            },
            {
              "internalType": "enum EHRStorage.DataType",
              "name": "dataType",
              "type": "uint8"
            },
            {
              "internalType": "string",
              "name": "encryptedSymmetricKey",
              "type": "string"
            },
            {
              "internalType": "uint256",
              "name": "approvedDate",
              "type": "uint256"
            },
            {
              "internalType": "uint256",
              "name": "expiryDate",
              "type": "uint256"
            },
            {
              "internalType": "bool",
              "name": "status",
              "type": "bool"
            }
          ],
          "internalType": "struct EHRStorage.approvedRecord[]",
          "name": "",
          "type": "tuple[]"
        }
      ],
      "stateMutability": "view",
      "type": "function"
    },
    {
      "inputs": [
        {
          "internalType": "address",
          "name": "requester",
          "type": "address"
        },
        {
          "internalType": "string",
          "name": "recordId",
          "type": "string"
        }
      ],
      "name": "getRecordsForResearcher",
      "outputs": [
        {
          "components": [
            {
              "internalType": "address",
              "name": "owner",
              "type": "address"
            },
            {
              "internalType": "address",
              "name": "careProvider",
              "type": "address"
            },
            {
              "internalType": "string",
              "name": "ipfsCid",
              "type": "string"
            },
            {
              "internalType": "enum EHRStorage.DataType",
              "name": "dataType",
              "type": "uint8"
            },
            {
              "internalType": "string",
              "name": "encryptedSymmetricKey",
              "type": "string"
            },
            {
              "internalType": "uint256",
              "name": "approvedDate",
              "type": "uint256"
            },
            {
              "internalType": "uint256",
              "name": "expiryDate",
              "type": "uint256"
            },
            {
              "internalType": "bool",
              "name": "status",
              "type": "bool"
            }
          ],
          "internalType": "struct EHRStorage.approvedRecord",
          "name": "",
          "type": "tuple"
        }
      ],
      "stateMutability": "view",
      "type": "function"
    },
    {
      "inputs": [
        {
          "internalType": "string",
          "name": "_ipfsCid",
          "type": "string"
        }
      ],
      "name": "invalidateRecord",
      "outputs": [],
      "stateMutability": "nonpayable",
      "type": "function"
    },
    {
      "inputs": [
        {
          "internalType": "bytes32",
          "name": "requestId",
          "type": "bytes32"
        }
      ],
      "name": "getPermissionRequest",
      "outputs": [
        {
          "internalType": "address",
          "name": "requester",
          "type": "address"
        },
        {
          "internalType": "address",
          "name": "owner",
          "type": "address"
        },
        {
          "internalType": "string",
          "name": "ipfsCid",
          "type": "string"
        },
        {
          "internalType": "uint256",
          "name": "requestDate",
          "type": "uint256"
        },
        {
          "internalType": "uint256",
          "name": "expiryDate",
          "type": "uint256"
        },
        {
          "internalType": "uint256",
          "name": "incentiveAmount",
          "type": "uint256"
        },
        {
          "internalType": "bool",
          "name": "isIncentiveBased",
          "type": "bool"
        },
        {
          "internalType": "uint8",
          "name": "status",
          "type": "uint8"
        }
      ],
      "stateMutability": "view",
      "type": "function"
    },
    {
      "inputs": [
        {
          "internalType": "address",
          "name": "_patientAddress",
          "type": "address"
        }
      ],
      "name": "emergencyAccess",
      "outputs": [
        {
          "internalType": "bool",
          "name": "",
          "type": "bool"
        }
      ],
      "stateMutability": "nonpayable",
      "type": "function"
    },
    {
      "inputs": [
        {
          "internalType": "address",
          "name": "_ambulance",
          "type": "address"
        },
        {
          "internalType": "address",
          "name": "_patient",
          "type": "address"
        }
      ],
      "name": "checkEmergencyAccess",
      "outputs": [
        {
          "internalType": "bool",
          "name": "",
          "type": "bool"
        }
      ],
      "stateMutability": "view",
      "type": "function"
    },
    {
      "inputs": [
        {
          "internalType": "address",
          "name": "_ambulance",
          "type": "address"
        },
        {
          "internalType": "address",
          "name": "_patient",
          "type": "address"
        }
      ],
      "name": "revokeEmergencyAccess",
      "outputs": [
        {
          "internalType": "bool",
          "name": "",
          "type": "bool"
        }
      ],
      "stateMutability": "nonpayable",
      "type": "function"
    },
    {
      "inputs": [
        {
          "internalType": "address",
          "name": "_owner",
          "type": "address"
        }
      ],
      "name": "requestBatchAccess",
      "outputs": [
        {
          "internalType": "bytes32",
          "name": "",
          "type": "bytes32"
        }
      ],
      "stateMutability": "nonpayable",
      "type": "function"
    },
    {
      "inputs": [
        {
          "internalType": "bytes32",
          "name": "_requestId",
          "type": "bytes32"
        }
      ],
      "name": "approveBatchAccess",
      "outputs": [
        {
          "internalType": "bool",
          "name": "",
          "type": "bool"
        }
      ],
      "stateMutability": "nonpayable",
      "type": "function"
    },
    {
      "inputs": [
        {
          "internalType": "address",
          "name": "_patientAddress",
          "type": "address"
        },
        {
          "internalType": "string",
          "name": "_hospitalName",
          "type": "string"
        },
        {
          "internalType": "string",
          "name": "_roomType",
          "type": "string"
        }
      ],
      "name": "bookAppointment",
      "outputs": [],
      "stateMutability": "nonpayable",
      "type": "function"
    },
    {
      "inputs": [
        {
          "internalType": "address",
          "name": "_patientAddress",
          "type": "address"
        }
      ],
      "name": "getAppointmentsByPatient",
      "outputs": [
        {
          "components": [
            {
              "internalType": "address",
              "name": "patientAddress",
              "type": "address"
            },
            {
              "internalType": "address",
              "name": "hospitalAddress",
              "type": "address"
            },
            {
              "internalType": "string",
              "name": "hospitalName",
              "type": "string"
            },
            {
              "internalType": "string",
              "name": "roomType",
              "type": "string"
            },
            {
              "internalType": "uint256",
              "name": "bookingDate",
              "type": "uint256"
            }
          ],
          "internalType": "struct EHRStorage.Appointment[]",
          "name": "",
          "type": "tuple[]"
        }
      ],
      "stateMutability": "view",
      "type": "function"
    },
    {
      "inputs": [
        {
          "internalType": "string",
          "name": "_ipfsCid",
          "type": "string"
        }
      ],
      "name": "processPrescription",
      "outputs": [],
      "stateMutability": "nonpayable",
      "type": "function"
    },
    {
      "inputs": [
        {
          "internalType": "address",
          "name": "patient",
          "type": "address"
        },
        {
          "internalType": "string",
          "name": "plan",
          "type": "string"
        },
        {
          "internalType": "uint256",
          "name": "amount",
          "type": "uint256"
        },
        {
          "internalType": "string",
          "name": "description",
          "type": "string"
        },
        {
          "internalType": "string",
          "name": "ipfsHash",
          "type": "string"
        }
      ],
      "name": "addInsuranceClaim",
      "outputs": [],
      "stateMutability": "nonpayable",
      "type": "function"
    },
    {
      "inputs": [
        {
          "internalType": "address",
          "name": "patient",
          "type": "address"
        }
      ],
      "name": "getInsuranceClaims",
      "outputs": [
        {
          "components": [
            {
              "internalType": "uint256",
              "name": "claimId",
              "type": "uint256"
            },
            {
              "internalType": "address",
              "name": "patient",
              "type": "address"
            },
            {
              "internalType": "string",
              "name": "plan",
              "type": "string"
            },
            {
              "internalType": "uint256",
              "name": "amount",
              "type": "uint256"
            },
            {
              "internalType": "string",
              "name": "description",
              "type": "string"
            },
            {
              "internalType": "string",
              "name": "status",
              "type": "string"
            },
            {
              "internalType": "uint256",
              "name": "timestamp",
              "type": "uint256"
            },
            {
              "internalType": "string",
              "name": "ipfsHash",
              "type": "string"
            }
          ],
          "internalType": "struct EHRmain.InsuranceClaim[]",
          "name": "",
          "type": "tuple[]"
        }
      ],
      "stateMutability": "view",
      "type": "function"
    },
    {
      "inputs": [],
      "name": "getAllInsuranceClaims",
      "outputs": [
        {
          "components": [
            {
              "internalType": "uint256",
              "name": "claimId",
              "type": "uint256"
            },
            {
              "internalType": "address",
              "name": "patient",
              "type": "address"
            },
            {
              "internalType": "string",
              "name": "plan",
              "type": "string"
            },
            {
              "internalType": "uint256",
              "name": "amount",
              "type": "uint256"
            },
            {
              "internalType": "string",
              "name": "description",
              "type": "string"
            },
            {
              "internalType": "string",
              "name": "status",
              "type": "string"
            },
            {
              "internalType": "uint256",
              "name": "timestamp",
              "type": "uint256"
            },
            {
              "internalType": "string",
              "name": "ipfsHash",
              "type": "string"
            }
          ],
          "internalType": "struct EHRmain.InsuranceClaim[]",
          "name": "",
          "type": "tuple[]"
        }
      ],
      "stateMutability": "view",
      "type": "function"
    },
    {
      "inputs": [
        {
          "internalType": "uint256",
          "name": "claimId",
          "type": "uint256"
        },
        {
          "internalType": "bool",
          "name": "approve",
          "type": "bool"
        }
      ],
      "name": "processInsuranceClaim",
      "outputs": [],
      "stateMutability": "nonpayable",
      "type": "function"
    }
  ],
  "bytecode": "0x6080604052600160115534801561001557600080fd5b50600a80546001600160a01b031916331790556000600b819055600c819055600d556170fc80620000476000396000f3fe6080604052600436106102185760003560e01c806306ec91e01461021d578063070b732c146102535780630ce46752146102b55780630e0ff2b8146102e85780631023289b1461030a578063125f897414610337578063187ec18d1461035b5780631e9d48cf1461037b578063262b4028146103a857806327be35db146103c8578063291be93b146103f557806329bd800114610415578063337792541461044b5780633cdcc4431461048357806340d3226f146104b757806341d724b4146104d757806342c62754146104f757806342e8ce2a1461051757806363e358fd146105375780636a85de14146105575780636d752ee51461058857806373fb78a4146105bc57806377249db8146105f05780637bbfdc111461061d5780637d645eaf1461064a5780637f2582771461066a578063893ea3101461068a5780638aea61dc146106ac578063a0021cf1146106c2578063a269a448146106d8578063a6fb108f146106eb578063a7ea62091461070b578063a806cad91461072b578063a80bc0f61461074b578063a87430ba1461076b578063a9ca2aed146107cc578063ac053aa9146107ec578063b4d1456c14610835578063be9b545a14610855578063bff1f9e114610875578063d75e9edd1461088b578063d9906b85146108ab578063e06c73f6146108e6578063e2fa218d14610906578063e3c0740b14610926578063f2d3d8aa14610946578063fa44f41614610966575b600080fd5b34801561022957600080fd5b5061023d610238366004615bfa565b610993565b60405161024a9190615c79565b60405180910390f35b34801561025f57600080fd5b506102a561026e366004615dd0565b6003602090815260009384526040808520845180860184018051928152908401958401959095209452929052825290205460ff1681565b604051901515815260200161024a565b3480156102c157600080fd5b506102d56102d0366004615e2d565b610bf4565b60405161024a9796959493929190615ea6565b3480156102f457600080fd5b50610308610303366004615f14565b610e1f565b005b34801561031657600080fd5b5061032a610325366004615bfa565b61105b565b60405161024a9190616046565b34801561034357600080fd5b5061034d600c5481565b60405190815260200161024a565b34801561036757600080fd5b5061034d6103763660046160a8565b6114b0565b34801561038757600080fd5b5061039b610396366004615bfa565b6117be565b60405161024a919061611d565b3480156103b457600080fd5b506103086103c3366004615e2d565b6117e3565b3480156103d457600080fd5b506103e86103e336600461612b565b6118a6565b60405161024a9190616178565b34801561040157600080fd5b5061030861041036600461618b565b611bee565b34801561042157600080fd5b506104356104303660046161fe565b611de6565b60405161024a9a99989796959493929190616230565b34801561045757600080fd5b50600a5461046b906001600160a01b031681565b6040516001600160a01b03909116815260200161024a565b34801561048f57600080fd5b506104a361049e3660046162ad565b611ed6565b60405161024a9897969594939291906162d7565b3480156104c357600080fd5b506102d56104d2366004615e2d565b612062565b3480156104e357600080fd5b506102a56104f2366004615bfa565b6121dc565b34801561050357600080fd5b50610308610512366004616348565b6124b4565b34801561052357600080fd5b506102a561053236600461637d565b6126dd565b34801561054357600080fd5b506102a56105523660046163ca565b6129c7565b34801561056357600080fd5b506105776105723660046162ad565b612a9b565b60405161024a9594939291906163f4565b34801561059457600080fd5b506105a86105a33660046161fe565b612c07565b60405161024a989796959493929190616445565b3480156105c857600080fd5b506105dc6105d73660046161fe565b612e86565b60405161024a9897969594939291906164c7565b3480156105fc57600080fd5b5061061061060b366004615bfa565b612fa0565b60405161024a9190616525565b34801561062957600080fd5b5061063d6106383660046162ad565b6132c2565b60405161024a9190616606565b34801561065657600080fd5b50610308610665366004615e2d565b61337b565b34801561067657600080fd5b5061034d610685366004615bfa565b61361c565b34801561069657600080fd5b5061069f6138b2565b60405161024a9190616619565b3480156106b857600080fd5b5061034d600d5481565b3480156106ce57600080fd5b5061034d60115481565b61034d6106e63660046160a8565b613b8e565b3480156106f757600080fd5b506102a56107063660046161fe565b613df2565b34801561071757600080fd5b5061069f610726366004615bfa565b613fae565b34801561073757600080fd5b5061030861074636600461670c565b614295565b34801561075757600080fd5b506105a86107663660046162ad565b614664565b34801561077757600080fd5b506107bc610786366004615bfa565b6000602081905290815260409020805460018201546002909201546001600160a01b03821692600160a01b90920460ff16919084565b60405161024a94939291906167b4565b3480156107d857600080fd5b506104a36107e7366004615e2d565b6146b7565b3480156107f857600080fd5b506102a56108073660046163ca565b6001600160a01b03918216600090815260086020908152604080832093909416825291909152205460ff1690565b34801561084157600080fd5b506102a56108503660046167e3565b6146f8565b34801561086157600080fd5b506102a56108703660046168af565b614aca565b34801561088157600080fd5b5061034d600b5481565b34801561089757600080fd5b5061063d6108a6366004615bfa565b614dd0565b3480156108b757600080fd5b506102a56108c63660046163ca565b600860209081526000928352604080842090915290825290205460ff1681565b3480156108f257600080fd5b506102a56109013660046161fe565b614eee565b34801561091257600080fd5b5061034d6109213660046161fe565b6153fe565b34801561093257600080fd5b506102a5610941366004616925565b61541f565b34801561095257600080fd5b5061063d610961366004615bfa565b615754565b34801561097257600080fd5b50610986610981366004615bfa565b6157f2565b60405161024a9190616978565b6060336001600160a01b03831614806109d65750600433600090815260208190526040902054600160a01b900460ff1660088111156109d4576109d4615e69565b145b610a335760405162461bcd60e51b815260206004820152602360248201527f4e6f7420617574686f72697a656420746f2076696577206170706f696e746d656044820152626e747360e81b60648201526084015b60405180910390fd5b6001600160a01b038216600090815260096020908152604080832080548251818502810185019093528083529193909284015b82821015610be95760008481526020908190206040805160a0810182526005860290920180546001600160a01b0390811684526001820154169383019390935260028301805492939291840191610abc90616a44565b80601f0160208091040260200160405190810160405280929190818152602001828054610ae890616a44565b8015610b355780601f10610b0a57610100808354040283529160200191610b35565b820191906000526020600020905b815481529060010190602001808311610b1857829003601f168201915b50505050508152602001600382018054610b4e90616a44565b80601f0160208091040260200160405190810160405280929190818152602001828054610b7a90616a44565b8015610bc75780601f10610b9c57610100808354040283529160200191610bc7565b820191906000526020600020905b815481529060010190602001808311610baa57829003601f168201915b5050505050815260200160048201548152505081526020019060010190610a66565b505050509050919050565b6000606060006060600080600080600189604051610c129190616a7e565b90815260408051918290036020908101832060e0840190925281546001600160a01b0316835260018201805491840191610c4b90616a44565b80601f0160208091040260200160405190810160405280929190818152602001828054610c7790616a44565b8015610cc45780601f10610c9957610100808354040283529160200191610cc4565b820191906000526020600020905b815481529060010190602001808311610ca757829003601f168201915b5050509183525050600282015460209091019060ff166006811115610ceb57610ceb615e69565b6006811115610cfc57610cfc615e69565b8152602001600382018054610d1090616a44565b80601f0160208091040260200160405190810160405280929190818152602001828054610d3c90616a44565b8015610d895780601f10610d5e57610100808354040283529160200191610d89565b820191906000526020600020905b815481529060010190602001808311610d6c57829003601f168201915b505050918352505060048201546020820152600582015460409091019060ff166003811115610dba57610dba615e69565b6003811115610dcb57610dcb615e69565b81526005919091015461010090046001600160a01b031660209182015281519082015160408301516060840151608085015160a086015160c090960151949f939e50919c509a509850919650945092505050565b604080516101008101825260115481526001600160a01b0387811660208084018281528486018a8152606086018a90526080860189905286518088018852600781526650656e64696e6760c81b8185015260a08701524260c087015260e086018890526000938452600f83529583208054600180820183559185529290932085516008909302019182555191810180546001600160a01b03191692909316919091179091559151909182916002820190610ed99082616afd565b506060820151600382015560808201516004820190610ef89082616afd565b5060a08201516005820190610f0d9082616afd565b5060c0820151600682015560e08201516007820190610f2c9082616afd565b50506010805460018101825560009190915282517f1b6847dc741a1b0cd08d278845f9d819d87b734759afb55fe2de5cb82a9ae672600890920291820190815560208401517f1b6847dc741a1b0cd08d278845f9d819d87b734759afb55fe2de5cb82a9ae673830180546001600160a01b0319166001600160a01b03909216919091179055604084015184935090917f1b6847dc741a1b0cd08d278845f9d819d87b734759afb55fe2de5cb82a9ae6740190610fe89082616afd565b5060608201516003820155608082015160048201906110079082616afd565b5060a0820151600582019061101c9082616afd565b5060c0820151600682015560e0820151600782019061103b9082616afd565b5050601180549150600061104e83616bcc565b9190505550505050505050565b60606001600160a01b0382166110835760405162461bcd60e51b8152600401610a2a90616be5565b6000805b6001600160a01b038416600090815260046020526040902054811015611185576001600160a01b03841660009081526004602052604081208054839081106110d1576110d1616c1c565b9060005260206000209060080201905060006001826002016040516110f69190616c32565b908152604051908190036020019020600783015490915060ff161515600114801561113957506003600282015460ff16600681111561113757611137615e69565b145b801561115d57506000600582015460ff16600381111561115b5761115b615e69565b145b15611170578361116c81616bcc565b9450505b5050808061117d90616bcc565b915050611087565b506000816001600160401b038111156111a0576111a0615d2e565b6040519080825280602002602001820160405280156111d957816020015b6111c6615b4d565b8152602001906001900390816111be5790505b5090506000805b6001600160a01b0386166000908152600460205260409020548110156114a6576001600160a01b038616600090815260046020526040812080548390811061122a5761122a616c1c565b90600052602060002090600802019050600060018260020160405161124f9190616c32565b908152604051908190036020019020600783015490915060ff161515600114801561129257506003600282015460ff16600681111561129057611290615e69565b145b80156112b657506000600582015460ff1660038111156112b4576112b4615e69565b145b1561149157604080516101008101825283546001600160a01b03908116825260018501541660208201526002840180549192859290840191906112f890616a44565b80601f016020809104026020016040519081016040528092919081815260200182805461132490616a44565b80156113715780601f1061134657610100808354040283529160200191611371565b820191906000526020600020905b81548152906001019060200180831161135457829003601f168201915b5050509183525050600382015460209091019060ff16600681111561139857611398615e69565b60068111156113a9576113a9615e69565b81526020016004820180546113bd90616a44565b80601f01602080910402602001604051908101604052809291908181526020018280546113e990616a44565b80156114365780601f1061140b57610100808354040283529160200191611436565b820191906000526020600020905b81548152906001019060200180831161141957829003601f168201915b5050509183525050600582015460208201526006820154604082015260079091015460ff161515606090910152855186908690811061147757611477616c1c565b6020026020010181905250838061148d90616bcc565b9450505b5050808061149e90616bcc565b9150506111e0565b5090949350505050565b60008260006001600160a01b03166001826040516114ce9190616a7e565b908152604051908190036020019020546001600160a01b0316036115045760405162461bcd60e51b8152600401610a2a90616ca8565b6001600160a01b03851661152a5760405162461bcd60e51b8152600401610a2a90616cd7565b8460405160200161153b9190616d06565b604051602081830303815290604052805190602001206001856040516115619190616a7e565b9081526040516020918190038201812054611588926001600160a01b039091169101616d06565b60405160208183030381529060405280519060200120146115bb5760405162461bcd60e51b8152600401610a2a90616d1e565b6000338686426040516020016115d49493929190616d4c565b604051602081830303815290604052805190602001209050604051806101400160405280336001600160a01b03168152602001876001600160a01b0316815260200182815260200186815260200185600581111561163457611634615e69565b8152602001600081526020014281526020014262278d006116559190616d93565b8152600060208083018290526040928301829052848252600280825291839020845181546001600160a01b03199081166001600160a01b03928316178355928601516001830180549094169116179091559183015190820155606082015160038201906116c29082616afd565b50608082015160048201805460ff191660018360058111156116e6576116e6615e69565b021790555060a082015160048201805461ff00191661010083600381111561171057611710615e69565b021790555060c0820151600582015560e082015160068201556101008201516007820155610120909101516008909101805460ff1916911515919091179055600d805490600061175f83616bcc565b90915550506040518181526001600160a01b0387169033906000805160206170878339815191529060200160405180910390a3600e80546001810182556000919091526000805160206170478339815191520181905595945050505050565b6001600160a01b0316600090815260208190526040902054600160a01b900460ff1690565b8060006001600160a01b03166001826040516117ff9190616a7e565b908152604051908190036020019020546001600160a01b0316036118355760405162461bcd60e51b8152600401610a2a90616ca8565b600a546001600160a01b0316331461185f5760405162461bcd60e51b8152600401610a2a90616da6565b60036001836040516118719190616a7e565b908152604051908190036020019020600501805460ff1916600183600381111561189d5761189d615e69565b02179055505050565b6118ae615b4d565b6001600160a01b0383166118f65760405162461bcd60e51b815260206004820152600f60248201526e496e76616c6964206164647265737360881b6044820152606401610a2a565b60036001600160a01b038416600090815260208190526040902054600160a01b900460ff16600881111561192c5761192c615e69565b1461198b5760405162461bcd60e51b815260206004820152602960248201527f4f6e6c792072657365617263686572732063616e20616363657373207468697360448201526810333ab731ba34b7b760b91b6064820152608401610a2a565b600060058360405161199d9190616a7e565b9081526040805191829003602090810183206101008401835280546001600160a01b0390811685526001820154169184019190915260028101805491928401916119e690616a44565b80601f0160208091040260200160405190810160405280929190818152602001828054611a1290616a44565b8015611a5f5780601f10611a3457610100808354040283529160200191611a5f565b820191906000526020600020905b815481529060010190602001808311611a4257829003601f168201915b5050509183525050600382015460209091019060ff166006811115611a8657611a86615e69565b6006811115611a9757611a97615e69565b8152602001600482018054611aab90616a44565b80601f0160208091040260200160405190810160405280929190818152602001828054611ad790616a44565b8015611b245780601f10611af957610100808354040283529160200191611b24565b820191906000526020600020905b815481529060010190602001808311611b0757829003601f168201915b5050509183525050600582015460208201526006820154604082015260079091015460ff16151560609091015260e0810151909150611b9c5760405162461bcd60e51b81526020600482015260146024820152735265636f7264206973206e6f742061637469766560601b6044820152606401610a2a565b8060c00151421115611be55760405162461bcd60e51b81526020600482015260126024820152711058d8d95cdcc81a185cc8195e1c1a5c995960721b6044820152606401610a2a565b90505b92915050565b600433600090815260208190526040902054600160a01b900460ff166008811115611c1b57611c1b615e69565b14611c775760405162461bcd60e51b815260206004820152602660248201527f4f6e6c7920686f73706974616c732063616e20706572666f726d20746869732060448201526530b1ba34b7b760d11b6064820152608401610a2a565b6001600160a01b0383811660009081526020819052604090205416611cda5760405162461bcd60e51b815260206004820152601960248201527814185d1a595b9d081a5cc81b9bdd081c9959da5cdd195c9959603a1b6044820152606401610a2a565b6040805160a0810182526001600160a01b038086168083523360208085019182528486018881526060860188905242608087015260009384526009825295832080546001818101835591855291909320855160059092020180549185166001600160a01b031992831617815591519282018054939094169216919091179091559151909182916002820190611d6f9082616afd565b5060608201516003820190611d849082616afd565b50608082015181600401555050336001600160a01b0316846001600160a01b03167feb62acb923b457239f6daf92e0c159e7dfbafeac1db11bcf2d3520a5404597d2858542604051611dd893929190616dee565b60405180910390a350505050565b600260208190526000918252604090912080546001820154928201546003830180546001600160a01b0393841695909316939192611e2390616a44565b80601f0160208091040260200160405190810160405280929190818152602001828054611e4f90616a44565b8015611e9c5780601f10611e7157610100808354040283529160200191611e9c565b820191906000526020600020905b815481529060010190602001808311611e7f57829003601f168201915b5050506004840154600585015460068601546007870154600890970154959660ff808516976101009095048116965092945090929091168a565b60046020528160005260406000208181548110611ef257600080fd5b60009182526020909120600890910201805460018201546002830180546001600160a01b039384169650919092169350611f2b90616a44565b80601f0160208091040260200160405190810160405280929190818152602001828054611f5790616a44565b8015611fa45780601f10611f7957610100808354040283529160200191611fa4565b820191906000526020600020905b815481529060010190602001808311611f8757829003601f168201915b5050506003840154600485018054949560ff909216949193509150611fc890616a44565b80601f0160208091040260200160405190810160405280929190818152602001828054611ff490616a44565b80156120415780601f1061201657610100808354040283529160200191612041565b820191906000526020600020905b81548152906001019060200180831161202457829003601f168201915b50505050600583015460068401546007909401549293909290915060ff1688565b805160208183018101805160018083529383019290940191909120929052815490820180546001600160a01b03909216929161209d90616a44565b80601f01602080910402602001604051908101604052809291908181526020018280546120c990616a44565b80156121165780601f106120eb57610100808354040283529160200191612116565b820191906000526020600020905b8154815290600101906020018083116120f957829003601f168201915b5050506002840154600385018054949560ff90921694919350915061213a90616a44565b80601f016020809104026020016040519081016040528092919081815260200182805461216690616a44565b80156121b35780601f10612188576101008083540402835291602001916121b3565b820191906000526020600020905b81548152906001019060200180831161219657829003601f168201915b50505050600483015460059093015491929160ff8116915061010090046001600160a01b031687565b6000600633600090815260208190526040902054600160a01b900460ff16600881111561220b5761220b615e69565b1461226f5760405162461bcd60e51b815260206004820152602e60248201527f4f6e6c7920616d62756c616e63652073657276696365732063616e2063616c6c60448201526d103a3434b990333ab731ba34b7b760911b6064820152608401610a2a565b60016001600160a01b038316600090815260208190526040902054600160a01b900460ff1660088111156122a5576122a5615e69565b146122c25760405162461bcd60e51b8152600401610a2a90616e24565b60003383426040516020016122d993929190616e55565b60408051601f198184030181528282528051602091820120610140840183523384526001600160a01b038716848301528383018190528251918201909252600081526060830152915060808101600281526020016001815260200142815260200142620151806123499190616d93565b8152600060208083018290526040928301829052848252600280825291839020845181546001600160a01b03199081166001600160a01b03928316178355928601516001830180549094169116179091559183015190820155606082015160038201906123b69082616afd565b50608082015160048201805460ff191660018360058111156123da576123da615e69565b021790555060a082015160048201805461ff00191661010083600381111561240457612404615e69565b021790555060c0820151600582015560e082015160068201556101008201516007820155610120909101516008918201805491151560ff19928316179055336000818152602093845260408082206001600160a01b038916808452955290819020805490931660011790925590517f752018cdfd5f924e9f3c3eb502d75284995f06f31fb10db58a6b98c418ee2cbd906124a19042815260200190565b60405180910390a360019150505b919050565b60005b6010548110156126d85782601082815481106124d5576124d5616c1c565b906000526020600020906008020160000154036126c65781156125495760405180604001604052806008815260200167105c1c1c9bdd995960c21b8152506010828154811061252657612526616c1c565b906000526020600020906008020160050190816125439190616afd565b5061259c565b6040518060400160405280600881526020016714995a9958dd195960c21b8152506010828154811061257d5761257d616c1c565b9060005260206000209060080201600501908161259a9190616afd565b505b6000601082815481106125b1576125b1616c1c565b600091825260208220600160089092020101546001600160a01b031691505b6001600160a01b0382166000908152600f60205260409020548110156126bf576001600160a01b0382166000908152600f6020526040902080548691908390811061261d5761261d616c1c565b906000526020600020906008020160000154036126ad576010838154811061264757612647616c1c565b9060005260206000209060080201600501600f6000846001600160a01b03166001600160a01b03168152602001908152602001600020828154811061268e5761268e616c1c565b906000526020600020906008020160050190816126ab9190616e7e565b505b806126b781616bcc565b9150506125d0565b5050505050565b806126d081616bcc565b9150506124b7565b505050565b60008260006001600160a01b03166001826040516126fb9190616a7e565b908152604051908190036020019020546001600160a01b0316036127315760405162461bcd60e51b8152600401610a2a90616ca8565b6001846040516127419190616a7e565b90815260405190819003602001902054336001600160a01b0390911614806127715750336001600160a01b038416145b806127865750600a546001600160a01b031633145b6127e35760405162461bcd60e51b815260206004820152602860248201527f4e6f7420617574686f72697a656420746f207265766f6b6520746869732070656044820152673936b4b9b9b4b7b760c11b6064820152608401610a2a565b6000600360006001876040516127f99190616a7e565b9081526040805160209281900383019020546001600160a01b03168352908201929092528101600020905161282f908790616a7e565b90815260408051602092819003830190206001600160a01b038716600090815292528120805460ff1916921515929092179091555b6001600160a01b03841660009081526004602052604090205481101561297457846040516020016128959190616a7e565b60408051601f1981840301815291815281516020928301206001600160a01b0387166000908152600490935291208054839081106128d5576128d5616c1c565b90600052602060002090600802016002016040516020016128f69190616c32565b6040516020818303038152906040528051906020012003612962576001600160a01b038416600090815260046020526040812080548390811061293b5761293b616c1c565b60009182526020909120600890910201600701805460ff1916911515919091179055612974565b8061296c81616bcc565b915050612864565b50826001600160a01b03168460405161298d9190616a7e565b604051908190038120907fb0948f04fe442d4a4537ab853413218081ee0cacb6095698486f22271166bdfd90600090a35060019392505050565b600a546000906001600160a01b031633146129f45760405162461bcd60e51b8152600401610a2a90616da6565b6001600160a01b0380841660009081526008602090815260408083209386168352929052205460ff16612a665760405162461bcd60e51b815260206004820152601a6024820152794e6f20656d657267656e6379206163636573732065786973747360301b6044820152606401610a2a565b506001600160a01b0391821660009081526008602090815260408083209390941682529190915220805460ff19169055600190565b60096020528160005260406000208181548110612ab757600080fd5b60009182526020909120600590910201805460018201546002830180546001600160a01b039384169650919092169350612af090616a44565b80601f0160208091040260200160405190810160405280929190818152602001828054612b1c90616a44565b8015612b695780601f10612b3e57610100808354040283529160200191612b69565b820191906000526020600020905b815481529060010190602001808311612b4c57829003601f168201915b505050505090806003018054612b7e90616a44565b80601f0160208091040260200160405190810160405280929190818152602001828054612baa90616a44565b8015612bf75780601f10612bcc57610100808354040283529160200191612bf7565b820191906000526020600020905b815481529060010190602001808311612bda57829003601f168201915b5050505050908060040154905085565b60108181548110612c1757600080fd5b60009182526020909120600890910201805460018201546002830180549294506001600160a01b039091169291612c4d90616a44565b80601f0160208091040260200160405190810160405280929190818152602001828054612c7990616a44565b8015612cc65780601f10612c9b57610100808354040283529160200191612cc6565b820191906000526020600020905b815481529060010190602001808311612ca957829003601f168201915b505050505090806003015490806004018054612ce190616a44565b80601f0160208091040260200160405190810160405280929190818152602001828054612d0d90616a44565b8015612d5a5780601f10612d2f57610100808354040283529160200191612d5a565b820191906000526020600020905b815481529060010190602001808311612d3d57829003601f168201915b505050505090806005018054612d6f90616a44565b80601f0160208091040260200160405190810160405280929190818152602001828054612d9b90616a44565b8015612de85780601f10612dbd57610100808354040283529160200191612de8565b820191906000526020600020905b815481529060010190602001808311612dcb57829003601f168201915b505050505090806006015490806007018054612e0390616a44565b80601f0160208091040260200160405190810160405280929190818152602001828054612e2f90616a44565b8015612e7c5780601f10612e5157610100808354040283529160200191612e7c565b820191906000526020600020905b815481529060010190602001808311612e5f57829003601f168201915b5050505050905088565b6000818152600260205260408120805460018201546005830154600684015460078501546008860154600487015488976060978997889788978897889795966001600160a01b0395861696949095169460038089019560ff9081169261010090041690811115612ef857612ef8615e69565b858054612f0490616a44565b80601f0160208091040260200160405190810160405280929190818152602001828054612f3090616a44565b8015612f7d5780601f10612f5257610100808354040283529160200191612f7d565b820191906000526020600020905b815481529060010190602001808311612f6057829003601f168201915b505050505095509850985098509850985098509850985050919395975091939597565b60606000805b600e5481101561301e576000600e8281548110612fc557612fc5616c1c565b6000918252602080832090910154808352600290915260409091206001810154919250906001600160a01b03808816911603613009578361300581616bcc565b9450505b5050808061301690616bcc565b915050612fa6565b506000816001600160401b0381111561303957613039615d2e565b6040519080825280602002602001820160405280156130c157816020015b6130ae60408051610140810182526000808252602082018190529181018290526060808201529060808201908152602001600081526020016000815260200160008152602001600081526020016000151581525090565b8152602001906001900390816130575790505b5090506000805b600e548110156114a6576000600e82815481106130e7576130e7616c1c565b6000918252602080832090910154808352600290915260409091206001810154919250906001600160a01b03808a169116036132ad57604080516101408101825282546001600160a01b03908116825260018401541660208201526002830154918101919091526003820180548391606084019161316490616a44565b80601f016020809104026020016040519081016040528092919081815260200182805461319090616a44565b80156131dd5780601f106131b2576101008083540402835291602001916131dd565b820191906000526020600020905b8154815290600101906020018083116131c057829003601f168201915b5050509183525050600482015460209091019060ff16600581111561320457613204615e69565b600581111561321557613215615e69565b81526020016004820160019054906101000a900460ff16600381111561323d5761323d615e69565b600381111561324e5761324e615e69565b815260058201546020820152600682015460408201526007820154606082015260089091015460ff161515608090910152855186908690811061329357613293616c1c565b602002602001018190525083806132a990616bcc565b9450505b505080806132ba90616bcc565b9150506130c8565b600660205281600052604060002081815481106132de57600080fd5b906000526020600020016000915091505080546132fa90616a44565b80601f016020809104026020016040519081016040528092919081815260200182805461332690616a44565b80156133735780601f1061334857610100808354040283529160200191613373565b820191906000526020600020905b81548152906001019060200180831161335657829003601f168201915b505050505081565b8060006001600160a01b03166001826040516133979190616a7e565b908152604051908190036020019020546001600160a01b0316036133cd5760405162461bcd60e51b8152600401610a2a90616ca8565b60006001836040516133df9190616a7e565b9081526040519081900360200190209050600733600090815260208190526040902054600160a01b900460ff16600881111561341d5761341d615e69565b146134655760405162461bcd60e51b815260206004820152601860248201527743616c6c6572206973206e6f74206120706861726d61637960401b6044820152606401610a2a565b6003600282015460ff16600681111561348057613480615e69565b146134c25760405162461bcd60e51b81526020600482015260126024820152712737ba103090383932b9b1b934b83a34b7b760711b6044820152606401610a2a565b6000600582015460ff1660038111156134dd576134dd615e69565b146135275760405162461bcd60e51b815260206004820152601a6024820152792737ba1030903832b73234b73390383932b9b1b934b83a34b7b760311b6044820152606401610a2a565b80546001600160a01b031660009081526003602052604090819020905161354f908590616a7e565b9081526040805160209281900383019020336000908152925290205460ff166135ba5760405162461bcd60e51b815260206004820152601d60248201527f506861726d61637920646f6573206e6f742068617665206163636573730000006044820152606401610a2a565b60058101805460ff191660011790556040516135d7908490616a7e565b60405180910390207fcba9061f1e7bb0d14458aded3f2584f5c9964f9fca71cdc49e9e982eeda2b5fa600160405161360f9190616f4a565b60405180910390a2505050565b60006001600160a01b0382166136445760405162461bcd60e51b8152600401610a2a90616cd7565b60016001600160a01b038316600090815260208190526040902054600160a01b900460ff16600881111561367a5761367a615e69565b146136c15760405162461bcd60e51b815260206004820152601760248201527613dddb995c881b5d5cdd0818994818481c185d1a595b9d604a1b6044820152606401610a2a565b60003383426040516020016136d893929190616e55565b60408051601f198184030181528282528051602091820120610140840183523384526001600160a01b0387168483015283830181905282519182019092526000808252606084019190915290925060808201908152602001600081526020014281526020014262278d0061374c9190616d93565b8152600060208083018290526040928301829052848252600280825291839020845181546001600160a01b03199081166001600160a01b03928316178355928601516001830180549094169116179091559183015190820155606082015160038201906137b99082616afd565b50608082015160048201805460ff191660018360058111156137dd576137dd615e69565b021790555060a082015160048201805461ff00191661010083600381111561380757613807615e69565b021790555060c0820151600582015560e082015160068201556101008201516007820155610120909101516008909101805460ff1916911515919091179055600d805490600061385683616bcc565b90915550506040518181526001600160a01b0384169033906000805160206170878339815191529060200160405180910390a3600e80546001810182556000919091526000805160206170478339815191520181905592915050565b60606010805480602002602001604051908101604052809291908181526020016000905b82821015613b855760008481526020908190206040805161010081018252600886029092018054835260018101546001600160a01b0316938301939093526002830180549293929184019161392a90616a44565b80601f016020809104026020016040519081016040528092919081815260200182805461395690616a44565b80156139a35780601f10613978576101008083540402835291602001916139a3565b820191906000526020600020905b81548152906001019060200180831161398657829003601f168201915b50505050508152602001600382015481526020016004820180546139c690616a44565b80601f01602080910402602001604051908101604052809291908181526020018280546139f290616a44565b8015613a3f5780601f10613a1457610100808354040283529160200191613a3f565b820191906000526020600020905b815481529060010190602001808311613a2257829003601f168201915b50505050508152602001600582018054613a5890616a44565b80601f0160208091040260200160405190810160405280929190818152602001828054613a8490616a44565b8015613ad15780601f10613aa657610100808354040283529160200191613ad1565b820191906000526020600020905b815481529060010190602001808311613ab457829003601f168201915b5050505050815260200160068201548152602001600782018054613af490616a44565b80601f0160208091040260200160405190810160405280929190818152602001828054613b2090616a44565b8015613b6d5780601f10613b4257610100808354040283529160200191613b6d565b820191906000526020600020905b815481529060010190602001808311613b5057829003601f168201915b505050505081525050815260200190600101906138d6565b50505050905090565b60008260006001600160a01b0316600182604051613bac9190616a7e565b908152604051908190036020019020546001600160a01b031603613be25760405162461bcd60e51b8152600401610a2a90616ca8565b6001600160a01b038516613c085760405162461bcd60e51b8152600401610a2a90616cd7565b60003411613c545760405162461bcd60e51b8152602060048201526019602482015278125b98d95b9d1a5d9948185b5bdd5b9d081c995c5d5a5c9959603a1b6044820152606401610a2a565b84604051602001613c659190616d06565b60405160208183030381529060405280519060200120600185604051613c8b9190616a7e565b9081526040516020918190038201812054613cb2926001600160a01b039091169101616d06565b6040516020818303038152906040528051906020012014613ce55760405162461bcd60e51b8152600401610a2a90616d1e565b600033868642604051602001613cfe9493929190616d4c565b604051602081830303815290604052805190602001209050604051806101400160405280336001600160a01b03168152602001876001600160a01b03168152602001828152602001868152602001856005811115613d5e57613d5e615e69565b8152602001600081526020014281526020014262278d00613d7f9190616d93565b815234602080830191909152600160409283018190526000858152600280845290849020855181546001600160a01b03199081166001600160a01b039283161783559487015193820180549095169316929092179092559183015190820155606082015160038201906116c29082616afd565b600081815260026020526040812060018101546001600160a01b03163314613e555760405162461bcd60e51b81526020600482015260166024820152754f6e6c79206f776e65722063616e20617070726f766560501b6044820152606401610a2a565b60006004820154610100900460ff166003811115613e7557613e75615e69565b14613e925760405162461bcd60e51b8152600401610a2a90616f5d565b8060060154421115613eb65760405162461bcd60e51b8152600401610a2a90616f8d565b60048101805461ff0019166101001790556001808201546001600160a01b03166000908152600360208190526040918290209151613ef691850190616c32565b908152604080516020928190038301902084546001600160a01b0316600090815292529020805460ff1916911515919091179055600881015460ff1615613f7957600181015460078201546040516001600160a01b039092169181156108fc0291906000818181858888f19350505050158015613f77573d6000803e3d6000fd5b505b600181015481546040518581526001600160a01b039283169290911690600080516020617067833981519152906020016124a1565b6001600160a01b0381166000908152600f60209081526040808320805482518185028101850190935280835260609492939192909184015b82821015610be95760008481526020908190206040805161010081018252600886029092018054835260018101546001600160a01b0316938301939093526002830180549293929184019161403a90616a44565b80601f016020809104026020016040519081016040528092919081815260200182805461406690616a44565b80156140b35780601f10614088576101008083540402835291602001916140b3565b820191906000526020600020905b81548152906001019060200180831161409657829003601f168201915b50505050508152602001600382015481526020016004820180546140d690616a44565b80601f016020809104026020016040519081016040528092919081815260200182805461410290616a44565b801561414f5780601f106141245761010080835404028352916020019161414f565b820191906000526020600020905b81548152906001019060200180831161413257829003601f168201915b5050505050815260200160058201805461416890616a44565b80601f016020809104026020016040519081016040528092919081815260200182805461419490616a44565b80156141e15780601f106141b6576101008083540402835291602001916141e1565b820191906000526020600020905b8154815290600101906020018083116141c457829003601f168201915b505050505081526020016006820154815260200160078201805461420490616a44565b80601f016020809104026020016040519081016040528092919081815260200182805461423090616a44565b801561427d5780601f106142525761010080835404028352916020019161427d565b820191906000526020600020905b81548152906001019060200180831161426057829003601f168201915b50505050508152505081526020019060010190613fe6565b6001600160a01b0387166142bb5760405162461bcd60e51b8152600401610a2a90616cd7565b6001600160a01b0386166142e15760405162461bcd60e51b8152600401610a2a90616be5565b600085511161432d5760405162461bcd60e51b815260206004820152601860248201527749504653204349442063616e6e6f7420626520656d70747960401b6044820152606401610a2a565b4282111561438b5760405162461bcd60e51b815260206004820152602560248201527f417070726f76656420646174652063616e6e6f7420626520696e207468652066604482015264757475726560d81b6064820152608401610a2a565b8181116143ea5760405162461bcd60e51b815260206004820152602760248201527f4578706972792064617465206d75737420626520616674657220617070726f766044820152666564206461746560c81b6064820152608401610a2a565b6000604051806101000160405280896001600160a01b03168152602001886001600160a01b0316815260200187815260200186600681111561442e5761442e615e69565b815260208082018790524260408084019190915260608301869052600160809093018390526001600160a01b03808c166000908152600484528281208054808701825590825290849020865160089092020180549183166001600160a01b03199283161781559386015194840180549590921694169390931790925590820151919250829160028201906144c29082616afd565b50606082015160038201805460ff191660018360068111156144e6576144e6615e69565b0217905550608082015160048201906144ff9082616afd565b5060a0820151816005015560c0820151816006015560e08201518160070160006101000a81548160ff0219169083151502179055505050806005876040516145479190616a7e565b9081526040805160209281900383019020835181546001600160a01b03199081166001600160a01b0392831617835593850151600183018054909516911617909255820151600282019061459b9082616afd565b50606082015160038201805460ff191660018360068111156145bf576145bf615e69565b0217905550608082015160048201906145d89082616afd565b5060a0820151600582015560c0820151600682015560e0909101516007909101805460ff19169115159190911790556040516001600160a01b0388811691908a16907f7f70321209aabb8d99473717508746279a6724c81f6f89e8a3cd6c2a2765740090614652908a908a908a908a908a90600190616fb6565b60405180910390a35050505050505050565b600f602052816000526040600020818154811061468057600080fd5b60009182526020909120600890910201805460018201546002830180549295506001600160a01b03909116935090612c4d90616a44565b8051808201602090810180516005825292820191909301209152805460018201546002830180546001600160a01b03938416949290931692611f2b90616a44565b6000600233600090815260208190526040902054600160a01b900460ff16600881111561472757614727615e69565b148061475d5750600433600090815260208190526040902054600160a01b900460ff16600881111561475b5761475b615e69565b145b806147925750600833600090815260208190526040902054600160a01b900460ff16600881111561479057614790615e69565b145b6147f75760405162461bcd60e51b815260206004820152603060248201527f4f6e6c79206865616c7468636172652070726f7669646572732063616e20636160448201526f3636103a3434b990333ab731ba34b7b760811b6064820152608401610a2a565b6001600160a01b03851661481d5760405162461bcd60e51b8152600401610a2a90616e24565b60018460405161482d9190616a7e565b9081526020016040518091039020600101805461484990616a44565b1590506148685760405162461bcd60e51b8152600401610a2a90617009565b6000614873866117be565b9050600181600881111561488957614889615e69565b146148c85760405162461bcd60e51b815260206004820152600f60248201526e125b9d985b1a59081c185d1a595b9d608a1b6044820152606401610a2a565b600060038560068111156148de576148de615e69565b146148ea5760026148ed565b60005b90506040518060e00160405280886001600160a01b0316815260200187815260200186600681111561492157614921615e69565b815260200185815260200142815260200182600381111561494457614944615e69565b81523360209091015260405160019061495e908990616a7e565b90815260405160209181900382019020825181546001600160a01b0319166001600160a01b0390911617815590820151600182019061499d9082616afd565b50604082015160028201805460ff191660018360068111156149c1576149c1615e69565b0217905550606082015160038201906149da9082616afd565b506080820151600482015560a082015160058201805460ff19166001836003811115614a0857614a08615e69565b021790555060c0919091015160059091018054610100600160a81b0319166101006001600160a01b03938416021790558716600090815260066020908152604082208054600181018255908352912001614a628782616afd565b50600c8054906000614a7383616bcc565b9190505550866001600160a01b031686604051614a909190616a7e565b60405180910390206000805160206170a783398151915287604051614ab59190617038565b60405180910390a35060019695505050505050565b6000600133600090815260208190526040902054600160a01b900460ff166008811115614af957614af9615e69565b14614b525760405162461bcd60e51b8152602060048201526024808201527f4f6e6c792070617469656e74732063616e2063616c6c20746869732066756e636044820152633a34b7b760e11b6064820152608401610a2a565b600185604051614b629190616a7e565b90815260200160405180910390206001018054614b7e90616a44565b159050614b9d5760405162461bcd60e51b8152600401610a2a90617009565b60006003856006811115614bb357614bb3615e69565b14614bbf576002614bc2565b60005b90506040518060e00160405280336001600160a01b03168152602001878152602001866006811115614bf657614bf6615e69565b815260200185858080601f016020809104026020016040519081016040528093929190818152602001838380828437600092019190915250505090825250426020820152604001826003811115614c4f57614c4f615e69565b815233602090910152604051600190614c69908990616a7e565b90815260405160209181900382019020825181546001600160a01b0319166001600160a01b03909116178155908201516001820190614ca89082616afd565b50604082015160028201805460ff19166001836006811115614ccc57614ccc615e69565b021790555060608201516003820190614ce59082616afd565b506080820151600482015560a082015160058201805460ff19166001836003811115614d1357614d13615e69565b021790555060c09190910151600590910180546001600160a01b0390921661010002610100600160a81b031990921691909117905533600090815260066020908152604082208054600181018255908352912001614d718782616afd565b50600c8054906000614d8283616bcc565b90915550506040513390614d97908890616a7e565b60405180910390206000805160206170a783398151915287604051614dbc9190617038565b60405180910390a350600195945050505050565b6001600160a01b0381811660009081526020819052604090205460609116614e305760405162461bcd60e51b8152602060048201526013602482015272155cd95c881b9bdd081c9959da5cdd195c9959606a1b6044820152606401610a2a565b6001600160a01b03821660009081526007602090815260408083208151928301909152805482908290614e6290616a44565b80601f0160208091040260200160405190810160405280929190818152602001828054614e8e90616a44565b8015614edb5780601f10614eb057610100808354040283529160200191614edb565b820191906000526020600020905b815481529060010190602001808311614ebe57829003601f168201915b5050509190925250509051949350505050565b6000818152600260205260408120600101546001600160a01b03163314614f545760405162461bcd60e51b815260206004820152601a6024820152794f6e6c7920746865206f776e65722063616e20617070726f766560301b6044820152606401610a2a565b60008083815260026020526040902060040154610100900460ff166003811115614f8057614f80615e69565b14614f9d5760405162461bcd60e51b8152600401610a2a90616f5d565b600082815260026020526040902060060154421115614fce5760405162461bcd60e51b8152600401610a2a90616f8d565b6000828152600260209081526040808320600401805461ff0019166101001790553383526006825280832080548251818502810185019093528083529192909190849084015b828210156150c057838290600052602060002001805461503390616a44565b80601f016020809104026020016040519081016040528092919081815260200182805461505f90616a44565b80156150ac5780601f10615081576101008083540402835291602001916150ac565b820191906000526020600020905b81548152906001019060200180831161508f57829003601f168201915b505050505081526020019060010190615014565b50505050905060005b81518110156153c3573360009081526003602052604090208251600191908490849081106150f9576150f9616c1c565b602002602001015160405161510e9190616a7e565b9081526040805160209281900383019020600088815260028452828120546001600160a01b0316815292528120805460ff191692151592909217909155825160019084908490811061516257615162616c1c565b60200260200101516040516151779190616a7e565b90815260408051918290036020908101832060e0840190925281546001600160a01b03168352600182018054918401916151b090616a44565b80601f01602080910402602001604051908101604052809291908181526020018280546151dc90616a44565b80156152295780601f106151fe57610100808354040283529160200191615229565b820191906000526020600020905b81548152906001019060200180831161520c57829003601f168201915b5050509183525050600282015460209091019060ff16600681111561525057615250615e69565b600681111561526157615261615e69565b815260200160038201805461527590616a44565b80601f01602080910402602001604051908101604052809291908181526020018280546152a190616a44565b80156152ee5780601f106152c3576101008083540402835291602001916152ee565b820191906000526020600020905b8154815290600101906020018083116152d157829003601f168201915b505050918352505060048201546020820152600582015460409091019060ff16600381111561531f5761531f615e69565b600381111561533057615330615e69565b8152600591909101546001600160a01b0361010090910481166020928301526000888152600290925260409091205485519293506153b0923392919091169086908690811061538157615381616c1c565b60200260200101518460400151856060015142600260008d815260200190815260200160002060060154614295565b50806153bb81616bcc565b9150506150c9565b5060008381526002602090815260409182902054915185815233926001600160a01b03169160008051602061706783398151915291016124a1565b600e818154811061540e57600080fd5b600091825260209091200154905081565b336000908152602081905260408120546001600160a01b03161561547f5760405162461bcd60e51b8152602060048201526017602482015276155cd95c88185b1c9958591e481c9959da5cdd195c9959604a1b6044820152606401610a2a565b600085600881111561549357615493615e69565b036154cf5760405162461bcd60e51b815260206004820152600c60248201526b496e76616c696420726f6c6560a01b6044820152606401610a2a565b60018560088111156154e3576154e3615e69565b1480615500575060028560088111156154fe576154fe615e69565b145b8061551c5750600385600881111561551a5761551a615e69565b145b806155385750600485600881111561553657615536615e69565b145b806155545750600585600881111561555257615552615e69565b145b806155705750600685600881111561556e5761556e615e69565b145b8061558c5750600785600881111561558a5761558a615e69565b145b806155a8575060088560088111156155a6576155a6615e69565b145b6155e85760405162461bcd60e51b8152602060048201526011602482015270496e76616c696420726f6c65207479706560781b6044820152606401610a2a565b6040518060800160405280336001600160a01b0316815260200186600881111561561457615614615e69565b815242602080830191909152604091820187905233600090815280825291909120825181546001600160a01b03919091166001600160a01b031982168117835592840151919283916001600160a81b03191617600160a01b83600881111561567e5761567e615e69565b0217905550604082810151600183015560609092015160029091015580516020601f850181900481028201830183528101848152909182919086908690819085018382808284376000920182905250939094525050338152600760205260409020825190915081906156f09082616afd565b5050600b80549150600061570383616bcc565b9190505550336001600160a01b03167f8e18574f8a7333e6a87112742a55853a643e2f0550f4e1a3a2c3f1bb2994441d86604051615741919061611d565b60405180910390a2506001949350505050565b60076020526000908152604090208054819061576f90616a44565b80601f016020809104026020016040519081016040528092919081815260200182805461579b90616a44565b80156157e85780601f106157bd576101008083540402835291602001916157e8565b820191906000526020600020905b8154815290600101906020018083116157cb57829003601f168201915b5050505050905081565b6001600160a01b038116600090815260066020526040812054606091816001600160401b0381111561582657615826615d2e565b60405190808252806020026020018201604052801561585f57816020015b61584c615b95565b8152602001906001900390816158445790505b50905060005b82811015615b45576001600160a01b038516600090815260066020526040812080548390811061589757615897616c1c565b9060005260206000200180546158ac90616a44565b80601f01602080910402602001604051908101604052809291908181526020018280546158d890616a44565b80156159255780601f106158fa57610100808354040283529160200191615925565b820191906000526020600020905b81548152906001019060200180831161590857829003601f168201915b5050505050905060018160405161593c9190616a7e565b90815260408051918290036020908101832060e0840190925281546001600160a01b031683526001820180549184019161597590616a44565b80601f01602080910402602001604051908101604052809291908181526020018280546159a190616a44565b80156159ee5780601f106159c3576101008083540402835291602001916159ee565b820191906000526020600020905b8154815290600101906020018083116159d157829003601f168201915b5050509183525050600282015460209091019060ff166006811115615a1557615a15615e69565b6006811115615a2657615a26615e69565b8152602001600382018054615a3a90616a44565b80601f0160208091040260200160405190810160405280929190818152602001828054615a6690616a44565b8015615ab35780601f10615a8857610100808354040283529160200191615ab3565b820191906000526020600020905b815481529060010190602001808311615a9657829003601f168201915b505050918352505060048201546020820152600582015460409091019060ff166003811115615ae457615ae4615e69565b6003811115615af557615af5615e69565b81526005919091015461010090046001600160a01b03166020909101528351849084908110615b2657615b26616c1c565b6020026020010181905250508080615b3d90616bcc565b915050615865565b509392505050565b60408051610100810182526000808252602082018190526060928201839052909182019081526020016060815260200160008152602001600081526020016000151581525090565b6040805160e08101825260008082526060602083015290918201908152602001606081526020016000815260200160006003811115615bd657615bd6615e69565b8152600060209091015290565b80356001600160a01b03811681146124af57600080fd5b600060208284031215615c0c57600080fd5b615c1582615be3565b9392505050565b6001600160a01b03169052565b60005b83811015615c44578181015183820152602001615c2c565b50506000910152565b60008151808452615c65816020860160208601615c29565b601f01601f19169290920160200192915050565b60006020808301818452808551808352604092508286019150828160051b87010184880160005b83811015615d2057888303603f19018552815180516001600160a01b0390811685528882015116888501528681015160a088860181905290615ce482870182615c4d565b91505060608083015186830382880152615cfe8382615c4d565b6080948501519790940196909652505094870194925090860190600101615ca0565b509098975050505050505050565b634e487b7160e01b600052604160045260246000fd5b600082601f830112615d5557600080fd5b81356001600160401b0380821115615d6f57615d6f615d2e565b604051601f8301601f19908116603f01168101908282118183101715615d9757615d97615d2e565b81604052838152866020858801011115615db057600080fd5b836020870160208301376000602085830101528094505050505092915050565b600080600060608486031215615de557600080fd5b615dee84615be3565b925060208401356001600160401b03811115615e0957600080fd5b615e1586828701615d44565b925050615e2460408501615be3565b90509250925092565b600060208284031215615e3f57600080fd5b81356001600160401b03811115615e5557600080fd5b615e6184828501615d44565b949350505050565b634e487b7160e01b600052602160045260246000fd5b60078110615e8f57615e8f615e69565b9052565b60048110615ea357615ea3615e69565b50565b600060018060a01b03808a16835260e06020840152615ec860e084018a615c4d565b615ed5604085018a615e7f565b8381036060850152615ee78189615c4d565b925050856080840152615ef985615e93565b8460a084015280841660c08401525098975050505050505050565b600080600080600060a08688031215615f2c57600080fd5b615f3586615be3565b945060208601356001600160401b0380821115615f5157600080fd5b615f5d89838a01615d44565b9550604088013594506060880135915080821115615f7a57600080fd5b615f8689838a01615d44565b93506080880135915080821115615f9c57600080fd5b50615fa988828901615d44565b9150509295509295909350565b600061010060018060a01b03808451168552806020850151166020860152506040830151816040860152615fec82860182615c4d565b91505060608301516160016060860182615e7f565b50608083015184820360808601526160198282615c4d565b91505060a083015160a085015260c083015160c085015260e0830151151560e08501528091505092915050565b6000602080830181845280855180835260408601915060408160051b870101925083870160005b8281101561609b57603f19888603018452616089858351615fb6565b9450928501929085019060010161606d565b5092979650505050505050565b6000806000606084860312156160bd57600080fd5b6160c684615be3565b925060208401356001600160401b038111156160e157600080fd5b6160ed86828701615d44565b92505060408401356006811061610257600080fd5b809150509250925092565b60098110615e8f57615e8f615e69565b60208101611be8828461610d565b6000806040838503121561613e57600080fd5b61614783615be3565b915060208301356001600160401b0381111561616257600080fd5b61616e85828601615d44565b9150509250929050565b602081526000615c156020830184615fb6565b6000806000606084860312156161a057600080fd5b6161a984615be3565b925060208401356001600160401b03808211156161c557600080fd5b6161d187838801615d44565b935060408601359150808211156161e757600080fd5b506161f486828701615d44565b9150509250925092565b60006020828403121561621057600080fd5b5035919050565b60068110615e8f57615e8f615e69565b615e8f81615e93565b6001600160a01b038b811682528a16602082015260408101899052610140606082018190526000906162648382018b615c4d565b9150506162746080830189616217565b61627d87615e93565b60a082019690965260c081019490945260e084019290925261010083015215156101209091015295945050505050565b600080604083850312156162c057600080fd5b6162c983615be3565b946020939093013593505050565b6001600160a01b03898116825288166020820152610100604082018190526000906163048382018a615c4d565b90506163136060840189615e7f565b82810360808401526163258188615c4d565b60a0840196909652505060c0810192909252151560e09091015295945050505050565b6000806040838503121561635b57600080fd5b823591506020830135801515811461637257600080fd5b809150509250929050565b6000806040838503121561639057600080fd5b82356001600160401b038111156163a657600080fd5b6163b285828601615d44565b9250506163c160208401615be3565b90509250929050565b600080604083850312156163dd57600080fd5b6163e683615be3565b91506163c160208401615be3565b6001600160a01b0386811682528516602082015260a06040820181905260009061642090830186615c4d565b82810360608401526164328186615c4d565b9150508260808301529695505050505050565b8881526001600160a01b0388166020820152610100604082018190526000906164708382018a615c4d565b9050876060840152828103608084015261648a8188615c4d565b905082810360a084015261649e8187615c4d565b90508460c084015282810360e08401526164b88185615c4d565b9b9a5050505050505050505050565b6001600160a01b03898116825288166020820152610100604082018190526000906164f48382018a615c4d565b60608401989098525050608081019490945260a0840192909252151560c083015260ff1660e0909101529392505050565b60006020808301818452808551808352604092508286019150828160051b87010184880160005b83811015615d2057603f19898403018552815161014061656d858351615c1c565b8882015161657d8a870182615c1c565b508782015188860152606080830151828288015261659d83880182615c4d565b925050506080808301516165b382880182616217565b505060a0808301516165c782880182616227565b505060c0828101519086015260e0808301519086015261010080830151908601526101209182015115159190940152938601939086019060010161654c565b602081526000615c156020830184615c4d565b60006020808301818452808551808352604092508286019150828160051b87010184880160005b83811015615d2057603f198984030185528151610100815185528882015161666a8a870182615c1c565b5087820151818987015261668082870182615c4d565b9150506060808301518187015250608080830151868303828801526166a58382615c4d565b9250505060a080830151868303828801526166c08382615c4d565b9250505060c080830151818701525060e080830151925085820381870152506166e98183615c4d565b968901969450505090860190600101616640565b8035600781106124af57600080fd5b600080600080600080600060e0888a03121561672757600080fd5b61673088615be3565b965061673e60208901615be3565b955060408801356001600160401b038082111561675a57600080fd5b6167668b838c01615d44565b965061677460608b016166fd565b955060808a013591508082111561678a57600080fd5b506167978a828b01615d44565b93505060a0880135915060c0880135905092959891949750929550565b6001600160a01b0385168152608081016167d1602083018661610d565b60408201939093526060015292915050565b600080600080608085870312156167f957600080fd5b61680285615be3565b935060208501356001600160401b038082111561681e57600080fd5b61682a88838901615d44565b9450616838604088016166fd565b9350606087013591508082111561684e57600080fd5b5061685b87828801615d44565b91505092959194509250565b60008083601f84011261687957600080fd5b5081356001600160401b0381111561689057600080fd5b6020830191508360208285010111156168a857600080fd5b9250929050565b600080600080606085870312156168c557600080fd5b84356001600160401b03808211156168dc57600080fd5b6168e888838901615d44565b95506168f6602088016166fd565b9450604087013591508082111561690c57600080fd5b5061691987828801616867565b95989497509550505050565b6000806000806060858703121561693b57600080fd5b84356009811061694a57600080fd5b93506020850135925060408501356001600160401b0381111561696c57600080fd5b61691987828801616867565b60006020808301818452808551808352604092508286019150828160051b87010184880160005b83811015615d2057888303603f19018552815180516001600160a01b0390811685528882015160e08a870181905291906169db83880182615c4d565b925050888301516169ee8a880182615e7f565b5060608084015187840382890152616a068482615c4d565b93505050608080840151818801525060a080840151616a2481615e93565b9087015260c092830151169190940152938601939086019060010161699f565b600181811c90821680616a5857607f821691505b602082108103616a7857634e487b7160e01b600052602260045260246000fd5b50919050565b60008251616a90818460208701615c29565b9190910192915050565b601f8211156126d857600081815260208120601f850160051c81016020861015616ac15750805b601f850160051c820191505b81811015616ae057828155600101616acd565b505050505050565b600019600383901b1c191660019190911b1790565b81516001600160401b03811115616b1657616b16615d2e565b616b2a81616b248454616a44565b84616a9a565b602080601f831160018114616b595760008415616b475750858301515b616b518582616ae8565b865550616ae0565b600085815260208120601f198616915b82811015616b8857888601518255948401946001909101908401616b69565b5085821015616ba65787850151600019600388901b60f8161c191681555b5050505050600190811b01905550565b634e487b7160e01b600052601160045260246000fd5b600060018201616bde57616bde616bb6565b5060010190565b6020808252601d908201527f496e76616c696420636172652070726f76696465722061646472657373000000604082015260600190565b634e487b7160e01b600052603260045260246000fd5b6000808354616c4081616a44565b60018281168015616c585760018114616c6d57616c9c565b60ff1984168752821515830287019450616c9c565b8760005260208060002060005b85811015616c935781548a820152908401908201616c7a565b50505082870194505b50929695505050505050565b602080825260159082015274149958dbdc9908191bd95cc81b9bdd08195e1a5cdd605a1b604082015260600190565b602080825260159082015274496e76616c6964206f776e6572206164647265737360581b604082015260600190565b60609190911b6001600160601b031916815260140190565b60208082526014908201527324b73b30b634b2103932b1b7b9321037bbb732b960611b604082015260600190565b6001600160601b0319606086811b8216835285901b1660148201528251600090616d7d816028850160208801615c29565b6028920191820192909252604801949350505050565b80820180821115611be857611be8616bb6565b60208082526028908201527f4f6e6c792073797374656d206f776e65722063616e2063616c6c207468697320604082015267333ab731ba34b7b760c11b606082015260800190565b606081526000616e016060830186615c4d565b8281036020840152616e138186615c4d565b915050826040830152949350505050565b602080825260179082015276496e76616c69642070617469656e74206164647265737360481b604082015260600190565b6001600160601b0319606094851b811682529290931b9091166014830152602882015260480190565b818103616e89575050565b616e938254616a44565b6001600160401b03811115616eaa57616eaa615d2e565b616eb881616b248454616a44565b6000601f821160018114616ee65760008315616ed45750848201545b616ede8482616ae8565b8555506126bf565b600085815260209020601f19841690600086815260209020845b83811015616f205782860154825560019586019590910190602001616f00565b5085831015616ba65793015460001960f8600387901b161c19169092555050600190811b01905550565b60208101616f5783615e93565b91905290565b602080825260169082015275496e76616c696420726571756573742073746174757360501b604082015260600190565b6020808252600f908201526e14995c5d595cdd08195e1c1a5c9959608a1b604082015260600190565b60c081526000616fc960c0830189615c4d565b616fd66020840189615e7f565b8281036040840152616fe88188615c4d565b606084019690965250506080810192909252151560a0909101529392505050565b6020808252601590820152745265636f726420616c72656164792065786973747360581b604082015260600190565b60208101611be88284615e7f56febb7b4a454dc3493923482f07822329ed19e8244eff582cc204f8554c3620c3fdef6ee312a0062a24a46be2eba5284183a87ff848110e8d4df979bd690d9e9f689a387978508c64b67d0ec39e75dc556f96f10430d94187ba4507c6dcd34cf329f9d13605c61f1ac6df0d817534f347f021b0fd7d8aa2e3ae8374001858cf825aa2646970667358221220b1a55473e6c775daf3498262e4a7570ead5ef02cfd9dee59174a66195b39cee264736f6c63430008130033",
  "immutableReferences": {},
  "source": "// SPDX-License-Identifier: MIT\r\npragma solidity ^0.8.0;\r\n\r\nimport \"./EHRStorage.sol\";\r\n\r\ncontract EHRmain is EHRStorage {\r\n    // Modifiers\r\n    modifier onlySystemOwner() {\r\n        require(msg.sender == systemOwner, \"Only system owner can call this function\");\r\n        _;\r\n    }\r\n\r\n    modifier onlyProvider() {\r\n        require(\r\n            users[msg.sender].role == Role.DOCTOR ||\r\n            users[msg.sender].role == Role.HOSPITAL ||\r\n            users[msg.sender].role == Role.LAB,\r\n            \"Only healthcare providers can call this function\"\r\n        );\r\n        _;\r\n    }\r\n    \r\n    modifier onlyHospital() {\r\n        require(users[msg.sender].role == Role.HOSPITAL, \"Only hospitals can perform this action\");\r\n        _;\r\n    }\r\n\r\n    modifier onlyPatient() {\r\n        require(users[msg.sender].role == Role.PATIENT, \"Only patients can call this function\");\r\n        _;\r\n    }\r\n\r\n    modifier recordExists(string memory _ipfsCid) {\r\n        require(healthRecords[_ipfsCid].owner != address(0), \"Record does not exist\");\r\n        _;\r\n    }\r\n\r\n    modifier onlyAmbulance() {\r\n        require(users[msg.sender].role == Role.AMBULANCE, \"Only ambulance services can call this function\");\r\n        _;\r\n    }\r\n\r\n    // Constructor\r\n    constructor() {\r\n        systemOwner = msg.sender;\r\n        totalUsers = 0;\r\n        totalRecords = 0;\r\n        totalRequests = 0;\r\n    }\r\n\r\n    // Registry Contract Functions\r\n    function registerUser(\r\n        Role _role,\r\n        bytes32 _publicKeyHash,\r\n        string calldata _publicKeyForEncryption\r\n    ) external returns (bool) {\r\n        require(users[msg.sender].userAddress == address(0), \"User already registered\");\r\n        require(_role != Role.NONE, \"Invalid role\");\r\n        require(\r\n            _role == Role.PATIENT ||\r\n            _role == Role.DOCTOR ||\r\n            _role == Role.RESEARCHER ||\r\n            _role == Role.HOSPITAL ||\r\n            _role == Role.INSURANCE ||\r\n            _role == Role.AMBULANCE ||\r\n            _role == Role.PHARMACY ||\r\n            _role == Role.LAB,\r\n            \"Invalid role type\"\r\n        );\r\n\r\n        users[msg.sender] = User({\r\n            userAddress: msg.sender,\r\n            role: _role,\r\n            registrationDate: block.timestamp,\r\n            publicKeyHash: _publicKeyHash\r\n        });\r\n\r\n        userKeys[msg.sender] = KeyPair({\r\n            publicKeyForEncryption: _publicKeyForEncryption\r\n        });\r\n\r\n        totalUsers++;\r\n        emit UserRegistered(msg.sender, _role);\r\n        return true;\r\n    }\r\n\r\n    function getKeyPair(address userAddress) external view returns (string memory) {\r\n        require(users[userAddress].userAddress != address(0), \"User not registered\");\r\n        KeyPair memory keys = userKeys[userAddress];\r\n        return (keys.publicKeyForEncryption);\r\n    }\r\n\r\n    function checkUser(address _userAddress) public view returns (Role) {\r\n        return users[_userAddress].role;\r\n    }\r\n\r\n    function addEHRData(\r\n        address _patientAddress,\r\n        string memory _ipfsCid,\r\n        DataType _dataType,\r\n        string memory _encryptedSymmetricKey\r\n    ) external onlyProvider returns (bool) {\r\n        require(_patientAddress != address(0), \"Invalid patient address\");\r\n        require(bytes(healthRecords[_ipfsCid].ipfsCid).length == 0, \"Record already exists\");\r\n\r\n        Role patientRole = checkUser(_patientAddress);\r\n        require(patientRole == Role.PATIENT, \"Invalid patient\");\r\n\r\n        RecordStatus initialStatus = (_dataType == DataType.PRESCRIPTION) ? RecordStatus.PENDING : RecordStatus.VALID;\r\n\r\n        healthRecords[_ipfsCid] = HealthRecord({\r\n            owner: _patientAddress,\r\n            ipfsCid: _ipfsCid,\r\n            dataType: _dataType,\r\n            encryptedSymmetricKey: _encryptedSymmetricKey,\r\n            timestamp: block.timestamp,\r\n            status: initialStatus,\r\n            provider: msg.sender\r\n        });\r\n\r\n        ownerToHealthRecords[_patientAddress].push(_ipfsCid);\r\n\r\n        totalRecords++;\r\n        emit HealthRecordAdded(_ipfsCid, _patientAddress, _dataType);\r\n        return true;\r\n    }\r\n\r\n    function addPHRData(\r\n        string memory _ipfsCid,\r\n        DataType _dataType,\r\n        string calldata _encryptedSymmetricKey\r\n    ) external onlyPatient returns (bool) {\r\n        require(bytes(healthRecords[_ipfsCid].ipfsCid).length == 0, \"Record already exists\");\r\n\r\n        RecordStatus initialStatus = (_dataType == DataType.PRESCRIPTION) ? RecordStatus.PENDING : RecordStatus.VALID;\r\n\r\n        healthRecords[_ipfsCid] = HealthRecord({\r\n            owner: msg.sender,\r\n            ipfsCid: _ipfsCid,\r\n            dataType: _dataType,\r\n            encryptedSymmetricKey: _encryptedSymmetricKey,\r\n            timestamp: block.timestamp,\r\n            status: initialStatus,\r\n            provider: msg.sender\r\n        });\r\n\r\n        ownerToHealthRecords[msg.sender].push(_ipfsCid);\r\n\r\n        totalRecords++;\r\n        emit HealthRecordAdded(_ipfsCid, msg.sender, _dataType);\r\n        return true;\r\n    }\r\n\r\n    function addApprovedRecord(\r\n        address _owner,\r\n        address _careProvider,\r\n        string memory _ipfsCid,\r\n        DataType _dataType,\r\n        string memory _encryptedSymmetricKey,\r\n        uint256 _approvedDate,\r\n        uint256 _expiryDate\r\n    ) public {\r\n        require(_owner != address(0), \"Invalid owner address\");\r\n        require(_careProvider != address(0), \"Invalid care provider address\");\r\n        require(bytes(_ipfsCid).length > 0, \"IPFS CID cannot be empty\");\r\n        require(_approvedDate <= block.timestamp, \"Approved date cannot be in the future\");\r\n        require(_expiryDate > _approvedDate, \"Expiry date must be after approved date\");\r\n\r\n        approvedRecord memory newRecord = approvedRecord({\r\n            owner: _owner,\r\n            careProvider: _careProvider,\r\n            ipfsCid: _ipfsCid,\r\n            dataType: _dataType,\r\n            encryptedSymmetricKey: _encryptedSymmetricKey,\r\n            approvedDate: block.timestamp,\r\n            expiryDate: _expiryDate,\r\n            status: true\r\n        });\r\n\r\n        approvedRecords[_careProvider].push(newRecord);\r\n        approvedRecordsByID[_ipfsCid] = newRecord;\r\n\r\n        emit ApprovedRecordAdded(\r\n            _owner,\r\n            _careProvider,\r\n            _ipfsCid,\r\n            _dataType,\r\n            _encryptedSymmetricKey,\r\n            _approvedDate,\r\n            _expiryDate,\r\n            true\r\n        );\r\n    }\r\n\r\n    function requestNonIncentiveBasedPermission(\r\n        address _owner,\r\n        string memory _ipfsCid,\r\n        PermissionType _permissionType\r\n    ) external recordExists(_ipfsCid) returns (bytes32) {\r\n        require(_owner != address(0), \"Invalid owner address\");\r\n        require(\r\n            keccak256(abi.encodePacked(healthRecords[_ipfsCid].owner)) ==\r\n                keccak256(abi.encodePacked(_owner)),\r\n            \"Invalid record owner\"\r\n        );\r\n\r\n        bytes32 requestId = keccak256(\r\n            abi.encodePacked(msg.sender, _owner, _ipfsCid, block.timestamp)\r\n        );\r\n\r\n        permissionRequests[requestId] = PermissionRequest({\r\n            requester: msg.sender,\r\n            owner: _owner,\r\n            requestId: requestId,\r\n            ipfsCid: _ipfsCid,\r\n            permissionType: _permissionType,\r\n            status: RequestStatus.PENDING,\r\n            requestDate: block.timestamp,\r\n            expiryDate: block.timestamp + 30 days,\r\n            incentiveAmount: 0,\r\n            isIncentiveBased: false\r\n        });\r\n\r\n        totalRequests++;\r\n        emit PermissionRequested(requestId, msg.sender, _owner);\r\n        permissionRequestIds.push(requestId);\r\n        return requestId;\r\n    }\r\n\r\n    function requestIncentiveBasedPermission(\r\n        address _owner,\r\n        string memory _ipfsCid,\r\n        PermissionType _permissionType\r\n    ) external payable recordExists(_ipfsCid) returns (bytes32) {\r\n        require(_owner != address(0), \"Invalid owner address\");\r\n        require(msg.value > 0, \"Incentive amount required\");\r\n        require(\r\n            keccak256(abi.encodePacked(healthRecords[_ipfsCid].owner)) ==\r\n                keccak256(abi.encodePacked(_owner)),\r\n            \"Invalid record owner\"\r\n        );\r\n\r\n        bytes32 requestId = keccak256(\r\n            abi.encodePacked(msg.sender, _owner, _ipfsCid, block.timestamp)\r\n        );\r\n\r\n        permissionRequests[requestId] = PermissionRequest({\r\n            requester: msg.sender,\r\n            owner: _owner,\r\n            requestId: requestId,\r\n            ipfsCid: _ipfsCid,\r\n            permissionType: _permissionType,\r\n            status: RequestStatus.PENDING,\r\n            requestDate: block.timestamp,\r\n            expiryDate: block.timestamp + 30 days,\r\n            incentiveAmount: msg.value,\r\n            isIncentiveBased: true\r\n        });\r\n\r\n        totalRequests++;\r\n        emit PermissionRequested(requestId, msg.sender, _owner);\r\n        permissionRequestIds.push(requestId);\r\n        return requestId;\r\n    }\r\n\r\n    function getPendingRequestsForPatient(address patient) external view returns (PermissionRequest[] memory) {\r\n        uint256 count = 0;\r\n        for (uint256 i = 0; i < permissionRequestIds.length; i++) {\r\n            bytes32 requestId = permissionRequestIds[i];\r\n            PermissionRequest storage request = permissionRequests[requestId];\r\n            if (request.owner == patient) {\r\n                count++;\r\n            }\r\n        }\r\n\r\n        PermissionRequest[] memory pendingRequests = new PermissionRequest[](count);\r\n        uint256 index = 0;\r\n        for (uint256 i = 0; i < permissionRequestIds.length; i++) {\r\n            bytes32 requestId = permissionRequestIds[i];\r\n            PermissionRequest storage request = permissionRequests[requestId];\r\n            if (request.owner == patient) {\r\n                pendingRequests[index] = request;\r\n                index++;\r\n            }\r\n        }\r\n        return pendingRequests;\r\n    }\r\n\r\n    function approvePermission(bytes32 _requestId) external returns (bool) {\r\n        PermissionRequest storage request = permissionRequests[_requestId];\r\n        require(request.owner == msg.sender, \"Only owner can approve\");\r\n        require(request.status == RequestStatus.PENDING, \"Invalid request status\");\r\n        require(block.timestamp <= request.expiryDate, \"Request expired\");\r\n\r\n        request.status = RequestStatus.APPROVED;\r\n        permissions[request.owner][request.ipfsCid][request.requester] = true;\r\n\r\n        if (request.isIncentiveBased) {\r\n            payable(request.owner).transfer(request.incentiveAmount);\r\n        }\r\n\r\n        emit PermissionGranted(_requestId, request.requester, request.owner);\r\n        return true;\r\n    }\r\n\r\n    function revokePermission(string memory _ipfsCid, address _user) \r\n        external \r\n        recordExists(_ipfsCid) \r\n        returns (bool) \r\n    {\r\n        require(\r\n            msg.sender == healthRecords[_ipfsCid].owner || msg.sender == _user || msg.sender == systemOwner,\r\n            \"Not authorized to revoke this permission\"\r\n        );\r\n        \r\n        permissions[healthRecords[_ipfsCid].owner][_ipfsCid][_user] = false;\r\n\r\n        for (uint i = 0; i < approvedRecords[_user].length; i++) {\r\n            if (keccak256(abi.encodePacked(approvedRecords[_user][i].ipfsCid)) == keccak256(abi.encodePacked(_ipfsCid))) {\r\n                approvedRecords[_user][i].status = false;\r\n                break;\r\n            }\r\n        }\r\n        \r\n        emit PermissionRevoked(_ipfsCid, _user);\r\n        return true;\r\n    }\r\n\r\n    function getHealthRecordsByOwner(address userAddress) public view returns (HealthRecord[] memory) {\r\n        uint256 totalRecordsForOwner = ownerToHealthRecords[userAddress].length;\r\n        HealthRecord[] memory records = new HealthRecord[](totalRecordsForOwner);\r\n        for (uint256 i = 0; i < totalRecordsForOwner; i++) {\r\n            string memory ipfsCid = ownerToHealthRecords[userAddress][i];\r\n            records[i] = healthRecords[ipfsCid];\r\n        }\r\n        return records;\r\n    }\r\n\r\n    function getHealthRecordByIpfs(string memory recordId)\r\n        public\r\n        view\r\n        returns (\r\n            address owner,\r\n            string memory ipfsCid,\r\n            DataType dataType,\r\n            string memory encryptedSymmetricKey,\r\n            uint256 timestamp,\r\n            RecordStatus status,\r\n            address provider\r\n        )\r\n    {\r\n        HealthRecord memory record = healthRecords[recordId];\r\n        return (\r\n            record.owner,\r\n            record.ipfsCid,\r\n            record.dataType,\r\n            record.encryptedSymmetricKey,\r\n            record.timestamp,\r\n            record.status,\r\n            record.provider\r\n        );\r\n    }\r\n\r\n    function getRecordsByCareProvider(address _careProvider)\r\n        public\r\n        view\r\n        returns (approvedRecord[] memory)\r\n    {\r\n        require(_careProvider != address(0), \"Invalid care provider address\");\r\n\r\n        uint256 pendingPrescriptionCount = 0;\r\n        for (uint i = 0; i < approvedRecords[_careProvider].length; i++) {\r\n            approvedRecord storage ar = approvedRecords[_careProvider][i];\r\n            HealthRecord storage hr = healthRecords[ar.ipfsCid];\r\n            if (ar.status == true && hr.dataType == DataType.PRESCRIPTION && hr.status == RecordStatus.PENDING) {\r\n                pendingPrescriptionCount++;\r\n            }\r\n        }\r\n\r\n        approvedRecord[] memory pendingPrescriptions = new approvedRecord[](pendingPrescriptionCount);\r\n        uint256 index = 0;\r\n        for (uint j = 0; j < approvedRecords[_careProvider].length; j++) {\r\n            approvedRecord storage ar = approvedRecords[_careProvider][j];\r\n            HealthRecord storage hr = healthRecords[ar.ipfsCid];\r\n            if (ar.status == true && hr.dataType == DataType.PRESCRIPTION && hr.status == RecordStatus.PENDING) {\r\n                pendingPrescriptions[index] = ar;\r\n                index++;\r\n            }\r\n        }\r\n        return pendingPrescriptions;\r\n    }\r\n\r\n    function getRecordsForResearcher(address requester, string memory recordId) \r\n        public \r\n        view \r\n        returns (approvedRecord memory) \r\n    {\r\n        require(requester != address(0), \"Invalid address\");\r\n        require(users[requester].role == Role.RESEARCHER, \"Only researchers can access this function\");\r\n\r\n        approvedRecord memory record = approvedRecordsByID[recordId];\r\n        require(record.status, \"Record is not active\");\r\n        require(block.timestamp <= record.expiryDate, \"Access has expired\");\r\n        return record;\r\n    }\r\n\r\n    function invalidateRecord(string memory _ipfsCid)\r\n        external\r\n        recordExists(_ipfsCid)\r\n        onlySystemOwner\r\n    {\r\n        healthRecords[_ipfsCid].status = RecordStatus.INVALID;\r\n    }\r\n\r\n    function getPermissionRequest(bytes32 requestId)\r\n        public\r\n        view\r\n        returns (\r\n            address requester,\r\n            address owner,\r\n            string memory ipfsCid,\r\n            uint256 requestDate,\r\n            uint256 expiryDate,\r\n            uint256 incentiveAmount,\r\n            bool isIncentiveBased,\r\n            uint8 status\r\n        )\r\n    {\r\n        PermissionRequest storage request = permissionRequests[requestId];\r\n        return (\r\n            request.requester,\r\n            request.owner,\r\n            request.ipfsCid,\r\n            request.requestDate,\r\n            request.expiryDate,\r\n            request.incentiveAmount,\r\n            request.isIncentiveBased,\r\n            uint8(request.status)\r\n        );\r\n    }\r\n\r\n    function emergencyAccess(address _patientAddress) external onlyAmbulance returns (bool) {\r\n        require(users[_patientAddress].role == Role.PATIENT, \"Invalid patient address\");\r\n        \r\n        bytes32 requestId = keccak256(\r\n            abi.encodePacked(msg.sender, _patientAddress, block.timestamp)\r\n        );\r\n\r\n        permissionRequests[requestId] = PermissionRequest({\r\n            requestId: requestId,\r\n            requester: msg.sender,\r\n            owner: _patientAddress,\r\n            ipfsCid: \"\",\r\n            permissionType: PermissionType.EMERGENCY_ACCESS,\r\n            status: RequestStatus.APPROVED,\r\n            requestDate: block.timestamp,\r\n            expiryDate: block.timestamp + 24 hours,\r\n            incentiveAmount: 0,\r\n            isIncentiveBased: false\r\n        });\r\n\r\n        emergencyAccesses[msg.sender][_patientAddress] = true;\r\n        emit EmergencyAccess(msg.sender, _patientAddress, block.timestamp);\r\n        return true;\r\n    }\r\n\r\n    function checkEmergencyAccess(address _ambulance, address _patient) \r\n        public \r\n        view \r\n        returns (bool) \r\n    {\r\n        return emergencyAccesses[_ambulance][_patient];\r\n    }\r\n\r\n    function revokeEmergencyAccess(address _ambulance, address _patient) \r\n        external \r\n        onlySystemOwner \r\n        returns (bool) \r\n    {\r\n        require(emergencyAccesses[_ambulance][_patient], \"No emergency access exists\");\r\n        emergencyAccesses[_ambulance][_patient] = false;\r\n        return true;\r\n    }\r\n\r\n    function requestBatchAccess(address _owner) external returns (bytes32) {\r\n        require(_owner != address(0), \"Invalid owner address\");\r\n        require(users[_owner].role == Role.PATIENT, \"Owner must be a patient\");\r\n        \r\n        bytes32 requestId = keccak256(\r\n            abi.encodePacked(msg.sender, _owner, block.timestamp)\r\n        );\r\n        \r\n        permissionRequests[requestId] = PermissionRequest({\r\n            requester: msg.sender,\r\n            owner: _owner,\r\n            requestId: requestId,\r\n            ipfsCid: \"\",\r\n            permissionType: PermissionType.VIEW,\r\n            status: RequestStatus.PENDING,\r\n            requestDate: block.timestamp,\r\n            expiryDate: block.timestamp + 30 days,\r\n            incentiveAmount: 0,\r\n            isIncentiveBased: false\r\n        });\r\n        \r\n        totalRequests++;\r\n        emit PermissionRequested(requestId, msg.sender, _owner);\r\n        permissionRequestIds.push(requestId);\r\n        return requestId;\r\n    }\r\n\r\n    function approveBatchAccess(bytes32 _requestId) external returns (bool) {\r\n        require(permissionRequests[_requestId].owner == msg.sender, \"Only the owner can approve\");\r\n        require(permissionRequests[_requestId].status == RequestStatus.PENDING, \"Invalid request status\");\r\n        require(block.timestamp <= permissionRequests[_requestId].expiryDate, \"Request expired\");\r\n\r\n        permissionRequests[_requestId].status = RequestStatus.APPROVED;\r\n        \r\n        string[] memory patientRecords = ownerToHealthRecords[msg.sender];\r\n        for (uint i = 0; i < patientRecords.length; i++) {\r\n            permissions[msg.sender][patientRecords[i]][permissionRequests[_requestId].requester] = true;\r\n            \r\n            HealthRecord memory record = healthRecords[patientRecords[i]];\r\n            addApprovedRecord(\r\n                msg.sender,\r\n                permissionRequests[_requestId].requester,\r\n                patientRecords[i],\r\n                record.dataType,\r\n                record.encryptedSymmetricKey,\r\n                block.timestamp,\r\n                permissionRequests[_requestId].expiryDate\r\n            );\r\n        }\r\n\r\n        emit PermissionGranted(_requestId, permissionRequests[_requestId].requester, msg.sender);\r\n        return true;\r\n    }\r\n\r\n    function bookAppointment(\r\n        address _patientAddress,\r\n        string memory _hospitalName,\r\n        string memory _roomType\r\n    ) external onlyHospital {\r\n        require(users[_patientAddress].userAddress != address(0), \"Patient is not registered\");\r\n\r\n        Appointment memory newAppointment = Appointment({\r\n            patientAddress: _patientAddress,\r\n            hospitalAddress: msg.sender,\r\n            hospitalName: _hospitalName,\r\n            roomType: _roomType,\r\n            bookingDate: block.timestamp\r\n        });\r\n\r\n        patientAppointments[_patientAddress].push(newAppointment);\r\n\r\n        emit AppointmentBooked(\r\n            _patientAddress,\r\n            msg.sender,\r\n            _hospitalName,\r\n            _roomType,\r\n            block.timestamp\r\n        );\r\n    }\r\n\r\n    function getAppointmentsByPatient(address _patientAddress)\r\n        external\r\n        view\r\n        returns (Appointment[] memory)\r\n    {\r\n        require(\r\n            msg.sender == _patientAddress || users[msg.sender].role == Role.HOSPITAL,\r\n            \"Not authorized to view appointments\"\r\n        );\r\n        return patientAppointments[_patientAddress];\r\n    }\r\n\r\n    function processPrescription(string memory _ipfsCid) external recordExists(_ipfsCid) {\r\n        HealthRecord storage recordToUpdate = healthRecords[_ipfsCid];\r\n\r\n        require(users[msg.sender].role == Role.PHARMACY, \"Caller is not a pharmacy\");\r\n        require(recordToUpdate.dataType == DataType.PRESCRIPTION, \"Not a prescription\");\r\n        require(recordToUpdate.status == RecordStatus.PENDING, \"Not a pending prescription\");\r\n        require(permissions[recordToUpdate.owner][_ipfsCid][msg.sender], \"Pharmacy does not have access\");\r\n\r\n        recordToUpdate.status = RecordStatus.COMPLETED;\r\n\r\n        emit RecordStatusUpdated(_ipfsCid, RecordStatus.COMPLETED);\r\n    }\r\n\r\n    struct InsuranceClaim {\r\n        uint256 claimId;\r\n        address patient;\r\n        string plan;\r\n        uint256 amount;\r\n        string description;\r\n        string status; // \"Pending\", \"Approved\", \"Rejected\"\r\n        uint256 timestamp;\r\n        string ipfsHash; // For uploaded insurance paper\r\n    }\r\n\r\n    mapping(address => InsuranceClaim[]) public insuranceClaims;\r\n    InsuranceClaim[] public allInsuranceClaims;\r\n    uint256 public nextClaimId = 1;\r\n\r\n    // Patient submits insurance claim\r\n    function addInsuranceClaim(\r\n        address patient,\r\n        string memory plan,\r\n        uint256 amount,\r\n        string memory description,\r\n        string memory ipfsHash\r\n    ) public {\r\n        InsuranceClaim memory claim = InsuranceClaim({\r\n            claimId: nextClaimId,\r\n            patient: patient,\r\n            plan: plan,\r\n            amount: amount,\r\n            description: description,\r\n            status: \"Pending\",\r\n            timestamp: block.timestamp,\r\n            ipfsHash: ipfsHash\r\n        });\r\n        insuranceClaims[patient].push(claim);\r\n        allInsuranceClaims.push(claim);\r\n        nextClaimId++;\r\n    }\r\n\r\n    // Get claims for a patient\r\n    function getInsuranceClaims(address patient) public view returns (InsuranceClaim[] memory) {\r\n        return insuranceClaims[patient];\r\n    }\r\n\r\n    // Get all claims (for insurance dashboard)\r\n    function getAllInsuranceClaims() public view returns (InsuranceClaim[] memory) {\r\n        return allInsuranceClaims;\r\n    }\r\n\r\n    // Approve/reject claim (by insurance provider)\r\n    function processInsuranceClaim(uint256 claimId, bool approve) public {\r\n        for (uint256 i = 0; i < allInsuranceClaims.length; i++) {\r\n            if (allInsuranceClaims[i].claimId == claimId) {\r\n                if (approve) {\r\n                    allInsuranceClaims[i].status = \"Approved\";\r\n                } else {\r\n                    allInsuranceClaims[i].status = \"Rejected\";\r\n                }\r\n                address patient = allInsuranceClaims[i].patient;\r\n                for (uint256 j = 0; j < insuranceClaims[patient].length; j++) {\r\n                    if (insuranceClaims[patient][j].claimId == claimId) {\r\n                        insuranceClaims[patient][j].status = allInsuranceClaims[i].status;\r\n                    }\r\n                }\r\n                break;\r\n            }\r\n        }\r\n    }\r\n}",
  "sourcePath": "C:\\Personal Project\\DigiArogya1.0\\DigiArogya\\contract\\contracts\\EHRmain.sol",
  "compiler": {
    "name": "solc",
    "version": "0.8.19+commit.7dd6d404.Emscripten.clang"
  },
  "schemaVersion": "3.4.16",
  "updatedAt": "2025-08-16T09:48:10.244Z",
  "devdoc": {
    "kind": "dev",
    "methods": {},
    "version": 1
  },
  "userdoc": {
    "kind": "user",
    "methods": {},
    "version": 1
  }
}