{
  "contractName": "EHRmain",
  "abi": [
    {
      "inputs": [],
      "stateMutability": "nonpayable",
      "type": "constructor"
    },
    {
      "anonymous": false,
      "inputs": [
        {
          "indexed": true,
          "internalType": "address",
          "name": "owner",
          "type": "address"
        },
        {
          "indexed": true,
          "internalType": "address",
          "name": "careProvider",
          "type": "address"
        },
        {
          "indexed": false,
          "internalType": "string",
          "name": "ipfsCid",
          "type": "string"
        },
        {
          "indexed": false,
          "internalType": "enum EHRmain.DataType",
          "name": "dataType",
          "type": "uint8"
        },
        {
          "indexed": false,
          "internalType": "string",
          "name": "encryptedSymmetricKey",
          "type": "string"
        },
        {
          "indexed": false,
          "internalType": "uint256",
          "name": "approvedDate",
          "type": "uint256"
        },
        {
          "indexed": false,
          "internalType": "uint256",
          "name": "expiryDate",
          "type": "uint256"
        },
        {
          "indexed": false,
          "internalType": "bool",
          "name": "status",
          "type": "bool"
        }
      ],
      "name": "ApprovedRecordAdded",
      "type": "event"
    },
    {
      "anonymous": false,
      "inputs": [
        {
          "indexed": true,
          "internalType": "address",
          "name": "provider",
          "type": "address"
        },
        {
          "indexed": true,
          "internalType": "address",
          "name": "patient",
          "type": "address"
        },
        {
          "indexed": false,
          "internalType": "uint256",
          "name": "timestamp",
          "type": "uint256"
        }
      ],
      "name": "EmergencyAccess",
      "type": "event"
    },
    {
      "anonymous": false,
      "inputs": [
        {
          "indexed": true,
          "internalType": "string",
          "name": "ipfsCid",
          "type": "string"
        },
        {
          "indexed": true,
          "internalType": "address",
          "name": "owner",
          "type": "address"
        },
        {
          "indexed": false,
          "internalType": "enum EHRmain.DataType",
          "name": "dataType",
          "type": "uint8"
        }
      ],
      "name": "HealthRecordAdded",
      "type": "event"
    },
    {
      "anonymous": false,
      "inputs": [
        {
          "indexed": false,
          "internalType": "bytes32",
          "name": "requestId",
          "type": "bytes32"
        },
        {
          "indexed": true,
          "internalType": "address",
          "name": "requester",
          "type": "address"
        },
        {
          "indexed": true,
          "internalType": "address",
          "name": "owner",
          "type": "address"
        }
      ],
      "name": "PermissionGranted",
      "type": "event"
    },
    {
      "anonymous": false,
      "inputs": [
        {
          "indexed": false,
          "internalType": "bytes32",
          "name": "requestId",
          "type": "bytes32"
        },
        {
          "indexed": true,
          "internalType": "address",
          "name": "requester",
          "type": "address"
        },
        {
          "indexed": true,
          "internalType": "address",
          "name": "owner",
          "type": "address"
        }
      ],
      "name": "PermissionRequested",
      "type": "event"
    },
    {
      "anonymous": false,
      "inputs": [
        {
          "indexed": true,
          "internalType": "string",
          "name": "ipfsCid",
          "type": "string"
        },
        {
          "indexed": true,
          "internalType": "address",
          "name": "revokedUser",
          "type": "address"
        }
      ],
      "name": "PermissionRevoked",
      "type": "event"
    },
    {
      "anonymous": false,
      "inputs": [
        {
          "indexed": true,
          "internalType": "address",
          "name": "userAddress",
          "type": "address"
        },
        {
          "indexed": false,
          "internalType": "enum EHRmain.Role",
          "name": "role",
          "type": "uint8"
        }
      ],
      "name": "UserRegistered",
      "type": "event"
    },
    {
      "inputs": [
        {
          "internalType": "address",
          "name": "",
          "type": "address"
        },
        {
          "internalType": "uint256",
          "name": "",
          "type": "uint256"
        }
      ],
      "name": "approvedRecords",
      "outputs": [
        {
          "internalType": "address",
          "name": "owner",
          "type": "address"
        },
        {
          "internalType": "address",
          "name": "careProvider",
          "type": "address"
        },
        {
          "internalType": "string",
          "name": "ipfsCid",
          "type": "string"
        },
        {
          "internalType": "enum EHRmain.DataType",
          "name": "dataType",
          "type": "uint8"
        },
        {
          "internalType": "string",
          "name": "encryptedSymmetricKey",
          "type": "string"
        },
        {
          "internalType": "uint256",
          "name": "approvedDate",
          "type": "uint256"
        },
        {
          "internalType": "uint256",
          "name": "expiryDate",
          "type": "uint256"
        },
        {
          "internalType": "bool",
          "name": "status",
          "type": "bool"
        }
      ],
      "stateMutability": "view",
      "type": "function"
    },
    {
      "inputs": [
        {
          "internalType": "string",
          "name": "",
          "type": "string"
        }
      ],
      "name": "approvedRecordsByID",
      "outputs": [
        {
          "internalType": "address",
          "name": "owner",
          "type": "address"
        },
        {
          "internalType": "address",
          "name": "careProvider",
          "type": "address"
        },
        {
          "internalType": "string",
          "name": "ipfsCid",
          "type": "string"
        },
        {
          "internalType": "enum EHRmain.DataType",
          "name": "dataType",
          "type": "uint8"
        },
        {
          "internalType": "string",
          "name": "encryptedSymmetricKey",
          "type": "string"
        },
        {
          "internalType": "uint256",
          "name": "approvedDate",
          "type": "uint256"
        },
        {
          "internalType": "uint256",
          "name": "expiryDate",
          "type": "uint256"
        },
        {
          "internalType": "bool",
          "name": "status",
          "type": "bool"
        }
      ],
      "stateMutability": "view",
      "type": "function"
    },
    {
      "inputs": [
        {
          "internalType": "address",
          "name": "",
          "type": "address"
        },
        {
          "internalType": "address",
          "name": "",
          "type": "address"
        }
      ],
      "name": "emergencyAccesses",
      "outputs": [
        {
          "internalType": "bool",
          "name": "",
          "type": "bool"
        }
      ],
      "stateMutability": "view",
      "type": "function"
    },
    {
      "inputs": [
        {
          "internalType": "string",
          "name": "",
          "type": "string"
        }
      ],
      "name": "healthRecords",
      "outputs": [
        {
          "internalType": "address",
          "name": "owner",
          "type": "address"
        },
        {
          "internalType": "string",
          "name": "ipfsCid",
          "type": "string"
        },
        {
          "internalType": "enum EHRmain.DataType",
          "name": "dataType",
          "type": "uint8"
        },
        {
          "internalType": "string",
          "name": "encryptedSymmetricKey",
          "type": "string"
        },
        {
          "internalType": "uint256",
          "name": "timestamp",
          "type": "uint256"
        },
        {
          "internalType": "bool",
          "name": "isValid",
          "type": "bool"
        },
        {
          "internalType": "address",
          "name": "provider",
          "type": "address"
        }
      ],
      "stateMutability": "view",
      "type": "function"
    },
    {
      "inputs": [
        {
          "internalType": "address",
          "name": "",
          "type": "address"
        },
        {
          "internalType": "uint256",
          "name": "",
          "type": "uint256"
        }
      ],
      "name": "ownerToHealthRecords",
      "outputs": [
        {
          "internalType": "string",
          "name": "",
          "type": "string"
        }
      ],
      "stateMutability": "view",
      "type": "function"
    },
    {
      "inputs": [
        {
          "internalType": "uint256",
          "name": "",
          "type": "uint256"
        }
      ],
      "name": "permissionRequestIds",
      "outputs": [
        {
          "internalType": "bytes32",
          "name": "",
          "type": "bytes32"
        }
      ],
      "stateMutability": "view",
      "type": "function"
    },
    {
      "inputs": [
        {
          "internalType": "bytes32",
          "name": "",
          "type": "bytes32"
        }
      ],
      "name": "permissionRequests",
      "outputs": [
        {
          "internalType": "address",
          "name": "requester",
          "type": "address"
        },
        {
          "internalType": "address",
          "name": "owner",
          "type": "address"
        },
        {
          "internalType": "bytes32",
          "name": "requestId",
          "type": "bytes32"
        },
        {
          "internalType": "string",
          "name": "ipfsCid",
          "type": "string"
        },
        {
          "internalType": "enum EHRmain.PermissionType",
          "name": "permissionType",
          "type": "uint8"
        },
        {
          "internalType": "enum EHRmain.RequestStatus",
          "name": "status",
          "type": "uint8"
        },
        {
          "internalType": "uint256",
          "name": "requestDate",
          "type": "uint256"
        },
        {
          "internalType": "uint256",
          "name": "expiryDate",
          "type": "uint256"
        },
        {
          "internalType": "uint256",
          "name": "incentiveAmount",
          "type": "uint256"
        },
        {
          "internalType": "bool",
          "name": "isIncentiveBased",
          "type": "bool"
        }
      ],
      "stateMutability": "view",
      "type": "function"
    },
    {
      "inputs": [
        {
          "internalType": "address",
          "name": "",
          "type": "address"
        },
        {
          "internalType": "string",
          "name": "",
          "type": "string"
        },
        {
          "internalType": "address",
          "name": "",
          "type": "address"
        }
      ],
      "name": "permissions",
      "outputs": [
        {
          "internalType": "bool",
          "name": "",
          "type": "bool"
        }
      ],
      "stateMutability": "view",
      "type": "function"
    },
    {
      "inputs": [],
      "name": "systemOwner",
      "outputs": [
        {
          "internalType": "address",
          "name": "",
          "type": "address"
        }
      ],
      "stateMutability": "view",
      "type": "function"
    },
    {
      "inputs": [],
      "name": "totalRecords",
      "outputs": [
        {
          "internalType": "uint256",
          "name": "",
          "type": "uint256"
        }
      ],
      "stateMutability": "view",
      "type": "function"
    },
    {
      "inputs": [],
      "name": "totalRequests",
      "outputs": [
        {
          "internalType": "uint256",
          "name": "",
          "type": "uint256"
        }
      ],
      "stateMutability": "view",
      "type": "function"
    },
    {
      "inputs": [],
      "name": "totalUsers",
      "outputs": [
        {
          "internalType": "uint256",
          "name": "",
          "type": "uint256"
        }
      ],
      "stateMutability": "view",
      "type": "function"
    },
    {
      "inputs": [
        {
          "internalType": "address",
          "name": "",
          "type": "address"
        }
      ],
      "name": "userKeys",
      "outputs": [
        {
          "internalType": "string",
          "name": "publicKeyForEncryption",
          "type": "string"
        }
      ],
      "stateMutability": "view",
      "type": "function"
    },
    {
      "inputs": [
        {
          "internalType": "address",
          "name": "",
          "type": "address"
        }
      ],
      "name": "users",
      "outputs": [
        {
          "internalType": "address",
          "name": "userAddress",
          "type": "address"
        },
        {
          "internalType": "enum EHRmain.Role",
          "name": "role",
          "type": "uint8"
        },
        {
          "internalType": "uint256",
          "name": "registrationDate",
          "type": "uint256"
        },
        {
          "internalType": "bytes32",
          "name": "publicKeyHash",
          "type": "bytes32"
        }
      ],
      "stateMutability": "view",
      "type": "function"
    },
    {
      "inputs": [
        {
          "internalType": "enum EHRmain.Role",
          "name": "_role",
          "type": "uint8"
        },
        {
          "internalType": "bytes32",
          "name": "_publicKeyHash",
          "type": "bytes32"
        },
        {
          "internalType": "string",
          "name": "_publicKeyForEncryption",
          "type": "string"
        }
      ],
      "name": "registerUser",
      "outputs": [
        {
          "internalType": "bool",
          "name": "",
          "type": "bool"
        }
      ],
      "stateMutability": "nonpayable",
      "type": "function"
    },
    {
      "inputs": [
        {
          "internalType": "address",
          "name": "userAddress",
          "type": "address"
        }
      ],
      "name": "getKeyPair",
      "outputs": [
        {
          "internalType": "string",
          "name": "",
          "type": "string"
        }
      ],
      "stateMutability": "view",
      "type": "function"
    },
    {
      "inputs": [
        {
          "internalType": "address",
          "name": "_userAddress",
          "type": "address"
        }
      ],
      "name": "checkUser",
      "outputs": [
        {
          "internalType": "enum EHRmain.Role",
          "name": "",
          "type": "uint8"
        }
      ],
      "stateMutability": "view",
      "type": "function"
    },
    {
      "inputs": [
        {
          "internalType": "address",
          "name": "_patientAddress",
          "type": "address"
        },
        {
          "internalType": "string",
          "name": "_ipfsCid",
          "type": "string"
        },
        {
          "internalType": "enum EHRmain.DataType",
          "name": "_dataType",
          "type": "uint8"
        },
        {
          "internalType": "string",
          "name": "_encryptedSymmetricKey",
          "type": "string"
        }
      ],
      "name": "addEHRData",
      "outputs": [
        {
          "internalType": "bool",
          "name": "",
          "type": "bool"
        }
      ],
      "stateMutability": "nonpayable",
      "type": "function"
    },
    {
      "inputs": [
        {
          "internalType": "string",
          "name": "_ipfsCid",
          "type": "string"
        },
        {
          "internalType": "enum EHRmain.DataType",
          "name": "_dataType",
          "type": "uint8"
        },
        {
          "internalType": "string",
          "name": "_encryptedSymmetricKey",
          "type": "string"
        }
      ],
      "name": "addPHRData",
      "outputs": [
        {
          "internalType": "bool",
          "name": "",
          "type": "bool"
        }
      ],
      "stateMutability": "nonpayable",
      "type": "function"
    },
    {
      "inputs": [
        {
          "internalType": "address",
          "name": "_owner",
          "type": "address"
        },
        {
          "internalType": "address",
          "name": "_careProvider",
          "type": "address"
        },
        {
          "internalType": "string",
          "name": "_ipfsCid",
          "type": "string"
        },
        {
          "internalType": "enum EHRmain.DataType",
          "name": "_dataType",
          "type": "uint8"
        },
        {
          "internalType": "string",
          "name": "_encryptedSymmetricKey",
          "type": "string"
        },
        {
          "internalType": "uint256",
          "name": "_approvedDate",
          "type": "uint256"
        },
        {
          "internalType": "uint256",
          "name": "_expiryDate",
          "type": "uint256"
        }
      ],
      "name": "addApprovedRecord",
      "outputs": [],
      "stateMutability": "nonpayable",
      "type": "function"
    },
    {
      "inputs": [
        {
          "internalType": "address",
          "name": "_owner",
          "type": "address"
        },
        {
          "internalType": "string",
          "name": "_ipfsCid",
          "type": "string"
        },
        {
          "internalType": "enum EHRmain.PermissionType",
          "name": "_permissionType",
          "type": "uint8"
        }
      ],
      "name": "requestNonIncentiveBasedPermission",
      "outputs": [
        {
          "internalType": "bytes32",
          "name": "",
          "type": "bytes32"
        }
      ],
      "stateMutability": "nonpayable",
      "type": "function"
    },
    {
      "inputs": [
        {
          "internalType": "address",
          "name": "_owner",
          "type": "address"
        },
        {
          "internalType": "string",
          "name": "_ipfsCid",
          "type": "string"
        },
        {
          "internalType": "enum EHRmain.PermissionType",
          "name": "_permissionType",
          "type": "uint8"
        }
      ],
      "name": "requestIncentiveBasedPermission",
      "outputs": [
        {
          "internalType": "bytes32",
          "name": "",
          "type": "bytes32"
        }
      ],
      "stateMutability": "payable",
      "type": "function"
    },
    {
      "inputs": [
        {
          "internalType": "address",
          "name": "patient",
          "type": "address"
        }
      ],
      "name": "getPendingRequestsForPatient",
      "outputs": [
        {
          "components": [
            {
              "internalType": "address",
              "name": "requester",
              "type": "address"
            },
            {
              "internalType": "address",
              "name": "owner",
              "type": "address"
            },
            {
              "internalType": "bytes32",
              "name": "requestId",
              "type": "bytes32"
            },
            {
              "internalType": "string",
              "name": "ipfsCid",
              "type": "string"
            },
            {
              "internalType": "enum EHRmain.PermissionType",
              "name": "permissionType",
              "type": "uint8"
            },
            {
              "internalType": "enum EHRmain.RequestStatus",
              "name": "status",
              "type": "uint8"
            },
            {
              "internalType": "uint256",
              "name": "requestDate",
              "type": "uint256"
            },
            {
              "internalType": "uint256",
              "name": "expiryDate",
              "type": "uint256"
            },
            {
              "internalType": "uint256",
              "name": "incentiveAmount",
              "type": "uint256"
            },
            {
              "internalType": "bool",
              "name": "isIncentiveBased",
              "type": "bool"
            }
          ],
          "internalType": "struct EHRmain.PermissionRequest[]",
          "name": "",
          "type": "tuple[]"
        }
      ],
      "stateMutability": "view",
      "type": "function"
    },
    {
      "inputs": [
        {
          "internalType": "bytes32",
          "name": "_requestId",
          "type": "bytes32"
        }
      ],
      "name": "approvePermission",
      "outputs": [
        {
          "internalType": "bool",
          "name": "",
          "type": "bool"
        }
      ],
      "stateMutability": "nonpayable",
      "type": "function"
    },
    {
      "inputs": [
        {
          "internalType": "string",
          "name": "_ipfsCid",
          "type": "string"
        },
        {
          "internalType": "address",
          "name": "_user",
          "type": "address"
        }
      ],
      "name": "revokePermission",
      "outputs": [
        {
          "internalType": "bool",
          "name": "",
          "type": "bool"
        }
      ],
      "stateMutability": "nonpayable",
      "type": "function"
    },
    {
      "inputs": [
        {
          "internalType": "address",
          "name": "userAddress",
          "type": "address"
        }
      ],
      "name": "getHealthRecordsByOwner",
      "outputs": [
        {
          "components": [
            {
              "internalType": "address",
              "name": "owner",
              "type": "address"
            },
            {
              "internalType": "string",
              "name": "ipfsCid",
              "type": "string"
            },
            {
              "internalType": "enum EHRmain.DataType",
              "name": "dataType",
              "type": "uint8"
            },
            {
              "internalType": "string",
              "name": "encryptedSymmetricKey",
              "type": "string"
            },
            {
              "internalType": "uint256",
              "name": "timestamp",
              "type": "uint256"
            },
            {
              "internalType": "bool",
              "name": "isValid",
              "type": "bool"
            },
            {
              "internalType": "address",
              "name": "provider",
              "type": "address"
            }
          ],
          "internalType": "struct EHRmain.HealthRecord[]",
          "name": "",
          "type": "tuple[]"
        }
      ],
      "stateMutability": "view",
      "type": "function"
    },
    {
      "inputs": [
        {
          "internalType": "string",
          "name": "recordId",
          "type": "string"
        }
      ],
      "name": "getHealthRecordByIpfs",
      "outputs": [
        {
          "internalType": "address",
          "name": "owner",
          "type": "address"
        },
        {
          "internalType": "string",
          "name": "ipfsCid",
          "type": "string"
        },
        {
          "internalType": "enum EHRmain.DataType",
          "name": "dataType",
          "type": "uint8"
        },
        {
          "internalType": "string",
          "name": "encryptedSymmetricKey",
          "type": "string"
        },
        {
          "internalType": "uint256",
          "name": "timestamp",
          "type": "uint256"
        },
        {
          "internalType": "bool",
          "name": "isValid",
          "type": "bool"
        },
        {
          "internalType": "address",
          "name": "provider",
          "type": "address"
        }
      ],
      "stateMutability": "view",
      "type": "function"
    },
    {
      "inputs": [
        {
          "internalType": "address",
          "name": "_careProvider",
          "type": "address"
        }
      ],
      "name": "getRecordsByCareProvider",
      "outputs": [
        {
          "components": [
            {
              "internalType": "address",
              "name": "owner",
              "type": "address"
            },
            {
              "internalType": "address",
              "name": "careProvider",
              "type": "address"
            },
            {
              "internalType": "string",
              "name": "ipfsCid",
              "type": "string"
            },
            {
              "internalType": "enum EHRmain.DataType",
              "name": "dataType",
              "type": "uint8"
            },
            {
              "internalType": "string",
              "name": "encryptedSymmetricKey",
              "type": "string"
            },
            {
              "internalType": "uint256",
              "name": "approvedDate",
              "type": "uint256"
            },
            {
              "internalType": "uint256",
              "name": "expiryDate",
              "type": "uint256"
            },
            {
              "internalType": "bool",
              "name": "status",
              "type": "bool"
            }
          ],
          "internalType": "struct EHRmain.approvedRecord[]",
          "name": "",
          "type": "tuple[]"
        }
      ],
      "stateMutability": "view",
      "type": "function"
    },
    {
      "inputs": [
        {
          "internalType": "address",
          "name": "requester",
          "type": "address"
        },
        {
          "internalType": "string",
          "name": "recordId",
          "type": "string"
        }
      ],
      "name": "getRecordsForResearcher",
      "outputs": [
        {
          "components": [
            {
              "internalType": "address",
              "name": "owner",
              "type": "address"
            },
            {
              "internalType": "address",
              "name": "careProvider",
              "type": "address"
            },
            {
              "internalType": "string",
              "name": "ipfsCid",
              "type": "string"
            },
            {
              "internalType": "enum EHRmain.DataType",
              "name": "dataType",
              "type": "uint8"
            },
            {
              "internalType": "string",
              "name": "encryptedSymmetricKey",
              "type": "string"
            },
            {
              "internalType": "uint256",
              "name": "approvedDate",
              "type": "uint256"
            },
            {
              "internalType": "uint256",
              "name": "expiryDate",
              "type": "uint256"
            },
            {
              "internalType": "bool",
              "name": "status",
              "type": "bool"
            }
          ],
          "internalType": "struct EHRmain.approvedRecord",
          "name": "",
          "type": "tuple"
        }
      ],
      "stateMutability": "view",
      "type": "function"
    },
    {
      "inputs": [
        {
          "internalType": "string",
          "name": "_ipfsCid",
          "type": "string"
        }
      ],
      "name": "invalidateRecord",
      "outputs": [],
      "stateMutability": "nonpayable",
      "type": "function"
    },
    {
      "inputs": [
        {
          "internalType": "bytes32",
          "name": "requestId",
          "type": "bytes32"
        }
      ],
      "name": "getPermissionRequest",
      "outputs": [
        {
          "internalType": "address",
          "name": "requester",
          "type": "address"
        },
        {
          "internalType": "address",
          "name": "owner",
          "type": "address"
        },
        {
          "internalType": "string",
          "name": "ipfsCid",
          "type": "string"
        },
        {
          "internalType": "uint256",
          "name": "requestDate",
          "type": "uint256"
        },
        {
          "internalType": "uint256",
          "name": "expiryDate",
          "type": "uint256"
        },
        {
          "internalType": "uint256",
          "name": "incentiveAmount",
          "type": "uint256"
        },
        {
          "internalType": "bool",
          "name": "isIncentiveBased",
          "type": "bool"
        },
        {
          "internalType": "uint8",
          "name": "status",
          "type": "uint8"
        }
      ],
      "stateMutability": "view",
      "type": "function"
    },
    {
      "inputs": [
        {
          "internalType": "address",
          "name": "_patientAddress",
          "type": "address"
        }
      ],
      "name": "emergencyAccess",
      "outputs": [
        {
          "internalType": "bool",
          "name": "",
          "type": "bool"
        }
      ],
      "stateMutability": "nonpayable",
      "type": "function"
    },
    {
      "inputs": [
        {
          "internalType": "address",
          "name": "_ambulance",
          "type": "address"
        },
        {
          "internalType": "address",
          "name": "_patient",
          "type": "address"
        }
      ],
      "name": "checkEmergencyAccess",
      "outputs": [
        {
          "internalType": "bool",
          "name": "",
          "type": "bool"
        }
      ],
      "stateMutability": "view",
      "type": "function"
    },
    {
      "inputs": [
        {
          "internalType": "address",
          "name": "_ambulance",
          "type": "address"
        },
        {
          "internalType": "address",
          "name": "_patient",
          "type": "address"
        }
      ],
      "name": "revokeEmergencyAccess",
      "outputs": [
        {
          "internalType": "bool",
          "name": "",
          "type": "bool"
        }
      ],
      "stateMutability": "nonpayable",
      "type": "function"
    },
    {
      "inputs": [
        {
          "internalType": "address",
          "name": "_owner",
          "type": "address"
        }
      ],
      "name": "requestBatchAccess",
      "outputs": [
        {
          "internalType": "bytes32",
          "name": "",
          "type": "bytes32"
        }
      ],
      "stateMutability": "nonpayable",
      "type": "function"
    },
    {
      "inputs": [
        {
          "internalType": "bytes32",
          "name": "_requestId",
          "type": "bytes32"
        }
      ],
      "name": "approveBatchAccess",
      "outputs": [
        {
          "internalType": "bool",
          "name": "",
          "type": "bool"
        }
      ],
      "stateMutability": "nonpayable",
      "type": "function"
    }
  ],
  "bytecode": "0x608060405234801561001057600080fd5b50600980546001600160a01b031916331790556000600a819055600b819055600c556150e0806100416000396000f3fe60806040526004361061019f5760003560e01c8063070b732c146101a45780630ce467521461020b5780631023289b1461023e578063125f89741461026b578063187ec18d1461028f5780631e9d48cf146102af578063262b4028146102dc57806327be35db146102fe57806329bd80011461032b57806333779254146103615780633cdcc4431461039957806340d3226f146103cd57806341d724b4146103ed57806342e8ce2a1461040d57806363e358fd1461042d57806373fb78a41461044d57806377249db8146104815780637bbfdc11146104ae5780637f258277146104db5780638aea61dc146104fb578063a269a44814610511578063a6fb108f14610524578063a806cad914610544578063a87430ba14610564578063a9ca2aed146105c5578063ac053aa9146105e5578063b4d1456c1461062e578063be9b545a1461064e578063bff1f9e11461066e578063d75e9edd14610684578063d9906b85146106a4578063e06c73f6146106df578063e2fa218d146106ff578063e3c0740b1461071f578063f2d3d8aa1461073f578063fa44f4161461075f575b600080fd5b3480156101b057600080fd5b506101f66101bf366004614166565b6003602090815260009384526040808520845180860184018051928152908401958401959095209452929052825290205460ff1681565b60405190151581526020015b60405180910390f35b34801561021757600080fd5b5061022b6102263660046141c3565b61078c565b6040516102029796959493929190614286565b34801561024a57600080fd5b5061025e6102593660046142e9565b610997565b604051610202919061439b565b34801561027757600080fd5b50610281600b5481565b604051908152602001610202565b34801561029b57600080fd5b506102816102aa3660046143fd565b610c7e565b3480156102bb57600080fd5b506102cf6102ca3660046142e9565b610f7d565b6040516102029190614472565b3480156102e857600080fd5b506102fc6102f73660046141c3565b610fa2565b005b34801561030a57600080fd5b5061031e610319366004614480565b611048565b60405161020291906144cd565b34801561033757600080fd5b5061034b6103463660046144e0565b611390565b6040516102029a99989796959493929190614519565b34801561036d57600080fd5b50600954610381906001600160a01b031681565b6040516001600160a01b039091168152602001610202565b3480156103a557600080fd5b506103b96103b4366004614595565b611480565b6040516102029897969594939291906145bf565b3480156103d957600080fd5b5061022b6103e83660046141c3565b61160c565b3480156103f957600080fd5b506101f66104083660046142e9565b611786565b34801561041957600080fd5b506101f6610428366004614630565b611a5e565b34801561043957600080fd5b506101f661044836600461467d565b611c15565b34801561045957600080fd5b5061046d6104683660046144e0565b611ce9565b6040516102029897969594939291906146a7565b34801561048d57600080fd5b506104a161049c3660046142e9565b611e03565b6040516102029190614705565b3480156104ba57600080fd5b506104ce6104c9366004614595565b61212f565b60405161020291906147f4565b3480156104e757600080fd5b506102816104f63660046142e9565b6121e8565b34801561050757600080fd5b50610281600c5481565b61028161051f3660046143fd565b61247e565b34801561053057600080fd5b506101f661053f3660046144e0565b6126d3565b34801561055057600080fd5b506102fc61055f366004614816565b61288f565b34801561057057600080fd5b506105b561057f3660046142e9565b6000602081905290815260409020805460018201546002909201546001600160a01b03821692600160a01b90920460ff16919084565b60405161020294939291906148be565b3480156105d157600080fd5b506103b96105e03660046141c3565b612c5e565b3480156105f157600080fd5b506101f661060036600461467d565b6001600160a01b03918216600090815260086020908152604080832093909416825291909152205460ff1690565b34801561063a57600080fd5b506101f66106493660046148ed565b612c9f565b34801561065a57600080fd5b506101f66106693660046149b9565b613032565b34801561067a57600080fd5b50610281600a5481565b34801561069057600080fd5b506104ce61069f3660046142e9565b6132ed565b3480156106b057600080fd5b506101f66106bf36600461467d565b600860209081526000928352604080842090915290825290205460ff1681565b3480156106eb57600080fd5b506101f66106fa3660046144e0565b61340b565b34801561070b57600080fd5b5061028161071a3660046144e0565b6138fb565b34801561072b57600080fd5b506101f661073a366004614a2f565b61391c565b34801561074b57600080fd5b506104ce61075a3660046142e9565b613c51565b34801561076b57600080fd5b5061077f61077a3660046142e9565b613cef565b6040516102029190614a82565b60006060600060606000806000806001896040516107aa9190614b4b565b90815260408051918290036020908101832060e0840190925281546001600160a01b03168352600182018054918401916107e390614b67565b80601f016020809104026020016040519081016040528092919081815260200182805461080f90614b67565b801561085c5780601f106108315761010080835404028352916020019161085c565b820191906000526020600020905b81548152906001019060200180831161083f57829003601f168201915b5050509183525050600282015460209091019060ff1660068111156108835761088361425c565b60068111156108945761089461425c565b81526020016003820180546108a890614b67565b80601f01602080910402602001604051908101604052809291908181526020018280546108d490614b67565b80156109215780601f106108f657610100808354040283529160200191610921565b820191906000526020600020905b81548152906001019060200180831161090457829003601f168201915b5050509183525050600482015460208083019190915260059092015460ff811615156040808401919091526101009091046001600160a01b03166060928301528351928401519084015191840151608085015160a086015160c090960151949f929e50929c509a50909850919650945092505050565b60606001600160a01b0382166109c85760405162461bcd60e51b81526004016109bf90614ba1565b60405180910390fd5b6001600160a01b03821660009081526004602052604081205490816001600160401b038111156109fa576109fa6140c4565b604051908082528060200260200182016040528015610a3357816020015b610a20614065565b815260200190600190039081610a185790505b50905060005b6001600160a01b038516600090815260046020526040902054811015610c76576001600160a01b0385166000908152600460205260408120805483908110610a8357610a83614bd8565b60009182526020918290206040805161010081018252600890930290910180546001600160a01b0390811684526001820154169383019390935260028301805492939291840191610ad390614b67565b80601f0160208091040260200160405190810160405280929190818152602001828054610aff90614b67565b8015610b4c5780601f10610b2157610100808354040283529160200191610b4c565b820191906000526020600020905b815481529060010190602001808311610b2f57829003601f168201915b5050509183525050600382015460209091019060ff166006811115610b7357610b7361425c565b6006811115610b8457610b8461425c565b8152602001600482018054610b9890614b67565b80601f0160208091040260200160405190810160405280929190818152602001828054610bc490614b67565b8015610c115780601f10610be657610100808354040283529160200191610c11565b820191906000526020600020905b815481529060010190602001808311610bf457829003601f168201915b5050509183525050600582015460208201526006820154604082015260079091015460ff16151560609091015283519091508190849084908110610c5757610c57614bd8565b6020026020010181905250508080610c6e90614c04565b915050610a39565b509392505050565b600082600181604051610c919190614b4b565b9081526040519081900360200190206005015460ff16610cc35760405162461bcd60e51b81526004016109bf90614c1d565b6001600160a01b038516610ce95760405162461bcd60e51b81526004016109bf90614c4c565b84604051602001610cfa9190614c7b565b60405160208183030381529060405280519060200120600185604051610d209190614b4b565b9081526040516020918190038201812054610d47926001600160a01b039091169101614c7b565b6040516020818303038152906040528051906020012014610d7a5760405162461bcd60e51b81526004016109bf90614c93565b600033868642604051602001610d939493929190614cc1565b604051602081830303815290604052805190602001209050604051806101400160405280336001600160a01b03168152602001876001600160a01b03168152602001828152602001868152602001856005811115610df357610df361425c565b8152602001600081526020014281526020014262278d00610e149190614d08565b8152600060208083018290526040928301829052848252600280825291839020845181546001600160a01b03199081166001600160a01b0392831617835592860151600183018054909416911617909155918301519082015560608201516003820190610e819082614d6a565b50608082015160048201805460ff19166001836005811115610ea557610ea561425c565b021790555060a082015160048201805461ff001916610100836003811115610ecf57610ecf61425c565b021790555060c0820151600582015560e082015160068201556101008201516007820155610120909101516008909101805460ff1916911515919091179055600c8054906000610f1e83614c04565b90915550506040518181526001600160a01b03871690339060008051602061506b8339815191529060200160405180910390a3600d805460018101825560009190915260008051602061504b8339815191520181905595945050505050565b6001600160a01b0316600090815260208190526040902054600160a01b900460ff1690565b80600181604051610fb39190614b4b565b9081526040519081900360200190206005015460ff16610fe55760405162461bcd60e51b81526004016109bf90614c1d565b6009546001600160a01b0316331461100f5760405162461bcd60e51b81526004016109bf90614e29565b60006001836040516110219190614b4b565b908152604051908190036020019020600501805491151560ff199092169190911790555050565b611050614065565b6001600160a01b0383166110985760405162461bcd60e51b815260206004820152600f60248201526e496e76616c6964206164647265737360881b60448201526064016109bf565b60036001600160a01b038416600090815260208190526040902054600160a01b900460ff1660088111156110ce576110ce61425c565b1461112d5760405162461bcd60e51b815260206004820152602960248201527f4f6e6c792072657365617263686572732063616e20616363657373207468697360448201526810333ab731ba34b7b760b91b60648201526084016109bf565b600060058360405161113f9190614b4b565b9081526040805191829003602090810183206101008401835280546001600160a01b03908116855260018201541691840191909152600281018054919284019161118890614b67565b80601f01602080910402602001604051908101604052809291908181526020018280546111b490614b67565b80156112015780601f106111d657610100808354040283529160200191611201565b820191906000526020600020905b8154815290600101906020018083116111e457829003601f168201915b5050509183525050600382015460209091019060ff1660068111156112285761122861425c565b60068111156112395761123961425c565b815260200160048201805461124d90614b67565b80601f016020809104026020016040519081016040528092919081815260200182805461127990614b67565b80156112c65780601f1061129b576101008083540402835291602001916112c6565b820191906000526020600020905b8154815290600101906020018083116112a957829003601f168201915b5050509183525050600582015460208201526006820154604082015260079091015460ff16151560609091015260e081015190915061133e5760405162461bcd60e51b81526020600482015260146024820152735265636f7264206973206e6f742061637469766560601b60448201526064016109bf565b8060c001514211156113875760405162461bcd60e51b81526020600482015260126024820152711058d8d95cdcc81a185cc8195e1c1a5c995960721b60448201526064016109bf565b90505b92915050565b600260208190526000918252604090912080546001820154928201546003830180546001600160a01b03938416959093169391926113cd90614b67565b80601f01602080910402602001604051908101604052809291908181526020018280546113f990614b67565b80156114465780601f1061141b57610100808354040283529160200191611446565b820191906000526020600020905b81548152906001019060200180831161142957829003601f168201915b5050506004840154600585015460068601546007870154600890970154959660ff808516976101009095048116965092945090929091168a565b6004602052816000526040600020818154811061149c57600080fd5b60009182526020909120600890910201805460018201546002830180546001600160a01b0393841696509190921693506114d590614b67565b80601f016020809104026020016040519081016040528092919081815260200182805461150190614b67565b801561154e5780601f106115235761010080835404028352916020019161154e565b820191906000526020600020905b81548152906001019060200180831161153157829003601f168201915b5050506003840154600485018054949560ff90921694919350915061157290614b67565b80601f016020809104026020016040519081016040528092919081815260200182805461159e90614b67565b80156115eb5780601f106115c0576101008083540402835291602001916115eb565b820191906000526020600020905b8154815290600101906020018083116115ce57829003601f168201915b50505050600583015460068401546007909401549293909290915060ff1688565b805160208183018101805160018083529383019290940191909120929052815490820180546001600160a01b03909216929161164790614b67565b80601f016020809104026020016040519081016040528092919081815260200182805461167390614b67565b80156116c05780601f10611695576101008083540402835291602001916116c0565b820191906000526020600020905b8154815290600101906020018083116116a357829003601f168201915b5050506002840154600385018054949560ff9092169491935091506116e490614b67565b80601f016020809104026020016040519081016040528092919081815260200182805461171090614b67565b801561175d5780601f106117325761010080835404028352916020019161175d565b820191906000526020600020905b81548152906001019060200180831161174057829003601f168201915b50505050600483015460059093015491929160ff8116915061010090046001600160a01b031687565b6000600633600090815260208190526040902054600160a01b900460ff1660088111156117b5576117b561425c565b146118195760405162461bcd60e51b815260206004820152602e60248201527f4f6e6c7920616d62756c616e63652073657276696365732063616e2063616c6c60448201526d103a3434b990333ab731ba34b7b760911b60648201526084016109bf565b60016001600160a01b038316600090815260208190526040902054600160a01b900460ff16600881111561184f5761184f61425c565b1461186c5760405162461bcd60e51b81526004016109bf90614e71565b600033834260405160200161188393929190614ea2565b60408051601f198184030181528282528051602091820120610140840183523384526001600160a01b038716848301528383018190528251918201909252600081526060830152915060808101600281526020016001815260200142815260200142620151806118f39190614d08565b8152600060208083018290526040928301829052848252600280825291839020845181546001600160a01b03199081166001600160a01b03928316178355928601516001830180549094169116179091559183015190820155606082015160038201906119609082614d6a565b50608082015160048201805460ff191660018360058111156119845761198461425c565b021790555060a082015160048201805461ff0019166101008360038111156119ae576119ae61425c565b021790555060c0820151600582015560e082015160068201556101008201516007820155610120909101516008918201805491151560ff19928316179055336000818152602093845260408082206001600160a01b038916808452955290819020805490931660011790925590517f752018cdfd5f924e9f3c3eb502d75284995f06f31fb10db58a6b98c418ee2cbd90611a4b9042815260200190565b60405180910390a360019150505b919050565b600082600181604051611a719190614b4b565b9081526040519081900360200190206005015460ff16611aa35760405162461bcd60e51b81526004016109bf90614c1d565b600184604051611ab39190614b4b565b90815260405190819003602001902054336001600160a01b039091161480611ae557506009546001600160a01b031633145b611b4b5760405162461bcd60e51b815260206004820152603160248201527f4f6e6c79206f776e6572206f722073797374656d206f776e65722063616e207260448201527065766f6b65207065726d697373696f6e7360781b60648201526084016109bf565b600060036000600187604051611b619190614b4b565b9081526040805160209281900383019020546001600160a01b031683529082019290925281016000209051611b97908790614b4b565b90815260408051602092819003830181206001600160a01b03881660008181529190945291909120805460ff19169315159390931790925590611bdb908690614b4b565b604051908190038120907fb0948f04fe442d4a4537ab853413218081ee0cacb6095698486f22271166bdfd90600090a35060019392505050565b6009546000906001600160a01b03163314611c425760405162461bcd60e51b81526004016109bf90614e29565b6001600160a01b0380841660009081526008602090815260408083209386168352929052205460ff16611cb45760405162461bcd60e51b815260206004820152601a6024820152794e6f20656d657267656e6379206163636573732065786973747360301b60448201526064016109bf565b506001600160a01b0391821660009081526008602090815260408083209390941682529190915220805460ff19169055600190565b6000818152600260205260408120805460018201546005830154600684015460078501546008860154600487015488976060978997889788978897889795966001600160a01b0395861696949095169460038089019560ff9081169261010090041690811115611d5b57611d5b61425c565b858054611d6790614b67565b80601f0160208091040260200160405190810160405280929190818152602001828054611d9390614b67565b8015611de05780601f10611db557610100808354040283529160200191611de0565b820191906000526020600020905b815481529060010190602001808311611dc357829003601f168201915b505050505095509850985098509850985098509850985050919395975091939597565b60606000805b600d54811015611e81576000600d8281548110611e2857611e28614bd8565b6000918252602080832090910154808352600290915260409091206001810154919250906001600160a01b03808816911603611e6c5783611e6881614c04565b9450505b50508080611e7990614c04565b915050611e09565b506000816001600160401b03811115611e9c57611e9c6140c4565b604051908082528060200260200182016040528015611f2457816020015b611f1160408051610140810182526000808252602082018190529181018290526060808201529060808201908152602001600081526020016000815260200160008152602001600081526020016000151581525090565b815260200190600190039081611eba5790505b5090506000805b600d54811015612125576000600d8281548110611f4a57611f4a614bd8565b6000918252602080832090910154808352600290915260409091206001810154919250906001600160a01b03808a1691160361211057604080516101408101825282546001600160a01b039081168252600184015416602082015260028301549181019190915260038201805483916060840191611fc790614b67565b80601f0160208091040260200160405190810160405280929190818152602001828054611ff390614b67565b80156120405780601f1061201557610100808354040283529160200191612040565b820191906000526020600020905b81548152906001019060200180831161202357829003601f168201915b5050509183525050600482015460209091019060ff1660058111156120675761206761425c565b60058111156120785761207861425c565b81526020016004820160019054906101000a900460ff1660038111156120a0576120a061425c565b60038111156120b1576120b161425c565b815260058201546020820152600682015460408201526007820154606082015260089091015460ff16151560809091015285518690869081106120f6576120f6614bd8565b6020026020010181905250838061210c90614c04565b9450505b5050808061211d90614c04565b915050611f2b565b5090949350505050565b6006602052816000526040600020818154811061214b57600080fd5b9060005260206000200160009150915050805461216790614b67565b80601f016020809104026020016040519081016040528092919081815260200182805461219390614b67565b80156121e05780601f106121b5576101008083540402835291602001916121e0565b820191906000526020600020905b8154815290600101906020018083116121c357829003601f168201915b505050505081565b60006001600160a01b0382166122105760405162461bcd60e51b81526004016109bf90614c4c565b60016001600160a01b038316600090815260208190526040902054600160a01b900460ff1660088111156122465761224661425c565b1461228d5760405162461bcd60e51b815260206004820152601760248201527613dddb995c881b5d5cdd0818994818481c185d1a595b9d604a1b60448201526064016109bf565b60003383426040516020016122a493929190614ea2565b60408051601f198184030181528282528051602091820120610140840183523384526001600160a01b0387168483015283830181905282519182019092526000808252606084019190915290925060808201908152602001600081526020014281526020014262278d006123189190614d08565b8152600060208083018290526040928301829052848252600280825291839020845181546001600160a01b03199081166001600160a01b03928316178355928601516001830180549094169116179091559183015190820155606082015160038201906123859082614d6a565b50608082015160048201805460ff191660018360058111156123a9576123a961425c565b021790555060a082015160048201805461ff0019166101008360038111156123d3576123d361425c565b021790555060c0820151600582015560e082015160068201556101008201516007820155610120909101516008909101805460ff1916911515919091179055600c805490600061242283614c04565b90915550506040518181526001600160a01b03841690339060008051602061506b8339815191529060200160405180910390a3600d805460018101825560009190915260008051602061504b8339815191520181905592915050565b6000826001816040516124919190614b4b565b9081526040519081900360200190206005015460ff166124c35760405162461bcd60e51b81526004016109bf90614c1d565b6001600160a01b0385166124e95760405162461bcd60e51b81526004016109bf90614c4c565b600034116125355760405162461bcd60e51b8152602060048201526019602482015278125b98d95b9d1a5d9948185b5bdd5b9d081c995c5d5a5c9959603a1b60448201526064016109bf565b846040516020016125469190614c7b565b6040516020818303038152906040528051906020012060018560405161256c9190614b4b565b9081526040516020918190038201812054612593926001600160a01b039091169101614c7b565b60405160208183030381529060405280519060200120146125c65760405162461bcd60e51b81526004016109bf90614c93565b6000338686426040516020016125df9493929190614cc1565b604051602081830303815290604052805190602001209050604051806101400160405280336001600160a01b03168152602001876001600160a01b0316815260200182815260200186815260200185600581111561263f5761263f61425c565b8152602001600081526020014281526020014262278d006126609190614d08565b815234602080830191909152600160409283018190526000858152600280845290849020855181546001600160a01b03199081166001600160a01b03928316178355948701519382018054909516931692909217909255918301519082015560608201516003820190610e819082614d6a565b600081815260026020526040812060018101546001600160a01b031633146127365760405162461bcd60e51b81526020600482015260166024820152754f6e6c79206f776e65722063616e20617070726f766560501b60448201526064016109bf565b60006004820154610100900460ff1660038111156127565761275661425c565b146127735760405162461bcd60e51b81526004016109bf90614ecb565b80600601544211156127975760405162461bcd60e51b81526004016109bf90614efb565b60048101805461ff0019166101001790556001808201546001600160a01b031660009081526003602081905260409182902091516127d791850190614f24565b908152604080516020928190038301902084546001600160a01b0316600090815292529020805460ff1916911515919091179055600881015460ff161561285a57600181015460078201546040516001600160a01b039092169181156108fc0291906000818181858888f19350505050158015612858573d6000803e3d6000fd5b505b600181015481546040518581526001600160a01b03928316929091169060008051602061502b83398151915290602001611a4b565b6001600160a01b0387166128b55760405162461bcd60e51b81526004016109bf90614c4c565b6001600160a01b0386166128db5760405162461bcd60e51b81526004016109bf90614ba1565b60008551116129275760405162461bcd60e51b815260206004820152601860248201527749504653204349442063616e6e6f7420626520656d70747960401b60448201526064016109bf565b428211156129855760405162461bcd60e51b815260206004820152602560248201527f417070726f76656420646174652063616e6e6f7420626520696e207468652066604482015264757475726560d81b60648201526084016109bf565b8181116129e45760405162461bcd60e51b815260206004820152602760248201527f4578706972792064617465206d75737420626520616674657220617070726f766044820152666564206461746560c81b60648201526084016109bf565b6000604051806101000160405280896001600160a01b03168152602001886001600160a01b03168152602001878152602001866006811115612a2857612a2861425c565b815260208082018790524260408084019190915260608301869052600160809093018390526001600160a01b03808c166000908152600484528281208054808701825590825290849020865160089092020180549183166001600160a01b0319928316178155938601519484018054959092169416939093179092559082015191925082916002820190612abc9082614d6a565b50606082015160038201805460ff19166001836006811115612ae057612ae061425c565b021790555060808201516004820190612af99082614d6a565b5060a0820151816005015560c0820151816006015560e08201518160070160006101000a81548160ff021916908315150217905550505080600587604051612b419190614b4b565b9081526040805160209281900383019020835181546001600160a01b03199081166001600160a01b03928316178355938501516001830180549095169116179092558201516002820190612b959082614d6a565b50606082015160038201805460ff19166001836006811115612bb957612bb961425c565b021790555060808201516004820190612bd29082614d6a565b5060a0820151600582015560c0820151600682015560e0909101516007909101805460ff19169115159190911790556040516001600160a01b0388811691908a16907f7f70321209aabb8d99473717508746279a6724c81f6f89e8a3cd6c2a2765740090612c4c908a908a908a908a908a90600190614f9a565b60405180910390a35050505050505050565b8051808201602090810180516005825292820191909301209152805460018201546002830180546001600160a01b039384169492909316926114d590614b67565b6000600233600090815260208190526040902054600160a01b900460ff166008811115612cce57612cce61425c565b1480612d045750600433600090815260208190526040902054600160a01b900460ff166008811115612d0257612d0261425c565b145b80612d395750600833600090815260208190526040902054600160a01b900460ff166008811115612d3757612d3761425c565b145b612d9e5760405162461bcd60e51b815260206004820152603060248201527f4f6e6c79206865616c7468636172652070726f7669646572732063616e20636160448201526f3636103a3434b990333ab731ba34b7b760811b60648201526084016109bf565b6001600160a01b038516612dc45760405162461bcd60e51b81526004016109bf90614e71565b600184604051612dd49190614b4b565b90815260200160405180910390206001018054612df090614b67565b159050612e0f5760405162461bcd60e51b81526004016109bf90614fed565b6000612e1a86610f7d565b90506001816008811115612e3057612e3061425c565b14612e6f5760405162461bcd60e51b815260206004820152600f60248201526e125b9d985b1a59081c185d1a595b9d608a1b60448201526064016109bf565b6040518060e00160405280876001600160a01b03168152602001868152602001856006811115612ea157612ea161425c565b8152602001848152602001428152602001600115158152602001336001600160a01b0316815250600186604051612ed89190614b4b565b90815260405160209181900382019020825181546001600160a01b0319166001600160a01b03909116178155908201516001820190612f179082614d6a565b50604082015160028201805460ff19166001836006811115612f3b57612f3b61425c565b021790555060608201516003820190612f549082614d6a565b506080820151600482015560a08201516005909101805460c0909301516001600160a81b0319909316911515610100600160a81b031916919091176101006001600160a01b03938416021790558616600090815260066020908152604082208054600181018255908352912001612fcb8682614d6a565b50600b8054906000612fdc83614c04565b9190505550856001600160a01b031685604051612ff99190614b4b565b604051809103902060008051602061508b8339815191528660405161301e919061501c565b60405180910390a350600195945050505050565b6000600133600090815260208190526040902054600160a01b900460ff1660088111156130615761306161425c565b146130ba5760405162461bcd60e51b8152602060048201526024808201527f4f6e6c792070617469656e74732063616e2063616c6c20746869732066756e636044820152633a34b7b760e11b60648201526084016109bf565b6001856040516130ca9190614b4b565b908152602001604051809103902060010180546130e690614b67565b1590506131055760405162461bcd60e51b81526004016109bf90614fed565b6040518060e00160405280336001600160a01b031681526020018681526020018560068111156131375761313761425c565b815260200184848080601f0160208091040260200160405190810160405280939291908181526020018383808284376000920191909152505050908252504260208201526001604080830182905233606090930192909252905161319c908890614b4b565b90815260405160209181900382019020825181546001600160a01b0319166001600160a01b039091161781559082015160018201906131db9082614d6a565b50604082015160028201805460ff191660018360068111156131ff576131ff61425c565b0217905550606082015160038201906132189082614d6a565b506080820151600482015560a08201516005909101805460c0909301516001600160a01b031661010002610100600160a81b0319921515929092166001600160a81b0319909316929092171790553360009081526006602090815260408220805460018101825590835291200161328f8682614d6a565b50600b80549060006132a083614c04565b909155505060405133906132b5908790614b4b565b604051809103902060008051602061508b833981519152866040516132da919061501c565b60405180910390a3506001949350505050565b6001600160a01b038181166000908152602081905260409020546060911661334d5760405162461bcd60e51b8152602060048201526013602482015272155cd95c881b9bdd081c9959da5cdd195c9959606a1b60448201526064016109bf565b6001600160a01b0382166000908152600760209081526040808320815192830190915280548290829061337f90614b67565b80601f01602080910402602001604051908101604052809291908181526020018280546133ab90614b67565b80156133f85780601f106133cd576101008083540402835291602001916133f8565b820191906000526020600020905b8154815290600101906020018083116133db57829003601f168201915b5050509190925250509051949350505050565b6000818152600260205260408120600101546001600160a01b031633146134715760405162461bcd60e51b815260206004820152601a6024820152794f6e6c7920746865206f776e65722063616e20617070726f766560301b60448201526064016109bf565b60008083815260026020526040902060040154610100900460ff16600381111561349d5761349d61425c565b146134ba5760405162461bcd60e51b81526004016109bf90614ecb565b6000828152600260205260409020600601544211156134eb5760405162461bcd60e51b81526004016109bf90614efb565b6000828152600260209081526040808320600401805461ff0019166101001790553383526006825280832080548251818502810185019093528083529192909190849084015b828210156135dd57838290600052602060002001805461355090614b67565b80601f016020809104026020016040519081016040528092919081815260200182805461357c90614b67565b80156135c95780601f1061359e576101008083540402835291602001916135c9565b820191906000526020600020905b8154815290600101906020018083116135ac57829003601f168201915b505050505081526020019060010190613531565b50505050905060005b81518110156138c05733600090815260036020526040902082516001919084908490811061361657613616614bd8565b602002602001015160405161362b9190614b4b565b9081526040805160209281900383019020600088815260028452828120546001600160a01b0316815292528120805460ff191692151592909217909155825160019084908490811061367f5761367f614bd8565b60200260200101516040516136949190614b4b565b90815260408051918290036020908101832060e0840190925281546001600160a01b03168352600182018054918401916136cd90614b67565b80601f01602080910402602001604051908101604052809291908181526020018280546136f990614b67565b80156137465780601f1061371b57610100808354040283529160200191613746565b820191906000526020600020905b81548152906001019060200180831161372957829003601f168201915b5050509183525050600282015460209091019060ff16600681111561376d5761376d61425c565b600681111561377e5761377e61425c565b815260200160038201805461379290614b67565b80601f01602080910402602001604051908101604052809291908181526020018280546137be90614b67565b801561380b5780601f106137e05761010080835404028352916020019161380b565b820191906000526020600020905b8154815290600101906020018083116137ee57829003601f168201915b5050509183525050600482015460208083019190915260059092015460ff811615156040808401919091526001600160a01b0361010090920482166060909301929092526000898152600290935291205485519293506138ad923392919091169086908690811061387e5761387e614bd8565b60200260200101518460400151856060015142600260008d81526020019081526020016000206006015461288f565b50806138b881614c04565b9150506135e6565b5060008381526002602090815260409182902054915185815233926001600160a01b03169160008051602061502b8339815191529101611a4b565b600d818154811061390b57600080fd5b600091825260209091200154905081565b336000908152602081905260408120546001600160a01b03161561397c5760405162461bcd60e51b8152602060048201526017602482015276155cd95c88185b1c9958591e481c9959da5cdd195c9959604a1b60448201526064016109bf565b60008560088111156139905761399061425c565b036139cc5760405162461bcd60e51b815260206004820152600c60248201526b496e76616c696420726f6c6560a01b60448201526064016109bf565b60018560088111156139e0576139e061425c565b14806139fd575060028560088111156139fb576139fb61425c565b145b80613a1957506003856008811115613a1757613a1761425c565b145b80613a3557506004856008811115613a3357613a3361425c565b145b80613a5157506005856008811115613a4f57613a4f61425c565b145b80613a6d57506006856008811115613a6b57613a6b61425c565b145b80613a8957506007856008811115613a8757613a8761425c565b145b80613aa557506008856008811115613aa357613aa361425c565b145b613ae55760405162461bcd60e51b8152602060048201526011602482015270496e76616c696420726f6c65207479706560781b60448201526064016109bf565b6040518060800160405280336001600160a01b03168152602001866008811115613b1157613b1161425c565b815242602080830191909152604091820187905233600090815280825291909120825181546001600160a01b03919091166001600160a01b031982168117835592840151919283916001600160a81b03191617600160a01b836008811115613b7b57613b7b61425c565b0217905550604082810151600183015560609092015160029091015580516020601f85018190048102820183018352810184815290918291908690869081908501838280828437600092018290525093909452505033815260076020526040902082519091508190613bed9082614d6a565b5050600a805491506000613c0083614c04565b9190505550336001600160a01b03167f8e18574f8a7333e6a87112742a55853a643e2f0550f4e1a3a2c3f1bb2994441d86604051613c3e9190614472565b60405180910390a2506001949350505050565b600760205260009081526040902080548190613c6c90614b67565b80601f0160208091040260200160405190810160405280929190818152602001828054613c9890614b67565b8015613ce55780601f10613cba57610100808354040283529160200191613ce5565b820191906000526020600020905b815481529060010190602001808311613cc857829003601f168201915b5050505050905081565b6001600160a01b038116600090815260066020526040812054606091816001600160401b03811115613d2357613d236140c4565b604051908082528060200260200182016040528015613d9f57816020015b613d8c6040805160e08101825260008082526060602083015290918201908152602001606081526020016000815260200160001515815260200160006001600160a01b031681525090565b815260200190600190039081613d415790505b50905060005b82811015610c76576001600160a01b0385166000908152600660205260408120805483908110613dd757613dd7614bd8565b906000526020600020018054613dec90614b67565b80601f0160208091040260200160405190810160405280929190818152602001828054613e1890614b67565b8015613e655780601f10613e3a57610100808354040283529160200191613e65565b820191906000526020600020905b815481529060010190602001808311613e4857829003601f168201915b505050505090506000600182604051613e7e9190614b4b565b90815260408051918290036020908101832060e0840190925281546001600160a01b0316835260018201805491840191613eb790614b67565b80601f0160208091040260200160405190810160405280929190818152602001828054613ee390614b67565b8015613f305780601f10613f0557610100808354040283529160200191613f30565b820191906000526020600020905b815481529060010190602001808311613f1357829003601f168201915b5050509183525050600282015460209091019060ff166006811115613f5757613f5761425c565b6006811115613f6857613f6861425c565b8152602001600382018054613f7c90614b67565b80601f0160208091040260200160405190810160405280929190818152602001828054613fa890614b67565b8015613ff55780601f10613fca57610100808354040283529160200191613ff5565b820191906000526020600020905b815481529060010190602001808311613fd857829003601f168201915b50505091835250506004820154602082015260059091015460ff81161515604083015261010090046001600160a01b03166060909101528451909150819085908590811061404557614045614bd8565b60200260200101819052505050808061405d90614c04565b915050613da5565b60408051610100810182526000808252602082018190526060928201839052909182019081526020016060815260200160008152602001600081526020016000151581525090565b80356001600160a01b0381168114611a5957600080fd5b634e487b7160e01b600052604160045260246000fd5b600082601f8301126140eb57600080fd5b81356001600160401b0380821115614105576141056140c4565b604051601f8301601f19908116603f0116810190828211818310171561412d5761412d6140c4565b8160405283815286602085880101111561414657600080fd5b836020870160208301376000602085830101528094505050505092915050565b60008060006060848603121561417b57600080fd5b614184846140ad565b925060208401356001600160401b0381111561419f57600080fd5b6141ab868287016140da565b9250506141ba604085016140ad565b90509250925092565b6000602082840312156141d557600080fd5b81356001600160401b038111156141eb57600080fd5b6141f7848285016140da565b949350505050565b6001600160a01b03169052565b60005b8381101561422757818101518382015260200161420f565b50506000910152565b6000815180845261424881602086016020860161420c565b601f01601f19169290920160200192915050565b634e487b7160e01b600052602160045260246000fd5b600781106142825761428261425c565b9052565b600060018060a01b03808a16835260e060208401526142a860e084018a614230565b6142b5604085018a614272565b83810360608501526142c78189614230565b60808501979097525093151560a083015250911660c090910152949350505050565b6000602082840312156142fb57600080fd5b614304826140ad565b9392505050565b600061010060018060a01b0380845116855280602085015116602086015250604083015181604086015261434182860182614230565b91505060608301516143566060860182614272565b506080830151848203608086015261436e8282614230565b91505060a083015160a085015260c083015160c085015260e0830151151560e08501528091505092915050565b6000602080830181845280855180835260408601915060408160051b870101925083870160005b828110156143f057603f198886030184526143de85835161430b565b945092850192908501906001016143c2565b5092979650505050505050565b60008060006060848603121561441257600080fd5b61441b846140ad565b925060208401356001600160401b0381111561443657600080fd5b614442868287016140da565b92505060408401356006811061445757600080fd5b809150509250925092565b600981106142825761428261425c565b6020810161138a8284614462565b6000806040838503121561449357600080fd5b61449c836140ad565b915060208301356001600160401b038111156144b757600080fd5b6144c3858286016140da565b9150509250929050565b602081526000614304602083018461430b565b6000602082840312156144f257600080fd5b5035919050565b600681106142825761428261425c565b600481106142825761428261425c565b6001600160a01b038b811682528a166020820152604081018990526101406060820181905260009061454d8382018b614230565b91505061455d60808301896144f9565b61456a60a0830188614509565b8560c08301528460e0830152836101008301528215156101208301529b9a5050505050505050505050565b600080604083850312156145a857600080fd5b6145b1836140ad565b946020939093013593505050565b6001600160a01b03898116825288166020820152610100604082018190526000906145ec8382018a614230565b90506145fb6060840189614272565b828103608084015261460d8188614230565b60a0840196909652505060c0810192909252151560e09091015295945050505050565b6000806040838503121561464357600080fd5b82356001600160401b0381111561465957600080fd5b614665858286016140da565b925050614674602084016140ad565b90509250929050565b6000806040838503121561469057600080fd5b614699836140ad565b9150614674602084016140ad565b6001600160a01b03898116825288166020820152610100604082018190526000906146d48382018a614230565b60608401989098525050608081019490945260a0840192909252151560c083015260ff1660e0909101529392505050565b60006020808301818452808551808352604092508286019150828160051b87010184880160005b838110156147e657603f19898403018552815161014061474d8583516141ff565b8882015161475d8a8701826141ff565b508782015188860152606080830151828288015261477d83880182614230565b92505050608080830151614793828801826144f9565b505060a0808301516147a782880182614509565b505060c0828101519086015260e0808301519086015261010080830151908601526101209182015115159190940152938601939086019060010161472c565b509098975050505050505050565b6020815260006143046020830184614230565b803560078110611a5957600080fd5b600080600080600080600060e0888a03121561483157600080fd5b61483a886140ad565b9650614848602089016140ad565b955060408801356001600160401b038082111561486457600080fd5b6148708b838c016140da565b965061487e60608b01614807565b955060808a013591508082111561489457600080fd5b506148a18a828b016140da565b93505060a0880135915060c0880135905092959891949750929550565b6001600160a01b0385168152608081016148db6020830186614462565b60408201939093526060015292915050565b6000806000806080858703121561490357600080fd5b61490c856140ad565b935060208501356001600160401b038082111561492857600080fd5b614934888389016140da565b945061494260408801614807565b9350606087013591508082111561495857600080fd5b50614965878288016140da565b91505092959194509250565b60008083601f84011261498357600080fd5b5081356001600160401b0381111561499a57600080fd5b6020830191508360208285010111156149b257600080fd5b9250929050565b600080600080606085870312156149cf57600080fd5b84356001600160401b03808211156149e657600080fd5b6149f2888389016140da565b9550614a0060208801614807565b94506040870135915080821115614a1657600080fd5b50614a2387828801614971565b95989497509550505050565b60008060008060608587031215614a4557600080fd5b843560098110614a5457600080fd5b93506020850135925060408501356001600160401b03811115614a7657600080fd5b614a2387828801614971565b60006020808301818452808551808352604092508286019150828160051b87010184880160005b838110156147e657888303603f19018552815180516001600160a01b0390811685528882015160e08a87018190529190614ae583880182614230565b92505088830151614af88a880182614272565b5060608084015187840382890152614b108482614230565b608086810151908a015260a0808701511515908a015260c0958601519093169490970193909352968901969450505090860190600101614aa9565b60008251614b5d81846020870161420c565b9190910192915050565b600181811c90821680614b7b57607f821691505b602082108103614b9b57634e487b7160e01b600052602260045260246000fd5b50919050565b6020808252601d908201527f496e76616c696420636172652070726f76696465722061646472657373000000604082015260600190565b634e487b7160e01b600052603260045260246000fd5b634e487b7160e01b600052601160045260246000fd5b600060018201614c1657614c16614bee565b5060010190565b602080825260159082015274149958dbdc9908191bd95cc81b9bdd08195e1a5cdd605a1b604082015260600190565b602080825260159082015274496e76616c6964206f776e6572206164647265737360581b604082015260600190565b60609190911b6001600160601b031916815260140190565b60208082526014908201527324b73b30b634b2103932b1b7b9321037bbb732b960611b604082015260600190565b6001600160601b0319606086811b8216835285901b1660148201528251600090614cf281602885016020880161420c565b6028920191820192909252604801949350505050565b8082018082111561138a5761138a614bee565b601f821115614d6557600081815260208120601f850160051c81016020861015614d425750805b601f850160051c820191505b81811015614d6157828155600101614d4e565b5050505b505050565b81516001600160401b03811115614d8357614d836140c4565b614d9781614d918454614b67565b84614d1b565b602080601f831160018114614dcc5760008415614db45750858301515b600019600386901b1c1916600185901b178555614d61565b600085815260208120601f198616915b82811015614dfb57888601518255948401946001909101908401614ddc565b5085821015614e195787850151600019600388901b60f8161c191681555b5050505050600190811b01905550565b60208082526028908201527f4f6e6c792073797374656d206f776e65722063616e2063616c6c207468697320604082015267333ab731ba34b7b760c11b606082015260800190565b602080825260179082015276496e76616c69642070617469656e74206164647265737360481b604082015260600190565b6001600160601b0319606094851b811682529290931b9091166014830152602882015260480190565b602080825260169082015275496e76616c696420726571756573742073746174757360501b604082015260600190565b6020808252600f908201526e14995c5d595cdd08195e1c1a5c9959608a1b604082015260600190565b6000808354614f3281614b67565b60018281168015614f4a5760018114614f5f57614f8e565b60ff1984168752821515830287019450614f8e565b8760005260208060002060005b85811015614f855781548a820152908401908201614f6c565b50505082870194505b50929695505050505050565b60c081526000614fad60c0830189614230565b614fba6020840189614272565b8281036040840152614fcc8188614230565b606084019690965250506080810192909252151560a0909101529392505050565b6020808252601590820152745265636f726420616c72656164792065786973747360581b604082015260600190565b6020810161138a828461427256feef6ee312a0062a24a46be2eba5284183a87ff848110e8d4df979bd690d9e9f68d7b6990105719101dabeb77144f2a3385c8033acd3af97e9423a695e81ad1eb59a387978508c64b67d0ec39e75dc556f96f10430d94187ba4507c6dcd34cf329f9d13605c61f1ac6df0d817534f347f021b0fd7d8aa2e3ae8374001858cf825aa2646970667358221220a37c5c04641a7312ef047d36691bfb48d247c3619cd1060d59ba2803fb26da4264736f6c63430008130033",
  "immutableReferences": {},
  "source": "// SPDX-License-Identifier: MIT\r\npragma solidity ^0.8.0;\r\n\r\ncontract EHRmain {\r\n    // User roles\r\n    enum Role {\r\n        NONE,\r\n        PATIENT,\r\n        PROVIDER,\r\n        RESEARCHER,\r\n        HOSPITAL,\r\n        INSURANCE,\r\n        AMBULANCE,\r\n        PHARMACY,\r\n        LAB\r\n    }\r\n\r\n    // Data types\r\n    enum DataType {\r\n        EHR,\r\n        PHR,\r\n        LAB_RESULT,\r\n        PRESCRIPTION,\r\n        IMAGING,\r\n        INSURANCE_CLAIM,\r\n        EMERGENCY_RECORD\r\n    }\r\n\r\n    // Permission types\r\n    enum PermissionType {\r\n        VIEW,\r\n        EDIT,\r\n        EMERGENCY_ACCESS,\r\n        INSURANCE_PROCESSING,\r\n        LAB_PROCESSING,\r\n        PRESCRIPTION_PROCESSING\r\n    }\r\n\r\n    // Status of permission requests\r\n    enum RequestStatus {\r\n        PENDING,\r\n        APPROVED,\r\n        REJECTED,\r\n        EXPIRED\r\n    }\r\n\r\n    // Structs for storing user data\r\n    struct User {\r\n        address userAddress;\r\n        Role role;\r\n        uint256 registrationDate;\r\n        bytes32 publicKeyHash;\r\n    }\r\n\r\n    // Struct for health records metadata\r\n    struct HealthRecord {\r\n        address owner;\r\n        string ipfsCid;\r\n        DataType dataType;\r\n        string encryptedSymmetricKey;\r\n        uint256 timestamp;\r\n        bool isValid;\r\n        address provider;\r\n    }\r\n\r\n    struct approvedRecord {\r\n        address owner;\r\n        address careProvider;\r\n        string ipfsCid;\r\n        DataType dataType;\r\n        string encryptedSymmetricKey;\r\n        uint256 approvedDate;\r\n        uint256 expiryDate;\r\n        bool status;\r\n    }\r\n\r\n    // Struct for permission requests\r\n    struct PermissionRequest {\r\n        address requester;\r\n        address owner;\r\n        bytes32 requestId;\r\n        string ipfsCid;\r\n        PermissionType permissionType;\r\n        RequestStatus status;\r\n        uint256 requestDate;\r\n        uint256 expiryDate;\r\n        uint incentiveAmount;\r\n        bool isIncentiveBased;\r\n    }\r\n\r\n    // Struct to hold public and private keys\r\n    struct KeyPair {\r\n        string publicKeyForEncryption;\r\n    }\r\n\r\n    // State variables\r\n    mapping(address => User) public users;\r\n    mapping(string => HealthRecord) public healthRecords;\r\n    mapping(bytes32 => PermissionRequest) public permissionRequests;\r\n    mapping(address => mapping(string => mapping(address => bool))) public permissions;\r\n    mapping(address => approvedRecord[]) public approvedRecords;\r\n    mapping(string => approvedRecord) public approvedRecordsByID;\r\n    mapping(address => string[]) public ownerToHealthRecords;\r\n    mapping(address => KeyPair) public userKeys;\r\n    mapping(address => mapping(address => bool)) public emergencyAccesses;\r\n\r\n    // System variables\r\n    address public systemOwner;\r\n    uint256 public totalUsers;\r\n    uint256 public totalRecords;\r\n    uint256 public totalRequests;\r\n    bytes32[] public permissionRequestIds;\r\n\r\n    // Events\r\n    event UserRegistered(address indexed userAddress, Role role);\r\n    event HealthRecordAdded(string indexed ipfsCid, address indexed owner, DataType dataType);\r\n    event PermissionRequested(bytes32 requestId, address indexed requester, address indexed owner);\r\n    event PermissionGranted(bytes32 requestId, address indexed requester, address indexed owner);\r\n    event PermissionRevoked(string indexed ipfsCid, address indexed revokedUser);\r\n    event EmergencyAccess(address indexed provider, address indexed patient, uint256 timestamp);\r\n    event ApprovedRecordAdded(\r\n        address indexed owner,\r\n        address indexed careProvider,\r\n        string ipfsCid,\r\n        DataType dataType,\r\n        string encryptedSymmetricKey,\r\n        uint256 approvedDate,\r\n        uint256 expiryDate,\r\n        bool status\r\n    );\r\n\r\n    // Modifiers\r\n    modifier onlySystemOwner() {\r\n        require(msg.sender == systemOwner, \"Only system owner can call this function\");\r\n        _;\r\n    }\r\n\r\n    modifier onlyProvider() {\r\n        require(\r\n            users[msg.sender].role == Role.PROVIDER ||\r\n            users[msg.sender].role == Role.HOSPITAL ||\r\n            users[msg.sender].role == Role.LAB,\r\n            \"Only healthcare providers can call this function\"\r\n        );\r\n        _;\r\n    }\r\n\r\n    modifier onlyPatient() {\r\n        require(users[msg.sender].role == Role.PATIENT, \"Only patients can call this function\");\r\n        _;\r\n    }\r\n\r\n    modifier recordExists(string memory _ipfsCid) {\r\n        require(healthRecords[_ipfsCid].isValid, \"Record does not exist\");\r\n        _;\r\n    }\r\n\r\n    modifier onlyAmbulance() {\r\n        require(users[msg.sender].role == Role.AMBULANCE, \"Only ambulance services can call this function\");\r\n        _;\r\n    }\r\n\r\n    // Constructor\r\n    constructor() {\r\n        systemOwner = msg.sender;\r\n        totalUsers = 0;\r\n        totalRecords = 0;\r\n        totalRequests = 0;\r\n    }\r\n\r\n    // Registry Contract Functions\r\n    function registerUser(\r\n        Role _role,\r\n        bytes32 _publicKeyHash,\r\n        string calldata _publicKeyForEncryption\r\n    ) external returns (bool) {\r\n        require(users[msg.sender].userAddress == address(0), \"User already registered\");\r\n        require(_role != Role.NONE, \"Invalid role\");\r\n        require(\r\n            _role == Role.PATIENT ||\r\n            _role == Role.PROVIDER ||\r\n            _role == Role.RESEARCHER ||\r\n            _role == Role.HOSPITAL ||\r\n            _role == Role.INSURANCE ||\r\n            _role == Role.AMBULANCE ||\r\n            _role == Role.PHARMACY ||\r\n            _role == Role.LAB,\r\n            \"Invalid role type\"\r\n        );\r\n\r\n        users[msg.sender] = User({\r\n            userAddress: msg.sender,\r\n            role: _role,\r\n            registrationDate: block.timestamp,\r\n            publicKeyHash: _publicKeyHash\r\n        });\r\n\r\n        userKeys[msg.sender] = KeyPair({\r\n            publicKeyForEncryption: _publicKeyForEncryption\r\n        });\r\n\r\n        totalUsers++;\r\n        emit UserRegistered(msg.sender, _role);\r\n        return true;\r\n    }\r\n\r\n    function getKeyPair(address userAddress) external view returns (string memory) {\r\n        require(users[userAddress].userAddress != address(0), \"User not registered\");\r\n        KeyPair memory keys = userKeys[userAddress];\r\n        return (keys.publicKeyForEncryption);\r\n    }\r\n\r\n    function checkUser(address _userAddress) public view returns (Role) {\r\n        return users[_userAddress].role;\r\n    }\r\n\r\n    function addEHRData(\r\n        address _patientAddress,\r\n        string memory _ipfsCid,\r\n        DataType _dataType,\r\n        string memory _encryptedSymmetricKey\r\n    ) external onlyProvider returns (bool) {\r\n        require(_patientAddress != address(0), \"Invalid patient address\");\r\n        require(bytes(healthRecords[_ipfsCid].ipfsCid).length == 0, \"Record already exists\");\r\n\r\n        Role patientRole = checkUser(_patientAddress);\r\n        require(patientRole == Role.PATIENT, \"Invalid patient\");\r\n\r\n        healthRecords[_ipfsCid] = HealthRecord({\r\n            owner: _patientAddress,\r\n            ipfsCid: _ipfsCid,\r\n            dataType: _dataType,\r\n            encryptedSymmetricKey: _encryptedSymmetricKey,\r\n            timestamp: block.timestamp,\r\n            isValid: true,\r\n            provider: msg.sender\r\n        });\r\n\r\n        ownerToHealthRecords[_patientAddress].push(_ipfsCid);\r\n\r\n        totalRecords++;\r\n        emit HealthRecordAdded(_ipfsCid, _patientAddress, _dataType);\r\n        return true;\r\n    }\r\n\r\n    function addPHRData(\r\n        string memory _ipfsCid,\r\n        DataType _dataType,\r\n        string calldata _encryptedSymmetricKey\r\n    ) external onlyPatient returns (bool) {\r\n        require(bytes(healthRecords[_ipfsCid].ipfsCid).length == 0, \"Record already exists\");\r\n\r\n        healthRecords[_ipfsCid] = HealthRecord({\r\n            owner: msg.sender,\r\n            ipfsCid: _ipfsCid,\r\n            dataType: _dataType,\r\n            encryptedSymmetricKey: _encryptedSymmetricKey,\r\n            timestamp: block.timestamp,\r\n            isValid: true,\r\n            provider: msg.sender\r\n        });\r\n\r\n        ownerToHealthRecords[msg.sender].push(_ipfsCid);\r\n\r\n        totalRecords++;\r\n        emit HealthRecordAdded(_ipfsCid, msg.sender, _dataType);\r\n        return true;\r\n    }\r\n\r\n    function addApprovedRecord(\r\n        address _owner,\r\n        address _careProvider,\r\n        string memory _ipfsCid,\r\n        DataType _dataType,\r\n        string memory _encryptedSymmetricKey,\r\n        uint256 _approvedDate,\r\n        uint256 _expiryDate\r\n    ) public {\r\n        require(_owner != address(0), \"Invalid owner address\");\r\n        require(_careProvider != address(0), \"Invalid care provider address\");\r\n        require(bytes(_ipfsCid).length > 0, \"IPFS CID cannot be empty\");\r\n        require(_approvedDate <= block.timestamp, \"Approved date cannot be in the future\");\r\n        require(_expiryDate > _approvedDate, \"Expiry date must be after approved date\");\r\n\r\n        approvedRecord memory newRecord = approvedRecord({\r\n            owner: _owner,\r\n            careProvider: _careProvider,\r\n            ipfsCid: _ipfsCid,\r\n            dataType: _dataType,\r\n            encryptedSymmetricKey: _encryptedSymmetricKey,\r\n            approvedDate: block.timestamp,\r\n            expiryDate: _expiryDate,\r\n            status: true\r\n        });\r\n\r\n        approvedRecords[_careProvider].push(newRecord);\r\n        approvedRecordsByID[_ipfsCid] = newRecord;\r\n\r\n        emit ApprovedRecordAdded(\r\n            _owner,\r\n            _careProvider,\r\n            _ipfsCid,\r\n            _dataType,\r\n            _encryptedSymmetricKey,\r\n            _approvedDate,\r\n            _expiryDate,\r\n            true\r\n        );\r\n    }\r\n\r\n    function requestNonIncentiveBasedPermission(\r\n        address _owner,\r\n        string memory _ipfsCid,\r\n        PermissionType _permissionType\r\n    ) external recordExists(_ipfsCid) returns (bytes32) {\r\n        require(_owner != address(0), \"Invalid owner address\");\r\n        require(\r\n            keccak256(abi.encodePacked(healthRecords[_ipfsCid].owner)) ==\r\n                keccak256(abi.encodePacked(_owner)),\r\n            \"Invalid record owner\"\r\n        );\r\n\r\n        bytes32 requestId = keccak256(\r\n            abi.encodePacked(msg.sender, _owner, _ipfsCid, block.timestamp)\r\n        );\r\n\r\n        permissionRequests[requestId] = PermissionRequest({\r\n            requester: msg.sender,\r\n            owner: _owner,\r\n            requestId: requestId,\r\n            ipfsCid: _ipfsCid,\r\n            permissionType: _permissionType,\r\n            status: RequestStatus.PENDING,\r\n            requestDate: block.timestamp,\r\n            expiryDate: block.timestamp + 30 days,\r\n            incentiveAmount: 0,\r\n            isIncentiveBased: false\r\n        });\r\n\r\n        totalRequests++;\r\n        emit PermissionRequested(requestId, msg.sender, _owner);\r\n        permissionRequestIds.push(requestId);\r\n        return requestId;\r\n    }\r\n\r\n    function requestIncentiveBasedPermission(\r\n        address _owner,\r\n        string memory _ipfsCid,\r\n        PermissionType _permissionType\r\n    ) external payable recordExists(_ipfsCid) returns (bytes32) {\r\n        require(_owner != address(0), \"Invalid owner address\");\r\n        require(msg.value > 0, \"Incentive amount required\");\r\n        require(\r\n            keccak256(abi.encodePacked(healthRecords[_ipfsCid].owner)) ==\r\n                keccak256(abi.encodePacked(_owner)),\r\n            \"Invalid record owner\"\r\n        );\r\n\r\n        bytes32 requestId = keccak256(\r\n            abi.encodePacked(msg.sender, _owner, _ipfsCid, block.timestamp)\r\n        );\r\n\r\n        permissionRequests[requestId] = PermissionRequest({\r\n            requester: msg.sender,\r\n            owner: _owner,\r\n            requestId: requestId,\r\n            ipfsCid: _ipfsCid,\r\n            permissionType: _permissionType,\r\n            status: RequestStatus.PENDING,\r\n            requestDate: block.timestamp,\r\n            expiryDate: block.timestamp + 30 days,\r\n            incentiveAmount: msg.value,\r\n            isIncentiveBased: true\r\n        });\r\n\r\n        totalRequests++;\r\n        emit PermissionRequested(requestId, msg.sender, _owner);\r\n        permissionRequestIds.push(requestId);\r\n        return requestId;\r\n    }\r\n\r\n    function getPendingRequestsForPatient(address patient) external view returns (PermissionRequest[] memory) {\r\n        uint256 count = 0;\r\n\r\n        for (uint256 i = 0; i < permissionRequestIds.length; i++) {\r\n            bytes32 requestId = permissionRequestIds[i];\r\n            PermissionRequest storage request = permissionRequests[requestId];\r\n\r\n            if (request.owner == patient) {\r\n                count++;\r\n            }\r\n        }\r\n\r\n        PermissionRequest[] memory pendingRequests = new PermissionRequest[](count);\r\n        uint256 index = 0;\r\n\r\n        for (uint256 i = 0; i < permissionRequestIds.length; i++) {\r\n            bytes32 requestId = permissionRequestIds[i];\r\n            PermissionRequest storage request = permissionRequests[requestId];\r\n\r\n            if (request.owner == patient) {\r\n                pendingRequests[index] = request;\r\n                index++;\r\n            }\r\n        }\r\n        return pendingRequests;\r\n    }\r\n\r\n    function approvePermission(bytes32 _requestId) external returns (bool) {\r\n        PermissionRequest storage request = permissionRequests[_requestId];\r\n        require(request.owner == msg.sender, \"Only owner can approve\");\r\n        require(request.status == RequestStatus.PENDING, \"Invalid request status\");\r\n        require(block.timestamp <= request.expiryDate, \"Request expired\");\r\n\r\n        request.status = RequestStatus.APPROVED;\r\n        permissions[request.owner][request.ipfsCid][request.requester] = true;\r\n\r\n        if (request.isIncentiveBased) {\r\n            payable(request.owner).transfer(request.incentiveAmount);\r\n        }\r\n\r\n        emit PermissionGranted(_requestId, request.requester, request.owner);\r\n        return true;\r\n    }\r\n\r\n    function revokePermission(string memory _ipfsCid, address _user) \r\n        external \r\n        recordExists(_ipfsCid) \r\n        returns (bool) \r\n    {\r\n        require(\r\n            msg.sender == healthRecords[_ipfsCid].owner || msg.sender == systemOwner,\r\n            \"Only owner or system owner can revoke permissions\"\r\n        );\r\n        \r\n        permissions[healthRecords[_ipfsCid].owner][_ipfsCid][_user] = false;\r\n        emit PermissionRevoked(_ipfsCid, _user);\r\n        return true;\r\n    }\r\n\r\n    function getHealthRecordsByOwner(address userAddress) public view returns (HealthRecord[] memory) {\r\n        uint256 totalRecordsForOwner = ownerToHealthRecords[userAddress].length;\r\n        HealthRecord[] memory records = new HealthRecord[](totalRecordsForOwner);\r\n\r\n        for (uint256 i = 0; i < totalRecordsForOwner; i++) {\r\n            string memory ipfsCid = ownerToHealthRecords[userAddress][i];\r\n            HealthRecord memory record = healthRecords[ipfsCid];\r\n            records[i] = record;\r\n        }\r\n        return records;\r\n    }\r\n\r\n    function getHealthRecordByIpfs(string memory recordId)\r\n        public\r\n        view\r\n        returns (\r\n            address owner,\r\n            string memory ipfsCid,\r\n            DataType dataType,\r\n            string memory encryptedSymmetricKey,\r\n            uint256 timestamp,\r\n            bool isValid,\r\n            address provider\r\n        )\r\n    {\r\n        HealthRecord memory record = healthRecords[recordId];\r\n        return (\r\n            record.owner,\r\n            record.ipfsCid,\r\n            record.dataType,\r\n            record.encryptedSymmetricKey,\r\n            record.timestamp,\r\n            record.isValid,\r\n            record.provider\r\n        );\r\n    }\r\n\r\n    function getRecordsByCareProvider(address _careProvider) \r\n        public \r\n        view \r\n        returns (approvedRecord[] memory) \r\n    {\r\n        require(_careProvider != address(0), \"Invalid care provider address\");\r\n\r\n        uint256 totalRecordsForCareProvider = approvedRecords[_careProvider].length;\r\n        approvedRecord[] memory records = new approvedRecord[](totalRecordsForCareProvider);\r\n\r\n        for (uint256 j = 0; j < approvedRecords[_careProvider].length; j++) {\r\n            approvedRecord memory record = approvedRecords[_careProvider][j];\r\n            records[j] = record;\r\n        }\r\n        return records;\r\n    }\r\n\r\n    function getRecordsForResearcher(address requester, string memory recordId) \r\n        public \r\n        view \r\n        returns (approvedRecord memory) \r\n    {\r\n        require(requester != address(0), \"Invalid address\");\r\n        require(users[requester].role == Role.RESEARCHER, \"Only researchers can access this function\");\r\n\r\n        approvedRecord memory record = approvedRecordsByID[recordId];\r\n        require(record.status, \"Record is not active\");\r\n        require(block.timestamp <= record.expiryDate, \"Access has expired\");\r\n\r\n        return record;\r\n    }\r\n\r\n    function invalidateRecord(string memory _ipfsCid) \r\n        external \r\n        recordExists(_ipfsCid) \r\n        onlySystemOwner \r\n    {\r\n        healthRecords[_ipfsCid].isValid = false;\r\n    }\r\n\r\n    function getPermissionRequest(bytes32 requestId)\r\n        public\r\n        view\r\n        returns (\r\n            address requester,\r\n            address owner,\r\n            string memory ipfsCid,\r\n            uint256 requestDate,\r\n            uint256 expiryDate,\r\n            uint256 incentiveAmount,\r\n            bool isIncentiveBased,\r\n            uint8 status\r\n        )\r\n    {\r\n        PermissionRequest storage request = permissionRequests[requestId];\r\n        return (\r\n            request.requester,\r\n            request.owner,\r\n            request.ipfsCid,\r\n            request.requestDate,\r\n            request.expiryDate,\r\n            request.incentiveAmount,\r\n            request.isIncentiveBased,\r\n            uint8(request.status)\r\n        );\r\n    }\r\n\r\n    function emergencyAccess(address _patientAddress) external onlyAmbulance returns (bool) {\r\n        require(users[_patientAddress].role == Role.PATIENT, \"Invalid patient address\");\r\n        \r\n        bytes32 requestId = keccak256(\r\n            abi.encodePacked(msg.sender, _patientAddress, block.timestamp)\r\n        );\r\n\r\n        permissionRequests[requestId] = PermissionRequest({\r\n            requestId: requestId,\r\n            requester: msg.sender,\r\n            owner: _patientAddress,\r\n            ipfsCid: \"\",\r\n            permissionType: PermissionType.EMERGENCY_ACCESS,\r\n            status: RequestStatus.APPROVED,\r\n            requestDate: block.timestamp,\r\n            expiryDate: block.timestamp + 24 hours,\r\n            incentiveAmount: 0,\r\n            isIncentiveBased: false\r\n        });\r\n\r\n        emergencyAccesses[msg.sender][_patientAddress] = true;\r\n        emit EmergencyAccess(msg.sender, _patientAddress, block.timestamp);\r\n        return true;\r\n    }\r\n\r\n    function checkEmergencyAccess(address _ambulance, address _patient) \r\n        public \r\n        view \r\n        returns (bool) \r\n    {\r\n        return emergencyAccesses[_ambulance][_patient];\r\n    }\r\n\r\n    function revokeEmergencyAccess(address _ambulance, address _patient) \r\n        external \r\n        onlySystemOwner \r\n        returns (bool) \r\n    {\r\n        require(emergencyAccesses[_ambulance][_patient], \"No emergency access exists\");\r\n        emergencyAccesses[_ambulance][_patient] = false;\r\n        return true;\r\n    }\r\n\r\n    function requestBatchAccess(address _owner) external returns (bytes32) {\r\n        require(_owner != address(0), \"Invalid owner address\");\r\n        require(users[_owner].role == Role.PATIENT, \"Owner must be a patient\");\r\n        \r\n        bytes32 requestId = keccak256(\r\n            abi.encodePacked(msg.sender, _owner, block.timestamp)\r\n        );\r\n        \r\n        permissionRequests[requestId] = PermissionRequest({\r\n            requester: msg.sender,\r\n            owner: _owner,\r\n            requestId: requestId,\r\n            ipfsCid: \"\", // Empty IPFS CID indicates batch access request\r\n            permissionType: PermissionType.VIEW,\r\n            status: RequestStatus.PENDING,\r\n            requestDate: block.timestamp,\r\n            expiryDate: block.timestamp + 30 days,\r\n            incentiveAmount: 0,\r\n            isIncentiveBased: false\r\n        });\r\n        \r\n        totalRequests++;\r\n        emit PermissionRequested(requestId, msg.sender, _owner);\r\n        permissionRequestIds.push(requestId);\r\n        return requestId;\r\n    }\r\n\r\n    function approveBatchAccess(bytes32 _requestId) external returns (bool) {\r\n        require(permissionRequests[_requestId].owner == msg.sender, \"Only the owner can approve\");\r\n        require(permissionRequests[_requestId].status == RequestStatus.PENDING, \"Invalid request status\");\r\n        require(block.timestamp <= permissionRequests[_requestId].expiryDate, \"Request expired\");\r\n\r\n        permissionRequests[_requestId].status = RequestStatus.APPROVED;\r\n        \r\n        // Grant permissions for all records owned by the patient\r\n        string[] memory patientRecords = ownerToHealthRecords[msg.sender];\r\n        for (uint i = 0; i < patientRecords.length; i++) {\r\n            permissions[msg.sender][patientRecords[i]][permissionRequests[_requestId].requester] = true;\r\n            \r\n            // Add to approved records\r\n            HealthRecord memory record = healthRecords[patientRecords[i]];\r\n            addApprovedRecord(\r\n                msg.sender,\r\n                permissionRequests[_requestId].requester,\r\n                patientRecords[i],\r\n                record.dataType,\r\n                record.encryptedSymmetricKey,\r\n                block.timestamp,\r\n                permissionRequests[_requestId].expiryDate\r\n            );\r\n        }\r\n\r\n        emit PermissionGranted(_requestId, permissionRequests[_requestId].requester, msg.sender);\r\n        return true;\r\n    }\r\n}\r\n\r\n",
  "sourcePath": "C:\\Users\\anmol\\OneDrive\\Desktop\\DigiArogya\\contract\\contracts\\EHRmain.sol",
  "compiler": {
    "name": "solc",
    "version": "0.8.19+commit.7dd6d404.Emscripten.clang"
  },
  "schemaVersion": "3.4.16",
  "updatedAt": "2025-07-12T21:29:36.993Z",
  "devdoc": {
    "kind": "dev",
    "methods": {},
    "version": 1
  },
  "userdoc": {
    "kind": "user",
    "methods": {},
    "version": 1
  }
}