{
  "contractName": "InsuranceContract",
  "abi": [
    {
      "inputs": [],
      "stateMutability": "nonpayable",
      "type": "constructor"
    },
    {
      "anonymous": false,
      "inputs": [
        {
          "indexed": true,
          "internalType": "uint256",
          "name": "claimId",
          "type": "uint256"
        },
        {
          "indexed": true,
          "internalType": "address",
          "name": "patient",
          "type": "address"
        },
        {
          "indexed": false,
          "internalType": "string",
          "name": "status",
          "type": "string"
        }
      ],
      "name": "InsuranceClaimProcessed",
      "type": "event"
    },
    {
      "anonymous": false,
      "inputs": [
        {
          "indexed": true,
          "internalType": "uint256",
          "name": "claimId",
          "type": "uint256"
        },
        {
          "indexed": true,
          "internalType": "address",
          "name": "patient",
          "type": "address"
        },
        {
          "indexed": false,
          "internalType": "uint256",
          "name": "amount",
          "type": "uint256"
        },
        {
          "indexed": false,
          "internalType": "string",
          "name": "plan",
          "type": "string"
        }
      ],
      "name": "InsuranceClaimSubmitted",
      "type": "event"
    },
    {
      "anonymous": false,
      "inputs": [
        {
          "indexed": true,
          "internalType": "address",
          "name": "user",
          "type": "address"
        },
        {
          "indexed": false,
          "internalType": "enum InsuranceContract.Role",
          "name": "role",
          "type": "uint8"
        }
      ],
      "name": "UserRegistered",
      "type": "event"
    },
    {
      "inputs": [
        {
          "internalType": "uint256",
          "name": "",
          "type": "uint256"
        }
      ],
      "name": "allInsuranceClaims",
      "outputs": [
        {
          "internalType": "uint256",
          "name": "claimId",
          "type": "uint256"
        },
        {
          "internalType": "address",
          "name": "patient",
          "type": "address"
        },
        {
          "internalType": "string",
          "name": "plan",
          "type": "string"
        },
        {
          "internalType": "uint256",
          "name": "amount",
          "type": "uint256"
        },
        {
          "internalType": "string",
          "name": "description",
          "type": "string"
        },
        {
          "internalType": "string",
          "name": "status",
          "type": "string"
        },
        {
          "internalType": "uint256",
          "name": "timestamp",
          "type": "uint256"
        },
        {
          "internalType": "string",
          "name": "ipfsHash",
          "type": "string"
        }
      ],
      "stateMutability": "view",
      "type": "function",
      "constant": true
    },
    {
      "inputs": [
        {
          "internalType": "address",
          "name": "",
          "type": "address"
        },
        {
          "internalType": "uint256",
          "name": "",
          "type": "uint256"
        }
      ],
      "name": "insuranceClaims",
      "outputs": [
        {
          "internalType": "uint256",
          "name": "claimId",
          "type": "uint256"
        },
        {
          "internalType": "address",
          "name": "patient",
          "type": "address"
        },
        {
          "internalType": "string",
          "name": "plan",
          "type": "string"
        },
        {
          "internalType": "uint256",
          "name": "amount",
          "type": "uint256"
        },
        {
          "internalType": "string",
          "name": "description",
          "type": "string"
        },
        {
          "internalType": "string",
          "name": "status",
          "type": "string"
        },
        {
          "internalType": "uint256",
          "name": "timestamp",
          "type": "uint256"
        },
        {
          "internalType": "string",
          "name": "ipfsHash",
          "type": "string"
        }
      ],
      "stateMutability": "view",
      "type": "function",
      "constant": true
    },
    {
      "inputs": [],
      "name": "nextClaimId",
      "outputs": [
        {
          "internalType": "uint256",
          "name": "",
          "type": "uint256"
        }
      ],
      "stateMutability": "view",
      "type": "function",
      "constant": true
    },
    {
      "inputs": [],
      "name": "systemOwner",
      "outputs": [
        {
          "internalType": "address",
          "name": "",
          "type": "address"
        }
      ],
      "stateMutability": "view",
      "type": "function",
      "constant": true
    },
    {
      "inputs": [
        {
          "internalType": "address",
          "name": "",
          "type": "address"
        }
      ],
      "name": "users",
      "outputs": [
        {
          "internalType": "address",
          "name": "userAddress",
          "type": "address"
        },
        {
          "internalType": "enum InsuranceContract.Role",
          "name": "role",
          "type": "uint8"
        },
        {
          "internalType": "uint256",
          "name": "registrationDate",
          "type": "uint256"
        }
      ],
      "stateMutability": "view",
      "type": "function",
      "constant": true
    },
    {
      "inputs": [
        {
          "internalType": "enum InsuranceContract.Role",
          "name": "_role",
          "type": "uint8"
        }
      ],
      "name": "registerUser",
      "outputs": [
        {
          "internalType": "bool",
          "name": "",
          "type": "bool"
        }
      ],
      "stateMutability": "nonpayable",
      "type": "function"
    },
    {
      "inputs": [
        {
          "internalType": "address",
          "name": "_userAddress",
          "type": "address"
        }
      ],
      "name": "checkUser",
      "outputs": [
        {
          "internalType": "enum InsuranceContract.Role",
          "name": "",
          "type": "uint8"
        }
      ],
      "stateMutability": "view",
      "type": "function",
      "constant": true
    },
    {
      "inputs": [
        {
          "internalType": "address",
          "name": "patient",
          "type": "address"
        },
        {
          "internalType": "string",
          "name": "plan",
          "type": "string"
        },
        {
          "internalType": "uint256",
          "name": "amount",
          "type": "uint256"
        },
        {
          "internalType": "string",
          "name": "description",
          "type": "string"
        },
        {
          "internalType": "string",
          "name": "ipfsHash",
          "type": "string"
        }
      ],
      "name": "addInsuranceClaim",
      "outputs": [],
      "stateMutability": "nonpayable",
      "type": "function"
    },
    {
      "inputs": [
        {
          "internalType": "address",
          "name": "patient",
          "type": "address"
        }
      ],
      "name": "getInsuranceClaims",
      "outputs": [
        {
          "components": [
            {
              "internalType": "uint256",
              "name": "claimId",
              "type": "uint256"
            },
            {
              "internalType": "address",
              "name": "patient",
              "type": "address"
            },
            {
              "internalType": "string",
              "name": "plan",
              "type": "string"
            },
            {
              "internalType": "uint256",
              "name": "amount",
              "type": "uint256"
            },
            {
              "internalType": "string",
              "name": "description",
              "type": "string"
            },
            {
              "internalType": "string",
              "name": "status",
              "type": "string"
            },
            {
              "internalType": "uint256",
              "name": "timestamp",
              "type": "uint256"
            },
            {
              "internalType": "string",
              "name": "ipfsHash",
              "type": "string"
            }
          ],
          "internalType": "struct InsuranceContract.InsuranceClaim[]",
          "name": "",
          "type": "tuple[]"
        }
      ],
      "stateMutability": "view",
      "type": "function",
      "constant": true
    },
    {
      "inputs": [],
      "name": "getAllInsuranceClaims",
      "outputs": [
        {
          "components": [
            {
              "internalType": "uint256",
              "name": "claimId",
              "type": "uint256"
            },
            {
              "internalType": "address",
              "name": "patient",
              "type": "address"
            },
            {
              "internalType": "string",
              "name": "plan",
              "type": "string"
            },
            {
              "internalType": "uint256",
              "name": "amount",
              "type": "uint256"
            },
            {
              "internalType": "string",
              "name": "description",
              "type": "string"
            },
            {
              "internalType": "string",
              "name": "status",
              "type": "string"
            },
            {
              "internalType": "uint256",
              "name": "timestamp",
              "type": "uint256"
            },
            {
              "internalType": "string",
              "name": "ipfsHash",
              "type": "string"
            }
          ],
          "internalType": "struct InsuranceContract.InsuranceClaim[]",
          "name": "",
          "type": "tuple[]"
        }
      ],
      "stateMutability": "view",
      "type": "function",
      "constant": true
    },
    {
      "inputs": [
        {
          "internalType": "uint256",
          "name": "claimId",
          "type": "uint256"
        },
        {
          "internalType": "bool",
          "name": "approve",
          "type": "bool"
        }
      ],
      "name": "processInsuranceClaim",
      "outputs": [],
      "stateMutability": "nonpayable",
      "type": "function"
    },
    {
      "inputs": [],
      "name": "addSampleData",
      "outputs": [],
      "stateMutability": "nonpayable",
      "type": "function"
    }
  ],
  "bytecode": "0x6080604052600160045534801561001557600080fd5b50600080546001600160a01b0319163390811790915560408051606081019091529081526020810160028152426020918201523360009081526001825260409020825181546001600160a01b03919091166001600160a01b031982168117835592840151919283916001600160a81b03191617600160a01b83600281111561009f5761009f6100b6565b0217905550604082015181600101559050506100cc565b634e487b7160e01b600052602160045260246000fd5b611d8c806100db6000396000f3fe608060405234801561001057600080fd5b50600436106100b45760003560e01c80637de69e4c116100715780637de69e4c1461019b578063893ea310146101a3578063a0021cf1146101b8578063a7ea6209146101cf578063a80bc0f6146101e2578063a87430ba146101f557600080fd5b806302b8c8cd146100b95780630e0ff2b8146100e15780631e9d48cf146100f6578063337792541461013657806342c62754146101615780636d752ee514610174575b600080fd5b6100cc6100c736600461174c565b610241565b60405190151581526020015b60405180910390f35b6100f46100ef366004611833565b61044a565b005b6101296101043660046118d6565b6001600160a01b0316600090815260016020526040902054600160a01b900460ff1690565b6040516100d89190611929565b600054610149906001600160a01b031681565b6040516001600160a01b0390911681526020016100d8565b6100f461016f36600461193d565b6108a8565b610187610182366004611972565b610c5e565b6040516100d89897969594939291906119d1565b6100f4610edd565b6101ab61112b565b6040516100d89190611a53565b6101c160045481565b6040519081526020016100d8565b6101ab6101dd3660046118d6565b611407565b6101876101f0366004611b47565b6116f9565b6102326102033660046118d6565b600160208190526000918252604090912080549101546001600160a01b03821691600160a01b900460ff169083565b6040516100d893929190611b71565b336000908152600160205260408120546001600160a01b0316156102ac5760405162461bcd60e51b815260206004820152601760248201527f5573657220616c7265616479207265676973746572656400000000000000000060448201526064015b60405180910390fd5b60008260028111156102c0576102c06118f1565b036102fc5760405162461bcd60e51b815260206004820152600c60248201526b496e76616c696420726f6c6560a01b60448201526064016102a3565b6001826002811115610310576103106118f1565b148061032d5750600282600281111561032b5761032b6118f1565b145b61036d5760405162461bcd60e51b8152602060048201526011602482015270496e76616c696420726f6c65207479706560781b60448201526064016102a3565b6040518060600160405280336001600160a01b03168152602001836002811115610399576103996118f1565b8152426020918201523360009081526001825260409020825181546001600160a01b03919091166001600160a01b031982168117835592840151919283916001600160a81b03191617600160a01b8360028111156103f9576103f96118f1565b02179055506040918201516001909101555133907f8e18574f8a7333e6a87112742a55853a643e2f0550f4e1a3a2c3f1bb2994441d9061043a908590611929565b60405180910390a2506001919050565b600084511161049b5760405162461bcd60e51b815260206004820152601e60248201527f496e737572616e636520706c616e2063616e6e6f7420626520656d707479000060448201526064016102a3565b600083116104f75760405162461bcd60e51b815260206004820152602360248201527f436c61696d20616d6f756e74206d75737420626520677265617465722074686160448201526206e20360ec1b60648201526084016102a3565b60008251116105485760405162461bcd60e51b815260206004820152601b60248201527f4465736372697074696f6e2063616e6e6f7420626520656d707479000000000060448201526064016102a3565b6001600160a01b03851661059e5760405162461bcd60e51b815260206004820152601760248201527f496e76616c69642070617469656e74206164647265737300000000000000000060448201526064016102a3565b336001600160a01b03861614806105bf57506000546001600160a01b031633145b6106265760405162461bcd60e51b815260206004820152603260248201527f4f6e6c792070617469656e74206f722073797374656d206f776e65722063616e604482015271207375626d6974207468697320636c61696d60701b60648201526084016102a3565b604080516101008101825260045481526001600160a01b0387811660208084018281528486018a8152606086018a90526080860189905286518088018852600781526650656e64696e6760c81b8185015260a08701524260c087015260e0860188905260009384526002808452968420805460018082018355918652939094208651600890940201928355905192820180546001600160a01b03191693909416929092179092555191928392908201906106e09082611c25565b5060608201516003820155608082015160048201906106ff9082611c25565b5060a082015160058201906107149082611c25565b5060c0820151600682015560e082015160078201906107339082611c25565b50506003805460018101825560009190915282517fc2575a0e9e593c00f959f8c92f12db2869c3395a3b0502d05e2516446f71f85b600890920291820190815560208401517fc2575a0e9e593c00f959f8c92f12db2869c3395a3b0502d05e2516446f71f85c830180546001600160a01b0319166001600160a01b03909216919091179055604084015184935090917fc2575a0e9e593c00f959f8c92f12db2869c3395a3b0502d05e2516446f71f85d01906107ef9082611c25565b50606082015160038201556080820151600482019061080e9082611c25565b5060a082015160058201906108239082611c25565b5060c0820151600682015560e082015160078201906108429082611c25565b505050856001600160a01b03166004547fd742cf5f4c746956286ca47d4c983706886e5f3c99c2579b77610edaecebacfa8688604051610883929190611ce5565b60405180910390a36004805490600061089b83611d06565b9190505550505050505050565b600233600090815260016020526040902054600160a01b900460ff1660028111156108d5576108d56118f1565b14806108eb57506000546001600160a01b031633145b61094f5760405162461bcd60e51b815260206004820152602f60248201527f4f6e6c7920696e737572616e63652070726f7669646572732063616e2063616c60448201526e36103a3434b990333ab731ba34b7b760891b60648201526084016102a3565b600082118015610960575060045482105b61099f5760405162461bcd60e51b815260206004820152601060248201526f125b9d985b1a590818db185a5b48125160821b60448201526064016102a3565b60005b600354811015610c1f5782600382815481106109c0576109c0611d2d565b90600052602060002090600802016000015403610c0d5760608215610a565760405180604001604052806008815260200167105c1c1c9bdd995960c21b81525060038381548110610a1357610a13611d2d565b90600052602060002090600802016005019081610a309190611c25565b5050604080518082019091526008815267105c1c1c9bdd995960c21b6020820152610ac9565b6040518060400160405280600881526020016714995a9958dd195960c21b81525060038381548110610a8a57610a8a611d2d565b90600052602060002090600802016005019081610aa79190611c25565b505060408051808201909152600881526714995a9958dd195960c21b60208201525b600060038381548110610ade57610ade611d2d565b600091825260208220600160089092020101546001600160a01b031691505b6001600160a01b038216600090815260026020526040902054811015610bc3576001600160a01b0382166000908152600260205260409020805487919083908110610b4a57610b4a611d2d565b90600052602060002090600802016000015403610bb1576001600160a01b0382166000908152600260205260409020805484919083908110610b8e57610b8e611d2d565b90600052602060002090600802016005019081610bab9190611c25565b50610bc3565b80610bbb81611d06565b915050610afd565b50806001600160a01b0316857f4440e28e59460d4ec5f76f01d96315e2c7c2b18c16b018a33160b0f39e3959d684604051610bfe9190611d43565b60405180910390a35050505050565b80610c1781611d06565b9150506109a2565b5060405162461bcd60e51b815260206004820152600f60248201526e10db185a5b481b9bdd08199bdd5b99608a1b60448201526064016102a3565b5050565b60038181548110610c6e57600080fd5b60009182526020909120600890910201805460018201546002830180549294506001600160a01b039091169291610ca490611b9c565b80601f0160208091040260200160405190810160405280929190818152602001828054610cd090611b9c565b8015610d1d5780601f10610cf257610100808354040283529160200191610d1d565b820191906000526020600020905b815481529060010190602001808311610d0057829003601f168201915b505050505090806003015490806004018054610d3890611b9c565b80601f0160208091040260200160405190810160405280929190818152602001828054610d6490611b9c565b8015610db15780601f10610d8657610100808354040283529160200191610db1565b820191906000526020600020905b815481529060010190602001808311610d9457829003601f168201915b505050505090806005018054610dc690611b9c565b80601f0160208091040260200160405190810160405280929190818152602001828054610df290611b9c565b8015610e3f5780601f10610e1457610100808354040283529160200191610e3f565b820191906000526020600020905b815481529060010190602001808311610e2257829003601f168201915b505050505090806006015490806007018054610e5a90611b9c565b80601f0160208091040260200160405190810160405280929190818152602001828054610e8690611b9c565b8015610ed35780601f10610ea857610100808354040283529160200191610ed3565b820191906000526020600020905b815481529060010190602001808311610eb657829003601f168201915b5050505050905088565b6000546001600160a01b03163314610f485760405162461bcd60e51b815260206004820152602860248201527f4f6e6c792073797374656d206f776e65722063616e2063616c6c207468697320604482015267333ab731ba34b7b760c11b60648201526084016102a3565b60007312345678901234567890123456789012345678909050600073abcdef1234567890123456789012345678901234905061100b826040518060400160405280601081526020016f2432b0b63a341028363ab990283630b760811b8152506103e86040518060400160405280601f81526020017f526f7574696e6520636865636b757020616e6420626c6f6f64207465737473008152506040518060400160405280600d81526020016c516d53616d706c65486173683160981b81525061044a565b611090826040518060400160405280601081526020016f2432b0b63a341028363ab990283630b760811b8152506109c460405180604001604052806011815260200170456d657267656e6379207375726765727960781b8152506040518060400160405280600d81526020016c28b6a9b0b6b83632a430b9b41960991b81525061044a565b61111481604051806040016040528060118152602001702130b9b4b1902432b0b63a3410283630b760791b8152506101f46040518060400160405280600f81526020016e44656e74616c20636c65616e696e6760881b8152506040518060400160405280600d81526020016c516d53616d706c65486173683360981b81525061044a565b61111f6001806108a8565b610c5a600360006108a8565b60606003805480602002602001604051908101604052809291908181526020016000905b828210156113fe5760008481526020908190206040805161010081018252600886029092018054835260018101546001600160a01b031693830193909352600283018054929392918401916111a390611b9c565b80601f01602080910402602001604051908101604052809291908181526020018280546111cf90611b9c565b801561121c5780601f106111f15761010080835404028352916020019161121c565b820191906000526020600020905b8154815290600101906020018083116111ff57829003601f168201915b505050505081526020016003820154815260200160048201805461123f90611b9c565b80601f016020809104026020016040519081016040528092919081815260200182805461126b90611b9c565b80156112b85780601f1061128d576101008083540402835291602001916112b8565b820191906000526020600020905b81548152906001019060200180831161129b57829003601f168201915b505050505081526020016005820180546112d190611b9c565b80601f01602080910402602001604051908101604052809291908181526020018280546112fd90611b9c565b801561134a5780601f1061131f5761010080835404028352916020019161134a565b820191906000526020600020905b81548152906001019060200180831161132d57829003601f168201915b505050505081526020016006820154815260200160078201805461136d90611b9c565b80601f016020809104026020016040519081016040528092919081815260200182805461139990611b9c565b80156113e65780601f106113bb576101008083540402835291602001916113e6565b820191906000526020600020905b8154815290600101906020018083116113c957829003601f168201915b5050505050815250508152602001906001019061114f565b50505050905090565b6001600160a01b0381166000908152600260209081526040808320805482518185028101850190935280835260609492939192909184015b828210156116ee5760008481526020908190206040805161010081018252600886029092018054835260018101546001600160a01b0316938301939093526002830180549293929184019161149390611b9c565b80601f01602080910402602001604051908101604052809291908181526020018280546114bf90611b9c565b801561150c5780601f106114e15761010080835404028352916020019161150c565b820191906000526020600020905b8154815290600101906020018083116114ef57829003601f168201915b505050505081526020016003820154815260200160048201805461152f90611b9c565b80601f016020809104026020016040519081016040528092919081815260200182805461155b90611b9c565b80156115a85780601f1061157d576101008083540402835291602001916115a8565b820191906000526020600020905b81548152906001019060200180831161158b57829003601f168201915b505050505081526020016005820180546115c190611b9c565b80601f01602080910402602001604051908101604052809291908181526020018280546115ed90611b9c565b801561163a5780601f1061160f5761010080835404028352916020019161163a565b820191906000526020600020905b81548152906001019060200180831161161d57829003601f168201915b505050505081526020016006820154815260200160078201805461165d90611b9c565b80601f016020809104026020016040519081016040528092919081815260200182805461168990611b9c565b80156116d65780601f106116ab576101008083540402835291602001916116d6565b820191906000526020600020905b8154815290600101906020018083116116b957829003601f168201915b5050505050815250508152602001906001019061143f565b505050509050919050565b6002602052816000526040600020818154811061171557600080fd5b60009182526020909120600890910201805460018201546002830180549295506001600160a01b03909116935090610ca490611b9c565b60006020828403121561175e57600080fd5b81356003811061176d57600080fd5b9392505050565b80356001600160a01b038116811461178b57600080fd5b919050565b634e487b7160e01b600052604160045260246000fd5b600082601f8301126117b757600080fd5b813567ffffffffffffffff808211156117d2576117d2611790565b604051601f8301601f19908116603f011681019082821181831017156117fa576117fa611790565b8160405283815286602085880101111561181357600080fd5b836020870160208301376000602085830101528094505050505092915050565b600080600080600060a0868803121561184b57600080fd5b61185486611774565b9450602086013567ffffffffffffffff8082111561187157600080fd5b61187d89838a016117a6565b955060408801359450606088013591508082111561189a57600080fd5b6118a689838a016117a6565b935060808801359150808211156118bc57600080fd5b506118c9888289016117a6565b9150509295509295909350565b6000602082840312156118e857600080fd5b61176d82611774565b634e487b7160e01b600052602160045260246000fd5b6003811061192557634e487b7160e01b600052602160045260246000fd5b9052565b602081016119378284611907565b92915050565b6000806040838503121561195057600080fd5b823591506020830135801515811461196757600080fd5b809150509250929050565b60006020828403121561198457600080fd5b5035919050565b6000815180845260005b818110156119b157602081850181015186830182015201611995565b506000602082860101526020601f19601f83011685010191505092915050565b8881526001600160a01b0388166020820152610100604082018190526000906119fc8382018a61198b565b90508760608401528281036080840152611a16818861198b565b905082810360a0840152611a2a818761198b565b90508460c084015282810360e0840152611a44818561198b565b9b9a5050505050505050505050565b60006020808301818452808551808352604092508286019150828160051b87010184880160005b83811015611b3957603f19898403018552815180518452878101516001600160a01b0316888501528681015161010088860181905290611abc8287018261198b565b915050606080830151818701525060808083015186830382880152611ae1838261198b565b9250505060a08083015186830382880152611afc838261198b565b9250505060c080830151818701525060e08083015192508582038187015250611b25818361198b565b968901969450505090860190600101611a7a565b509098975050505050505050565b60008060408385031215611b5a57600080fd5b611b6383611774565b946020939093013593505050565b6001600160a01b038416815260608101611b8e6020830185611907565b826040830152949350505050565b600181811c90821680611bb057607f821691505b602082108103611bd057634e487b7160e01b600052602260045260246000fd5b50919050565b601f821115611c2057600081815260208120601f850160051c81016020861015611bfd5750805b601f850160051c820191505b81811015611c1c57828155600101611c09565b5050505b505050565b815167ffffffffffffffff811115611c3f57611c3f611790565b611c5381611c4d8454611b9c565b84611bd6565b602080601f831160018114611c885760008415611c705750858301515b600019600386901b1c1916600185901b178555611c1c565b600085815260208120601f198616915b82811015611cb757888601518255948401946001909101908401611c98565b5085821015611cd55787850151600019600388901b60f8161c191681555b5050505050600190811b01905550565b828152604060208201526000611cfe604083018461198b565b949350505050565b600060018201611d2657634e487b7160e01b600052601160045260246000fd5b5060010190565b634e487b7160e01b600052603260045260246000fd5b60208152600061176d602083018461198b56fea2646970667358221220153905547a5bb0ca4b9cbe30e8f3cd30a6aa40910b50a437edafb955eeb75abd64736f6c63430008130033",
  "immutableReferences": {},
  "source": "// SPDX-License-Identifier: MIT\r\npragma solidity ^0.8.0;\r\n\r\ncontract InsuranceContract {\r\n    // User roles\r\n    enum Role {\r\n        NONE,\r\n        PATIENT,\r\n        INSURANCE\r\n    }\r\n\r\n    // User structure\r\n    struct User {\r\n        address userAddress;\r\n        Role role;\r\n        uint256 registrationDate;\r\n    }\r\n\r\n    // Insurance claim structure\r\n    struct InsuranceClaim {\r\n        uint256 claimId;\r\n        address patient;\r\n        string plan;\r\n        uint256 amount;\r\n        string description;\r\n        string status; // \"Pending\", \"Approved\", \"Rejected\"\r\n        uint256 timestamp;\r\n        string ipfsHash; // For uploaded insurance paper\r\n    }\r\n\r\n    // State variables\r\n    address public systemOwner;\r\n    mapping(address => User) public users;\r\n    mapping(address => InsuranceClaim[]) public insuranceClaims;\r\n    InsuranceClaim[] public allInsuranceClaims;\r\n    uint256 public nextClaimId = 1;\r\n\r\n    // Events\r\n    event UserRegistered(address indexed user, Role role);\r\n    event InsuranceClaimSubmitted(\r\n        uint256 indexed claimId,\r\n        address indexed patient,\r\n        uint256 amount,\r\n        string plan\r\n    );\r\n    event InsuranceClaimProcessed(\r\n        uint256 indexed claimId,\r\n        address indexed patient,\r\n        string status\r\n    );\r\n\r\n    // Modifiers\r\n    modifier onlySystemOwner() {\r\n        require(msg.sender == systemOwner, \"Only system owner can call this function\");\r\n        _;\r\n    }\r\n\r\n    modifier onlyPatient() {\r\n        require(users[msg.sender].role == Role.PATIENT, \"Only patients can call this function\");\r\n        _;\r\n    }\r\n\r\n    modifier onlyInsurance() {\r\n        require(\r\n            users[msg.sender].role == Role.INSURANCE || msg.sender == systemOwner,\r\n            \"Only insurance providers can call this function\"\r\n        );\r\n        _;\r\n    }\r\n\r\n    // Constructor\r\n    constructor() {\r\n        systemOwner = msg.sender;\r\n        \r\n        // Register system owner as insurance provider\r\n        users[msg.sender] = User({\r\n            userAddress: msg.sender,\r\n            role: Role.INSURANCE,\r\n            registrationDate: block.timestamp\r\n        });\r\n    }\r\n\r\n    // Register user function\r\n    function registerUser(Role _role) external returns (bool) {\r\n        require(users[msg.sender].userAddress == address(0), \"User already registered\");\r\n        require(_role != Role.NONE, \"Invalid role\");\r\n        require(_role == Role.PATIENT || _role == Role.INSURANCE, \"Invalid role type\");\r\n\r\n        users[msg.sender] = User({\r\n            userAddress: msg.sender,\r\n            role: _role,\r\n            registrationDate: block.timestamp\r\n        });\r\n\r\n        emit UserRegistered(msg.sender, _role);\r\n        return true;\r\n    }\r\n\r\n    // Get user role\r\n    function checkUser(address _userAddress) public view returns (Role) {\r\n        return users[_userAddress].role;\r\n    }\r\n\r\n    // Patient submits insurance claim\r\n    function addInsuranceClaim(\r\n        address patient,\r\n        string memory plan,\r\n        uint256 amount,\r\n        string memory description,\r\n        string memory ipfsHash\r\n    ) public {\r\n        require(bytes(plan).length > 0, \"Insurance plan cannot be empty\");\r\n        require(amount > 0, \"Claim amount must be greater than 0\");\r\n        require(bytes(description).length > 0, \"Description cannot be empty\");\r\n        require(patient != address(0), \"Invalid patient address\");\r\n        \r\n        // Allow both patients to submit their own claims and system owner to submit on behalf\r\n        require(\r\n            msg.sender == patient || msg.sender == systemOwner,\r\n            \"Only patient or system owner can submit this claim\"\r\n        );\r\n        \r\n        InsuranceClaim memory claim = InsuranceClaim({\r\n            claimId: nextClaimId,\r\n            patient: patient,\r\n            plan: plan,\r\n            amount: amount,\r\n            description: description,\r\n            status: \"Pending\",\r\n            timestamp: block.timestamp,\r\n            ipfsHash: ipfsHash\r\n        });\r\n        \r\n        insuranceClaims[patient].push(claim);\r\n        allInsuranceClaims.push(claim);\r\n        \r\n        emit InsuranceClaimSubmitted(nextClaimId, patient, amount, plan);\r\n        nextClaimId++;\r\n    }\r\n\r\n    // Get claims for a patient\r\n    function getInsuranceClaims(address patient) public view returns (InsuranceClaim[] memory) {\r\n        return insuranceClaims[patient];\r\n    }\r\n\r\n    // Get all claims (for insurance dashboard)\r\n    function getAllInsuranceClaims() public view returns (InsuranceClaim[] memory) {\r\n        return allInsuranceClaims;\r\n    }\r\n\r\n    // Approve/reject claim (by insurance provider)\r\n    function processInsuranceClaim(uint256 claimId, bool approve) public onlyInsurance {\r\n        require(claimId > 0 && claimId < nextClaimId, \"Invalid claim ID\");\r\n        \r\n        for (uint256 i = 0; i < allInsuranceClaims.length; i++) {\r\n            if (allInsuranceClaims[i].claimId == claimId) {\r\n                string memory newStatus;\r\n                if (approve) {\r\n                    allInsuranceClaims[i].status = \"Approved\";\r\n                    newStatus = \"Approved\";\r\n                } else {\r\n                    allInsuranceClaims[i].status = \"Rejected\";\r\n                    newStatus = \"Rejected\";\r\n                }\r\n                \r\n                address patient = allInsuranceClaims[i].patient;\r\n                for (uint256 j = 0; j < insuranceClaims[patient].length; j++) {\r\n                    if (insuranceClaims[patient][j].claimId == claimId) {\r\n                        insuranceClaims[patient][j].status = newStatus;\r\n                        break;\r\n                    }\r\n                }\r\n                \r\n                emit InsuranceClaimProcessed(claimId, patient, newStatus);\r\n                return;\r\n            }\r\n        }\r\n        revert(\"Claim not found\");\r\n    }\r\n\r\n    // Add some sample data for testing (only owner can call this)\r\n    function addSampleData() public onlySystemOwner {\r\n        // Create some sample patients\r\n        address patient1 = 0x1234567890123456789012345678901234567890;\r\n        address patient2 = 0xaBcDef1234567890123456789012345678901234;\r\n        \r\n        // Add sample claims\r\n        addInsuranceClaim(\r\n            patient1,\r\n            \"Health Plus Plan\",\r\n            1000,\r\n            \"Routine checkup and blood tests\",\r\n            \"QmSampleHash1\"\r\n        );\r\n        \r\n        addInsuranceClaim(\r\n            patient1,\r\n            \"Health Plus Plan\",\r\n            2500,\r\n            \"Emergency surgery\",\r\n            \"QmSampleHash2\"\r\n        );\r\n        \r\n        addInsuranceClaim(\r\n            patient2,\r\n            \"Basic Health Plan\",\r\n            500,\r\n            \"Dental cleaning\",\r\n            \"QmSampleHash3\"\r\n        );\r\n        \r\n        // Process some claims\r\n        processInsuranceClaim(1, true);  // Approve first claim\r\n        processInsuranceClaim(3, false); // Reject third claim\r\n    }\r\n}\r\n",
  "sourcePath": "C:\\Personal Project\\DigiArogya1.0\\DigiArogya\\contract\\contracts\\InsuranceContract.sol",
  "compiler": {
    "name": "solc",
    "version": "0.8.19+commit.7dd6d404.Emscripten.clang"
  },
  "schemaVersion": "3.4.16",
  "updatedAt": "2025-08-16T11:23:12.522Z",
  "networkType": "ethereum",
  "devdoc": {
    "kind": "dev",
    "methods": {},
    "version": 1
  },
  "userdoc": {
    "kind": "user",
    "methods": {},
    "version": 1
  }
}